:1000000058940320ED020000E9020000E90200001C
:10001000E9020000E9020000E9020000000000001F
:10002000000000000000000000000000E9020000E5
:10003000E902000000000000E9020000E9020000FF
:10004000E9020000E9020000E9020000E902000004
:10005000E9020000E9020000E9020000E9020000F4
:10006000E9020000E9020000E9020000E9020000E4
:10007000E9020000E9020000E9020000E9020000D4
:10008000E9020000E9020000C9160000D1160000D4
:10009000E9020000D9160000E9020000E9020000B0
:1000A000E9020000E9020000E1160000E902000098
:1000B000E9020000E9020000E9020000D914000092
:1000C000E1140000E9140000F1140000F91400002C
:1000D000E9020000E9020000E9020000E902000074
:1000E000E9020000E902000000000000000000003A
:1000F00000000000E9180000E9020000E902000029
:10010000E9020000E9020000E9020000E902000043
:10011000E9020000E9020000E9020000E902000033
:10012000E9020000E9020000E9020000E902000023
:10013000E9020000E9020000E9020000E902000013
:10014000E9020000E902000031200000292000003F
:1001500021200000B51F000000000000000000008A
:10016000000000000000000000000000000000008F
:10017000000000000000000000000000000000007F
:10018000E9020000E9020000E9020000E9020000C3
:1001900000000000E9020000E9020000E90200009E
:1001A000E9020000E9020000E9020000E9020000A3
:1001B000E9020000E9020000E9020000E902000093
:1001C000E9020000E9020000E9020000E902000083
:1001D000E9020000E9020000E9020000E902000073
:1001E000E9020000E9020000E902000031240000F9
:1001F00069240000E9020000E9020000E9020000B1
:10020000E90200000000000000000000E902000018
:10021000E9020000E9020000E9020000E902000032
:10022000E9020000E9020000E9020000E902000022
:10023000E9020000E9020000E9020000E902000012
:10024000E9020000C1180000E9020000E902000014
:10025000E9020000E9020000E9020000E9020000F2
:100260000000000010B5054C237833B9044B13B1DE
:100270000448AFF300800123237010BD400000202C
:1002800000000000384600000C4B43B10C480D49FB
:1002900010B5AFF300800C48036823B910BD0A48BD
:1002A000036833B97047094B002BF7D0BDE8104005
:1002B0001847064B002BF5D0184700BF0000000080
:1002C00038460000440000203846000000000000CE
:1002D00010B5034B9847034BBDE81040184700BFCB
:1002E0001908000075400000FEE7000008B5144A38
:1002F000144B9A4218D1144B144A002193421CD338
:10030000134A144B22F07F029A60D3F8882042F4FB
:100310007002C3F88820BFF34F8FBFF36F8F0E4B6F
:1003200098470E4B9847FEE70D49043A8B42E2D2BC
:1003300052F8040F43F8040BF8E743F8041BDDE719
:1003400038460000000000204000002054940220A5
:100350000000000000ED00E09D430000413500007A
:100360003C00002030B54A1CC4B2C0F34712164806
:1003700004F01F0300EBC21007D1184490F840307E
:1003800003F0FE0380F8403030BDC5185B0895F8D7
:10039000402002F0FE02184442F0010285F840209D
:1003A00090F8303014F0010F19BF03F00F0343EA47
:1003B000011101F00F0103F0F00314BFC9B219439A
:1003C00080F8301030BD00BF008000410122430999
:1003D000914200F01F0002FA00F011D002D302296E
:1003E0001FD07047DB0103F1824303F500435860DF
:1003F00082B242F08042000C9A6240F040400EE02F
:10040000DB0182B203F1824303F5004342F08042F4
:1004100042F4003258609A62054A42EA10409862FB
:100420007047DB0103F1824303F500439860DFE787
:10043000000002C010B500210220044B9847044977
:10044000044B0220BDE81040184700BFCD03000058
:100450000100020065030000044A136A43F08003B0
:100460001362034B4022C3F820217047000800406C
:10047000001C004010B5054B9847054B98470022DB
:1004800004490548054BBDE81040184759040000D1
:1004900035040000001C0043D8060020150A0000A7
:1004A00070B5224B224C234E234D4022C3F890209E
:1004B000224A536943F48063536101213620B047D7
:1004C00094F8D63003F0FB0384F8D6304FF458117B
:1004D0003620A84701213720B04794F8D73003F0E1
:1004E000FB0384F8D7304FF45C113720A847012173
:1004F0001920B04794F8593003F0FB0384F85930C1
:100500004FF4C8111920A84701212E20B04794F8B4
:10051000CE3003F0FB0384F8CE304FF438112E2098
:10052000A847074BBDE87040184700BF001C0040BB
:1005300000800041CD03000065030000000800407A
:100540006D0B000010B51249124C0E20A047124945
:100550001020A04711491120A04711491220A0479F
:1005600010491320A04710491420A0470F49152017
:10057000A0470F491620A0470E491720A0470E4953
:100580000C20A04723460D490D20BDE81040184718
:100590000A000E00650300000A0010000A001100A6
:1005A0000A0012000A0013000A0014000A001500D5
:1005B0000A0016000A0017000A000C000A000D00CD
:1005C000024A136A43F40063136270470008004054
:1005D00010B5054B9847054B054906489847064B0B
:1005E000BDE81040184700BFC1050000BD0A00006B
:1005F000002C0043C406002045050000064B4022A5
:10060000C3F80C214322C3F88C20044A136A43F038
:1006100002031362704700BF001C00400008004046
:1006200010B5054C05493020A04723460449312028
:10063000BDE81040184700BF65030000020030000D
:100640000200310013B5074B074C98470023009375
:10065000064A074907481023A047074B02B0BDE8E8
:1006600010401847FD050000950F00005C000020B9
:1006700000040043DC060020210600002DE9F041C3
:100680002F4C304E304D4FF4006702212B20B047E5
:10069000C4F8947094F8CB302C4903F0FB0384F831
:1006A000CB302B20A84702210820B0474FF480739D
:1006B000636194F8483003F0FB0384F848304FF04E
:1006C00008110820A84702210920B0474FF4007301
:1006D000636194F849301E4903F0FB0384F8493004
:1006E0000920A8474FF4806802210A20B047C4F8C7
:1006F000148094F84A30174903F0FB0384F84A3019
:100700000A20A84702210B20B047676194F84B30BC
:10071000114903F0FB0384F84B300B20A84702215A
:100720002A20B047C4F8948094F8CA300B4903F0EB
:10073000FB0384F8CA302A202B46BDE8F041184755
:1007400000800041CD0300006503000008002B007D
:100750000800090008000A0008000B0008002A0031
:10076000054A136943F400431361044B4022C3F864
:100770003421C3F88C20704700080040001C004062
:1007800010B5054B9847054B05484FF08A419847EF
:10079000044BBDE810401847610700001D0C000025
:1007A000300700207D0600000148024B184700BFBB
:1007B00010E000E0D50A00000149024B3E20184736
:1007C00004003E0065030000044A536943F480437B
:1007D0005361034B4022C3F8A42070470008004037
:1007E000001C004010B5064B9847064B9847064B37
:1007F00098470649064B0246BDE810400548184791
:10080000C9070000B90700000524000000380040B7
:10081000D10C0000A80600202DE9F0416C4B6D4C76
:100820006D4D98471023636102210420A84794F876
:100830004430202603F0FE0384F844300221666130
:100840000520A84794F8453003F0FE0384F84530AE
:1008500001210620A84794F8463003F0FB0384F8F2
:10086000463094F8463003F0FE0384F84630012108
:100870000720A84794F8473003F0FB0384F847307B
:1008800094F847304FF4004703F0FE0384F84730F4
:10089000022167610F20A84794F84F3003F0FE0350
:1008A00084F84F304FF08073636102211820A8470D
:1008B00094F858304FF0010803F0FE0384F85830E4
:1008C0003046C4F894800221A84794F8C03002262C
:1008D00003F0FE0384F8C0303146C4F89460212050
:1008E000A84794F8C13003F0FE0384F8C130042314
:1008F000C4F8943031462220A84794F8C23003F05F
:10090000FE0384F8C23041462520A84794F8C5303C
:1009100003F0FB0384F8C53094F8C53003F0FE0300
:1009200084F8C5304FF40073C4F894303146292060
:10093000A84794F8C93003F0FE0384F8C9304FF497
:100940008053C4F8983031462C20A84794F8CC3016
:1009500003F0FE0384F8CC304FF40053C4F8943015
:1009600031462D20A84794F8CD3003F0FE0384F8DB
:10097000CD3031462F20A847C4F8947094F8CF307A
:1009800003F0FB030C212F2084F8CF30134B984742
:10099000134B9847134B9847134B9847134B984763
:1009A000134B9847134B9847134B9847134A536977
:1009B0003B435361124B4022C3F8A420114B98478C
:1009C0001149124B0246BDE8F0411148184700BFDB
:1009D0008512000000800041CD0300006503000087
:1009E00075040000A1040000D105000045060000C8
:1009F00081070000A9070000E5070000000800408B
:100A0000001C004001240000003C0040DD0D0000FF
:100A100048070020004B1847DD11000008B5024BC5
:100A20009847002008BD00BFFD1100002DE9F84FD8
:100A30009846154BDFF85890DFF858B004460E463C
:100A4000174698474FF0000A05462046C8473146EA
:100A500020460E4B98470028F9D031462046D8470B
:100A6000012D88BF07EB0A020AEB050307F80A000D
:100A700088BF000A1FFA83FA88BF5070D045E4D8B7
:100A80005046BDE8F88F00BF091200001B1200009D
:100A90002912000041120000EFF31083036072B6C8
:100AA000BFF35F8F7047BFF35F8F036883F31088D6
:100AB0007047036903B118477047000010B5034B36
:100AC00004469847024B2360002010BD891800009F
:100AD000B30A0000014B1860014B18476C0000205E
:100AE00039200000054B10B51C68054B9847054B95
:100AF00001462046BDE81040184700BF6C000020AA
:100B0000691200004D200000054B10B51C68054B14
:100B10009847054B01462046BDE81040184700BFE6
:100B20006C0000207B1200004D20000070B40E4DC0
:100B3000042100240A195210032AD3B211DC05EB58
:100B4000C2067668864204D155F832304BB170BC8B
:100B5000184735BF013303F1FF33DCB2D9B28C4201
:100B6000E8D970BC704700BF70000020074B0848F0
:100B70004FF0FF31002259601A60D9609A605961C4
:100B80001A61D9619A61034B184700BF70000020B9
:100B90002D0B00009D1500001E4AF0B500230546F0
:100BA000144602EBC3004068A84208D142F8331053
:100BB00001B101212846184BBDE8F0401847013328
:100BC000042BEED111B3002254F83230D000D3B947
:100BD00044F8321022181646556004EB030E716873
:100BE000DEF80470B9420AD2791C08D096E80300F6
:100BF00054F803C08EE80300C2F800C05760083301
:100C0000202BEAD1D5E70132042ADDD16FF00C00A8
:100C1000F0BD00BF700000207D160000004B18479B
:100C2000F319000010B49DF804400194024CA4464E
:100C30005DF8044B604700BF351A0000004B1847B1
:100C40000D1B0000004B1847111B0000004B1847FC
:100C50001B1B0000004B1847251B0000004B1847CA
:100C6000411B0000004B1847751B0000004B184744
:100C70007B1B000010B4024CA4465DF8044B604797
:100C80002519000030B4BDF808400294034C9DF8CB
:100C90000C500395A44630BC604700BFA91B000060
:100CA000004B18477D1D0000004B1847B91D000080
:100CB000004B1847F51D0000004B1847F91D0000B8
:100CC000436903B118477047836903B118477047F8
:100CD00010B5044B04469847034B2360034B6360F5
:100CE000002010BD45220000C10C0000C90C00000E
:100CF00038B5064B05469847044620B92846044BAC
:100D00009847204638BD6FF0100038BDE923000039
:100D10006523000008B5024B9847002008BD00BFBE
:100D200079230000F0B505681DB90F4BBDE8F04010
:100D30001847D1F808E02C460026C2F1010C636880
:100D4000A768934295BFDB1963449B1ADB1973456F
:100D500007D22368264613B93046044BE6E71C4603
:100D6000EDE7A542F8D1E0E7031000000B1000000A
:100D70002DE9F0470669037E44690136DA07054626
:100D8000066110D4037E9B070DD4DFF84880DFF89E
:100D9000489000F1140724B16368A268F31A9342E3
:100DA00007D2BDE8F0872B7E43F002032B76BDE827
:100DB000F0873846C047237C012B04D16660324659
:100DC00021463846C847D5F814A0E368204698471E
:100DD0005446E0E713100000250D000010B5044B49
:100DE000044698470020034B2061236010BD00BFDC
:100DF0001D210000710D000038B5064B05469847CF
:100E0000044620B92846044B9847204638BD6FF069
:100E1000100038BDD123000051230000F7B5037E38
:100E200000F1140643F0010303760446154B3046E7
:100E30000F469847054638B1237E03F0FE0323761C
:100E40006FF0110003B0F0BD22690F4B7A6030469D
:100E500039469847237E03F0FE032376207E10F068
:100E60000200EFD001A8094B9847237E03F0FD0351
:100E700023762046064B984701A8064B98472846FC
:100E8000E0E700BFF50F0000250D0000990A000003
:100E900009240000A70A0000034600229A62DB69C9
:100EA000083803B118477047034600229A625B6A0C
:100EB000083803B11847704770B50446054BA0F1D8
:100EC00008052C309847236A1BB12846BDE87040BE
:100ED000184770BD5910000010B5B0F84C301446DA
:100EE000B0F844209A420CD10023A0F844300123EA
:100EF0008164A0F84C4003630830034B98472046B8
:100F000010BD6FF01B0010BDA31F0000838FB0F851
:100F100044209A4210B504460AD0026C591C8187BD
:100F2000D15C044B9847044B2046BDE8104018475D
:100F3000024BFAE79D1F0000A31F0000AB1F00003B
:100F40002DE9F74305460F4BDFF8449001A83435EF
:100F50008846164698470C4B284698470B4B074641
:100F600001A898470024A74201D0B44203D1A0B2FF
:100F700003B0BDE8F08308EB04012846C8470134FC
:100F8000F1E700BF990A00007F100000A70A0000E7
:100F90003710000038B504460D46343011461A4665
:100FA0000C4B984790B9294604F108000A4B984722
:100FB00070B90A4B63600A4B23600A4BA3600A4B6B
:100FC000E3600A4B23610A4B636138BD6FF00C008C
:100FD00038BD00BF1F100000311F0000410F00008E
:100FE000D90E00000D0F0000B90E0000990E000090
:100FF000A90E0000006800B970478842FAD10120AC
:10100000704703680B600160704703680B60016004
:10101000704703680BB11A68026018467047531E88
:101020001A4001BF43608260C26001600CBF10467D
:101030006FF00C0070478368C2689A4209D042681A
:1010400013400268D35C0B70836801338360002017
:1010500070476FF009007047C36842681340026828
:10106000D154C36881684268591A914288BF9A1A5C
:1010700003F1010388BF8260C36000207047C2682B
:101080008068101A7047036B0B42FCD17047000058
:1010900003889BB243F0020303800321004B1847EF
:1010A00087100000038823F002031B041B0C03803D
:1010B0000321014B184700BF871000000020704734
:1010C000414B984270B502460D466BD14FF08013EC
:1010D0001B68DC00190904F4E06401F070010C43A2
:1010E000C3F382031C43136B384E13F0010F10D16E
:1010F00003211046B04713889B0705D51046344B93
:10110000984702211046B04701231380032110465F
:10111000B04710460121B0472E4BA2F84840162197
:1011200001FB05351046AB88D38040F6FF71B04710
:10113000AB791372104640F6FF71B047EB799370AC
:101140002B899380104640F6FF71B047AB7A9372BB
:10115000104640F6FF71B047EB7AD372104640F666
:10116000FF71B047AB89938110468021B047EB896E
:10117000D38110464FF48071B0472B8A13821046FA
:101180004FF40071B0476B8A538210464FF4806170
:10119000B0472B7DD3706B88138010460321B04776
:1011A000002070BD0C4B98420CD14FF080131B688F
:1011B000DC0A990C04F4E06401F070010C43C3F301
:1011C00002438FE700248EE7001C004387100000D5
:1011D000A5100000F44300000020004310B5054AAC
:1011E000016008460B469047BDE81040014618468E
:1011F000014B1847BD100000C11000000068014BF2
:10120000184700BF911000000368DB88C3F3C103D7
:10121000032B0CBF012002207047036893F82E00B7
:1012200000F00100704700000068037D43F00203F6
:10123000037540F6FF71014B184700BF871000008F
:101240000368B3F8400080B27047000043090122F0
:1012500000F01F0002FA00F04033024A42F8230077
:10126000704700BF00E100E04FF4167358430138A7
:101270000A23B0FBF3F0013070474EF66023584369
:101280007047000010B50D4A0D4C13889BB21380B7
:101290000C4B98470C4B98470C4B98470C20A04799
:1012A0000B4B984740F6F370A0470A4A136943F482
:1012B00000731361BDE81040074B18470040004120
:1012C000FD1600006117000081170000551700008F
:1012D00085170000000800402913000030B4104BAF
:1012E000104C1A8C1D8C02F01F020C215143ED058D
:1012F00004EB010007D503EB0213012283F84E2013
:10130000436830BC18471D8CAD0506D503EB0213AE
:10131000022283F84E206358F3E730BC704700BFC9
:1013200000A000419000002070B52E4B1A8822F0DA
:1013300002021204120C1A805A8822F47C521204FF
:10134000120C5A801A8892B242F001021A801A884E
:1013500012F00102FBD14FF470611980597B2248D1
:1013600001F0FE01597321495A615863996313468C
:101370001F4902461D461C0104F1824000F5204031
:101380000E6806640E7980F845604E7980F84660F4
:1013900001331019CE881653202BC56001F10801C6
:1013A000E9D11F22012053099B0003F1604302F0A1
:1013B0001F0103F5614300FA01F1C3F88010BFF388
:1013C0004F8FBFF36F8F0132242AC3F88011196049
:1013D000E9D1044A13889BB243F002031380002032
:1013E00070BD00BF00A00041700700207009002000
:1013F0000C440000024B03EB00108160002070479A
:1014000070070020024B03EB001041600020704782
:10141000700700200001024B89B21952002070476A
:1014200070070020024B03EB0010C16000207047E2
:1014300070070020024B03EB0010408880B2704719
:101440007009002070B50F4B00011D18AE681A5AC4
:101450001C5AC2F30122240542BF01FA02F4A41966
:10146000AC601C1865681E5A760548BF01FA02F286
:10147000034448BF521989B248BF626059800020B6
:1014800070BD00BF7007002010B502010B4CA35ABD
:101490009BB243F00103A35202F1824303F52043C0
:1014A0001A6C42F002021A6431B1054A0123116933
:1014B00003FA00F008431061002010BD70070020FF
:1014C00000A00041034B01EB410103EB81010160EE
:1014D0000020704790000020004B1847DD120000EC
:1014E000004B1847DD120000004B1847DD120000CA
:1014F000004B1847DD120000004B1847DD120000BA
:10150000F7B51F4B1F4D5A690192019A1E4E5A6141
:101510004FF0FF37019BCBB903B0F0BD0420002191
:1015200043185B10DAB215F833E0A6451FD105EB7E
:10153000C3035F687A1C02D0384633689847019B22
:10154000012202FA04F423EA04040194019B93FAB1
:10155000A3F4002BB4FA84F408BF4FF0FF34631CEB
:10156000DCD1074B5A690192019A5A61D2E7B5BFA3
:10157000013202F1FF32D1B2D0B28842D0D2D9E7E3
:10158000002800400C45000010020020024A536869
:101590000342FCD1704700BF0028004070B53249BB
:1015A000324C4B6813F0010F064611D10320A047BF
:1015B0000B789B0707D50B7803F0FD0303200B7016
:1015C000A0470220A047284B01221A700320A04701
:1015D0000120A04724490B7803F0EF030B70032090
:1015E000A04700254FF03B434D708D608D610D632A
:1015F0004D63CB611E4B0B620B7843F002030B7003
:101600000320A0471B4B4FF48022C3F88020BFF378
:101610004F8FBFF36F8FC3F880211A604FF4002201
:10162000C3F88020BFF34F8FBFF36F8FC3F88021C3
:101630001A604FF40012C3F88020BFF34F8FBFF33E
:101640006F8FC3F880211A604FF08062C3F880204A
:10165000BFF34F8FBFF36F8FC3F880211A60064B23
:1016600028461E6070BD00BF002800408D15000098
:10167000B000000A00E100E010020020362812D07D
:10168000372812D0192812D02E2815D103230C4A3E
:1016900012F83300FF280FD001230A4A834041B1DA
:1016A0001361002070470023F1E70123EFE70223D5
:1016B000EDE7D3605361F4E74FF0FF30704700BFB0
:1016C0000C45000000280040004B184701150000A1
:1016D000004B184701150000004B1847011500008A
:1016E000004B184701150000034943F6FD734A6893
:1016F0001A42FCD1704700BF001C004010B5C4075F
:1017000004D50E4B0E4A1A620E4B9847810704D53A
:101710000A4B0D4A5A620B4B9847420704D5074BB8
:101720000A4A9A62074B9847030706D5034B084AB3
:10173000DA62BDE81040034B184710BD001C0040A2
:1017400007010200E9160000070B06000501010071
:1017500006011000014B01225A7170470008004039
:10176000064B42F28E229A8200229A75DA75DA6965
:1017700002F47C52DA6101221A74704700140040AE
:10178000704700003B4B1A6A22F00F0242F004023D
:101790001A6243F6FD7259681142FCD1596811F082
:1017A0000401FBD1344A11774221C3F88010334B36
:1017B000936292F82C3013F01003FAD182F82030A3
:1017C0002D4A134692F82C104907FBD402211177B9
:1017D00093F82C209207FBD45A6A5A62264B1A4679
:1017E00093F82C100807FBD4812183F8201092F87D
:1017F0002C305907FBD41F4B4321C3F884102723F7
:1018000053631D4B1946DA6B12F00602FBD19A6343
:10181000022283F83020CB6B9B07FCD491F8203058
:10182000154A13F0010F21D0136903F41063B3F5C7
:10183000106FF9D1104B1A6CD10702D41A6C9207B1
:10184000F9D50C4A11465368002BFCD1136A23F0DA
:101850000F0343F00703136243F6FD734A681A420D
:10186000FCD1044A53685B07FCD470471369D80560
:10187000FCD5DFE7001C004000100040B9057F7C6C
:10188000806800210368184738B5084BC160084DCF
:101890000B60084B044618600021074B2846984708
:1018A0002B68064A9C601A6038BD00BF200000C04B
:1018B000700B002014020020C514000081180000E5
:1018C000084B07B51868C3681A69019201229A602B
:1018D000019BDB0703D503680BB10021984703B0D8
:1018E0005DF804FB1402002007B50C4A9378DBB2C4
:1018F0000193019B990707D5094B1B6823B15068D9
:10190000984703B05DF804FB019BDB07F9D5044B56
:101910005B68002BF5D0014AF1E700BF00000241EF
:10192000740B002070B5140204F47C54D50541EA10
:10193000040103D5140528D541F0010190F80442B3
:1019400055044CBF44F0100404F0EF0480F8044246
:1019500083608BB2C38140F27F2502F4805340F252
:101960005D26448EA4B2BBB1344225D090F82F300E
:1019700043F0020380F82F30438E9BB26FEA93232B
:101980006FEA83234386002070BD96044CBF41F06C
:10199000030141F00201D1E72C420DD090F82F2035
:1019A00042F0020280F82F20428E92B26FEA922219
:1019B0006FEA82224286E6E7048EE407D1D58D06DF
:1019C0005FBF038E9BB243F00103038694040ED5E0
:1019D0000023591C426A06D190F82F3043F00203CD
:1019E00080F82F30CFE7D20203F10103F1D50120B7
:1019F00070BD016091F82F3043F0010381F82F3062
:101A000091F82F0010F00100FAD10E2381F82E304A
:101A10000F2381F829308B8E9BB26FEA53236FEA34
:101A200043238B86CB8E9BB26FEA93236FEA83238B
:101A3000CB86704730B501689DF80C4091F82800BE
:101A4000002C4FD040F0040081F82800C88F00041B
:101A500041D4888D450708D5486A8407FCD1888D14
:101A600020F004000004000C88854C6C254D2648AD
:101A7000C4F30744002C18BF28468C8DB0FBF2F24B
:101A800024F020042404240C8C8591F828004007BD
:101A90004FEA520202D5002A08BF0122888DC0B247
:101AA00040EA022080B28885888D20F0C0000004C2
:101AB0009208000C02F0C00202438A858A8D92B21D
:101AC00042F001028A858A8D9207FCD58A8D92B2F6
:101AD00042F004028A85012B07D0042B0DD06FF051
:101AE0000C0030BD00F0FB00AEE791F8283003F0A9
:101AF000FD0381F82830002030BD91F8283043F0F4
:101B00000203F6E700D0C90100A09303002070474C
:101B100000290CBF0420002070470368186CC0F334
:101B20004050704782B00023019341F28732019BFD
:101B3000934201D902B07047019B01330193F6E74C
:101B400030B400680D46416A11F0010113460BD113
:101B5000848924F001042404240C8481044CC18071
:101B60002A46A44630BC6047002030BC704700BF06
:101B70002519000003681869704710B5046803232D
:101B80001A1D032B54F822201CBF100E01F8010B64
:101B9000100C087013F1FF334FEA122048708A705E
:101BA00001F10301ECD210BD2DE970030546006878
:101BB000BDF81460446AE4072CD4446A14F0020FA0
:101BC00028D111F4004F14BF0024102411F4803FD9
:101BD00004D111F4003F17D044F02204A4B2848150
:101BE000C3F3090484800D4CC6804FF000084FF009
:101BF00000092B82C5E902896E821346A4460A4673
:101C0000BDE870032021604711F4002FE6D111F4E4
:101C1000801FE1D10020BDE8700370472519000046
:101C20002DE9F74F038AB0F812800193D0E902AB97
:101C300008FB03F2D317B2EB0A0263EB0B03002B92
:101C400008BF042A38BF019B0468274D38BF03F042
:101C50000307019B4FF000028946194606461346CA
:101C600050460A46594628BF0427A847134315D1B2
:101C7000638E03F070034BB194F82F3043F00203EE
:101C800084F82F30002003B0BDE8F08F238E9A0631
:101C9000EED5238E9BB243F020032386042F236AC4
:101CA0001DD1C9F8003001991AEB07024BF100036E
:101CB000A1FB08894B4508BF4245C6E902230CD366
:101CC000638E03F07003002BD6D1238E9B07F7D5CC
:101CD000238E9BB243F0020323860120D3E77A1EB2
:101CE000022AE0D8DBB2DCE78D4000002DE9F047A6
:101CF000D0E90267B0F810800468DFF87CA00546E0
:101D000089464246002330463946D047134314D112
:101D1000638E03F0700343B194F82F3043F0020355
:101D200084F82F300020BDE8F087238EDA06EFD547
:101D3000238E9BB243F010032386C4F820906B8A55
:101D4000043647F10007A3FB08894F4508BF464505
:101D5000C5E902670CD3638E03F07003002BDBD15F
:101D6000238E9B07F7D5238E9BB243F00203238675
:101D70000120BDE8F08700BF8D4000002DE9F04153
:101D8000058ADFF83080074655430E46042415B90E
:101D90000120BDE8F08131463846C047A5423FBF2B
:101DA0003B8A93FBF4F204FB1234E4B22D1B26446D
:101DB000EDE700BF211C00002DE9F041058ADFF8A6
:101DC0003080074655430E46042415B90120BDE86E
:101DD000F08131683846C047A5423FBF3B8A93FB3C
:101DE000F4F204FB1234E4B22D1B2644EDE700BFED
:101DF000ED1C00000120704701207047002808DB1F
:101E00004209012300F01F0003FA00F0014B43F8E0
:101E10002200704700E100E000280DDB43090122A9
:101E200000F01F0002FA00F02033044A42F82300B9
:101E3000BFF34F8FBFF36F8F704700BF00E100E02B
:101E4000002809DB4309012200F01F0002FA00F01C
:101E50006033024A42F82300704700BF00E100E00F
:101E6000C3690B42FCD17047036823F0020303608F
:101E70000321014B184700BF611E000070B50B4DD8
:101E800006460FCD86B06C460FC495E8030084E883
:101E9000030000205DF82030B34202D1C0B206B08A
:101EA00070BD01300628F5D10020F8E72C45000070
:101EB00008B5034B984780002E3000F0FE0008BDA7
:101EC0007D1E000010B5C369154C13F0010F0246CA
:101ED0000DD10321A04703689B0703D5114B9847F9
:101EE0000221A0470523136003211046A047104696
:101EF0000121A0470C4B136010460321A0474FF46B
:101F00004033536010461F21A047084B93600020C8
:101F10004FF658739381907382F8300010BD00BF64
:101F2000611E0000691E00000400104002007000E5
:101F30002DE9F8430646124B08460C4698470546DD
:101F4000D8B9104BB4619C4208BF0F4BDFF84880F2
:101F500008BF1E6020460D4B0D4F0E4E98470024C3
:101F6000814609EB0401C9B20846C0470846B84794
:101F700001340846B047042CF3D12846BDE8F88365
:101F8000C51E00000004004318020020B11E00001E
:101F9000411E0000FD1D0000191E000083699962AA
:101FA0007047836901229A757047836902229A7586
:101FB00070470000194B10B518688469237EDA0752
:101FC00008D5A37DDB0705D5012323750368BDE88C
:101FD00010401847237E990706D5A37D9A0703D59D
:101FE000022323758368F2E7237E5B070CD5638B9E
:101FF00003F0370313B1FF23638310BDA16A436865
:10200000C9B2BDE810401847237EDB09F5D0802314
:102010002376C3689847638B9BB2EDE718020020D4
:10202000004B1847B51F0000004B1847B51F0000B4
:10203000004B1847B51F0000034B6FF07F425A60FA
:1020400005221A60704700BF10E000E00B0E0C4A3A
:1020500030B5D8B26FF07F440138C0B2FF2808D144
:10206000A3EB03631944516091601368DB03FCD553
:1020700030BD546094601568ED03FCD5ECE700BFFB
:1020800010E000E000280DDB4309012200F01F00F2
:1020900002FA00F02033044A42F82300BFF34F8FC6
:1020A000BFF36F8F704700BF00E100E003690B4290
:1020B000FCD17047036823F0020303600321014B46
:1020C000184700BFAD20000070B5124D06460FCD79
:1020D00086B06C460FC495E8030084E80300002333
:1020E0005DF82320B2420BD1DBB20B4A1178994242
:1020F0000BD0127D9A420AD1012040B206B070BDC9
:102100000133062BECD10023EFE70020F5E74FF079
:10211000FF30F3E75C450000000000202DE9F843A4
:1021200081460C463F4B08469847C9F80C40236946
:102130003D4A13F0010F074610D103212046904776
:1021400023689B0705D52046384B98470221204637
:10215000904701232360032120469047DFF8E08069
:10216000142505FB07850121204690476E682660EF
:10217000032120469047AB7AE37306F00C062B89C7
:10218000E380082E4FF0010323732BD1EB68E3614A
:10219000C021204690472B692362C02120469047EA
:1021A00001236372224B9C4235D1224BC3F800902D
:1021B000142303FB0787204BB7F902100846984702
:1021C00000290CDB01F01F024909890001F160417F
:1021D00001F5614101239340C1F880310B6000207B
:1021E000BDE8F8833EB9AB89A383C0212046904760
:1021F0002B8AE383D1E7042ED2D12B7B2377C02116
:10220000204690472B7C6377C02120469047EB7A8D
:10221000E3762021C2E7094B9C4204BF054BC3F87B
:102220000490C5E7C9200000AD200000B5200000E3
:10223000003800401C02002085200000003C0040C7
:10224000000000202DE9F84381460C46384B084633
:102250009847C9F810402369364A13F0010F074622
:1022600010D103212046904723689B0705D52046BF
:10227000314B9847022120469047012323600321D8
:1022800020469047DFF8C480142505FB078501210F
:10229000204690476E682660032120469047AB7A1F
:1022A000E37306F00C062B89E380082E4FF003033E
:1022B000237329D1EB68E361C021204690472B6945
:1022C0002362C021204690471C4B9C4225D11C4BC9
:1022D000C3F80090142303FB07871A4BB7F90210C9
:1022E0000846984700290CDB01F01F0249098900C4
:1022F00001F1604101F5614101239340C1F8803152
:102300000B600020BDE8F88376B9AB89A383C021B8
:10231000204690472B8AE383D3E70B4B9C4204BFB4
:10232000074BC3F80490D5E74FF0FF30BDE8F883C2
:10233000C9200000AD200000B5200000003800409A
:102340001C02002085200000003C0040000000200E
:10235000C068036843F0020303600321004B184781
:10236000AD2000000069036843F00203036003210D
:10237000004B1847AD20000070B50469114B204692
:1023800015460E469847104A142303FB00200F4AB7
:102390004368C66003F00C03082B056109D1E661B0
:1023A000C0212046904725622046C021BDE87040EC
:1023B0001047B6B2A683C0212046ADB29047E58350
:1023C000F2E700BFC920000000000020AD2000009F
:1023D000C26808B510460321024B98471068C0F345
:1023E000400008BDAD200000026908B51046032179
:1023F000024B98471068C0F3400008BDAD200000B4
:10240000002070470020704710B5064BC068984701
:10241000054A142303FB0020BDE810408078034BDD
:10242000184700BFC9200000000000204D12000026
:102430000C4B70B51C682569AB7ADA0705D501230A
:10244000AB7223680BB1204698476B7A9B0707D580
:102450000223AB7263681BB12046BDE87040184789
:1024600070BD00BF1C020020054B5868C3689A7AF3
:10247000D20703D501229A7203681847704700BF3C
:102480001C020020064B0122C3F8882002F1804282
:10249000C3F8A8204FF04042C3F8A820704700BFFF
:1024A00000800041064B0122C3F8842002F18042E3
:1024B00002F50032C3F8A820024AC3F8A8207047EA
:1024C00000800041000002C013B50A4B01A89847E4
:1024D000094BD3F88010D3F8A020D3F89040074BD5
:1024E00054400C4001A85440984704F0010002B049
:1024F00010BD00BF990A000000800041A70A00003B
:10250000064B0422C3F8882002F18042C3F8A820B9
:102510004FF04042C3F8A820704700BF0080004140
:10252000064B0422C3F8842002F1804202F50032F7
:10253000C3F8A820024AC3F8A820704700800041D1
:10254000000002C06420014B184700BFE50A0000EC
:1025500010B5064B064C9847A047064B9847A04736
:10256000054B98472346BDE81040184785240000D6
:102570004525000021250000A52400002DE9F04795
:10258000DFF86090DFF854A0DFF85C80054608248F
:102590002B061CD5D0470F4E0F4F013CC0476D0096
:1025A000B047B847B04714F0FF04EDB2F0D10B4B81
:1025B0009847C047B0470A4B98470446B847B047CA
:1025C000084B9847B4FA84F04009BDE8F087C84743
:1025D000E1E700BF4525000001250000A52400001B
:1025E000C9240000852400002125000070B5084B97
:1025F00004460D469847074B9847074B984760009D
:10260000C0B20DB10130C0B2044BBDE870401847F4
:102610008524000045250000012500007D250000DF
:10262000144B15490122C3F89420C3F8842002F109
:10263000804202F50032C3F8A820C3F8A81093F82E
:10264000C02002F0FE0283F8C0200422C3F89420C8
:10265000C3F8842002F1804202F50032C3F8A820BA
:10266000C3F8A81093F8C22002F0FE0283F8C2203B
:10267000704700BF00800041000002C010B5064B4B
:102680000C460021984710B12046044B9847044B54
:102690009847002010BD00BFED2500007D250000FB
:1026A00051250000024A136801331360704700BFD0
:1026B0002402002037B50E4B054601A898476B0948
:1026C0000C49DB01CA18C958136A14695C400C40F4
:1026D00001A85C40084B984705F01F05012303FA49
:1026E00005F5254214BF1846002003B030BD00BFD9
:1026F000990A000000800041A70A00001920014B40
:10270000184700BFB5260000F8B53720104B114C14
:102710009847C0B9104E114D4FF40077236843F02D
:1027200020032360FA20C6F89C70A847F6E7C5F896
:102730009C6041F28830B847236823F0200323606F
:10274000002BF4D1F8BD044D044F4FF40076F3E7AD
:10275000B52600002800002000800041090B000081
:102760002DE9F0413620104DA847A0B10D200F4CA7
:10277000A0473620A847254668B90D4E0D4F0446A0
:102780004FF400783268E3B29A4204F1010404D8AD
:10279000094B04221A60BDE8F081C7F89C804FF411
:1027A0007A70A847EEE700BFB5260000090B0000CD
:1027B000B8920220008000412800002013B50123B8
:1027C0000DF1070200210A480A4CA0479DF8073086
:1027D000094A8B2B137008D8084B1A6842F4807290
:1027E0001A601A6842F010021A6002B010BD00BFF1
:1027F000D80600202D0A0000980B00202800002099
:102800002DE9F047274D284C4FF48056C5F89860C5
:1028100081460A208846A047C5F894600A20A04750
:1028200020260827B24649FA07F313F0010F4FF0AC
:102830001003C5F814A04FF00A0014BFAB616B6120
:10284000A047AE610A20A04717F1FF37EBD2102353
:102850006E610A20AB61A047AE610A20A047202725
:10286000104D0F26B94648FA06F313F0010F4FF04A
:102870001003C5F814904FF00A0014BFAB616B61F0
:10288000A047AF610A20A04716F1FF36EBD20A201D
:102890006F61A0470A20A0474FF48053C5F89830D5
:1028A000BDE8F08700800041E50A00000228054BE2
:1028B00004D0042804D0E121CC201847E421FBE710
:1028C0002421F9E7012800000A280DD002D80528A4
:1028D00005D070470F280AD014280BD0704744F653
:1028E0002061C920054B184742F21071F9E741F603
:1028F0000B21F6E741F28831F3E700BF0128000021
:102900002DE9F843274D284C4FF48056C5F89860C0
:1029100080460A20A047C5F894600A20A0472026D8
:102920000827B14648FA07F313F0010F4FF01003E0
:10293000C5F814904FF00A0014BFAB616B61A0475B
:10294000AE610A20A04717F1FF37EBD210236E616A
:102950000A206B61A047AE610A20A0476E610A2081
:10296000A0474FF020080F4F0F250026C1460A2030
:10297000C7F81890A0470D4BC7F814800620984759
:10298000A84006430A20A04715F1FF35B6B2EED2A3
:102990000A20A0474FF48053C7F898303046BDE86E
:1029A000F88300BF00800041E50A0000B526000062
:1029B00010B500210F4C0220A04742F21311112044
:1029C000A04700211420A0474FF40A511A20A04725
:1029D00043F62D511B20A04747F21C012020A047A1
:1029E00000210820A047234607211020BDE8104001
:1029F000184700BF0128000010B50021064C09202F
:102A0000A04747F20E012020A047234601212220A3
:102A1000BDE81040184700BF0128000010B5002194
:102A2000CD4C0220A04700210820A047002109200A
:102A3000A04700210A20A04700211420A0474FF4FE
:102A40000A511A20A04743F62D511B20A04747F2F8
:102A50000F012020A04701212220A0470721282084
:102A6000A04740F65F012920A04744F203112A2025
:102A7000A0474FF4A3612B20A04701213020A0479D
:102A800001214020A04743F62A014120A04745F2FA
:102A9000C8314220A04740F265614320A04785210C
:102AA0004420A04740F688014520A0474FF49041BC
:102AB0004620A04748F688014720A04740F217115A
:102AC0004820A04700217020A04744F20A718020CE
:102AD000A04748F201018120A04715218220A0478C
:102AE00040F60101C020A047E421C220A0474FF4D6
:102AF0008271C520A0473221C720A04740F6E4419B
:102B0000C820A04740F6E441C920A047E421CC20DA
:102B1000A0471421CF20A0474FF48071D620A047B2
:102B200041F21F01D720A0470021D820A047232130
:102B3000DB20A04743F62B41DC20A04742F64D3175
:102B4000DD20A04743F65E61E020A0474921D32065
:102B5000A0470021D820A0472321DB20A04743F62F
:102B60002B41DC20A04742F64D31DD20A04740F24A
:102B70009921E620A0474FF45471E720A0474FF475
:102B8000FA71E820A047E121EB20A0474BF21901A0
:102B90004FF48070A0474BF219014FF48170A047A9
:102BA0004FF448414FF4C070A0474FF61F3140F238
:102BB0008110A0474FF61F314FF4C170A0474FF668
:102BC000123140F28310A0474FF612114FF4C27039
:102BD000A0474FF6031140F28510A0474FF60201BF
:102BE0004FF4C370A0474FF20F3140F28710A04757
:102BF0004FF20F314FF4C470A0474FF20F3140F243
:102C00008910A0474FF20A314FF4C570A0474FF228
:102C1000011140F28B10A0474FF20A014FF4C67029
:102C2000A0474FF24B2140F28D10A0474FF20121F7
:102C30004FF4C770A0474FF2262140F28F10A047F3
:102C40004FF221014FF4C870A0474FF2010140F24A
:102C50009110A0474FF202414FF4C970A0474FF2C4
:102C6000070140F29310A0474FF20F214FF4CA70B2
:102C7000A0474FF20F2140F29510A0474FF20221DA
:102C80004FF4CB70A0474FF2060140F29710A047D7
:102C90004EF608414FF4CC70A0474CF6010140F2CB
:102CA0009910A0474FF448414FF4CD70A0474FF41E
:102CB000484140F2A310A0474CF602414FF4D270B5
:102CC000A0474CF6014140F2A510A0474CF6024146
:102CD0004FF4D370A0474CF6014140F2A710A04733
:102CE0004CF602414FF4D470A0474CF6050140F277
:102CF000A910A0474FF448414FF4D570A0473021A8
:102D000040F2AB10A04742F27B014FF4D670A047CF
:102D100042F2710140F2AD10A04771214FF4D7701B
:102D2000A04741F27F0140F2AF10A04741F272018B
:102D30004FF4D870A04741F2740140F2B110A0479F
:102D400071214FF4D970A047312140F2B310A04750
:102D500042F2BB1102E000BF012800004FF4DA701C
:102D6000A04742F2B10140F2B510A047B1214FF4A3
:102D7000DB70A04741F2BF0140F2B710A04741F21B
:102D8000B2014FF4DC70A04741F2B40140F2B91037
:102D9000A047B1214FF4DD70A047302140F2BB10B5
:102DA000A04730214FF4DE70A04742F27B1140F281
:102DB000BD10A04742F271014FF4DF70A0477121AE
:102DC00040F2BF10A04741F27F014FF4E070A047EE
:102DD00041F2720140F2C110A04741F274014FF478
:102DE000E170A047712140F2C310A04731214FF498
:102DF000E270A04742F2BB1140F2C510A04742F278
:102E0000B1014FF4E370A047B12140F2C710A047D1
:102E100041F2BF014FF4E470A04741F2B20140F229
:102E2000C910A04741F2B4014FF4E570A047B121A9
:102E300040F2CB10A04730214FF4E670A04730217C
:102E400040F2CD10A04742F27B114FF4E770A0474B
:102E500042F2710140F2CF10A04771214FF4E870A7
:102E6000A04741F2710140F2D110A04771214FF407
:102E7000E970A047312140F2D310A04742F2BB11C4
:102E80004FF4EA70A04742F2B10140F2D510A047DA
:102E9000B1214FF4EB70A04741F2B30140F2D710DB
:102EA000A04741F2B1014FF4EC70A047B12140F2CC
:102EB000D910A0473F214FF4ED70A047322140F2D6
:102EC000DB10A047234630214FF4EE70BDE81040E0
:102ED000184700BF10B500210E4C0A20A04747F24A
:102EE0000F012020A04707212820A04744F21311FA
:102EF0002A20A04701213020A04701214020A047DF
:102F000040F227114820A047234600217020BDE849
:102F1000104018470128000010B5064B98470A20BA
:102F2000054B9847054B9847054B9847054BBDE81F
:102F300010401847B1290000090B0000F9290000D2
:102F40001D2A0000D52E000010B5064C40F6830166
:102F5000C020A047234640F6E471C220BDE81040DF
:102F6000184700BF0128000008B5012240F2FE31D9
:102F7000064B002098470121054B06489847064B11
:102F800000209847B0FA80F0400908BD453D000098
:102F9000F93D000028020020253E0000174AD2F823
:102FA00004344FF4A04103F0070330B55943144CE7
:102FB0000C2565506318D2F8041401F0070159601C
:102FC000D2F808149960D2F80414D960D2F80C141D
:102FD00019610C49096859610B49096899610B49E4
:102FE00012680968521ADA61094A1278D2B29A62F2
:102FF000084A80001268DA62186230BD240200209C
:10300000580C00204C0C0020A40B0020340C002095
:10301000980B0020C092022008B571B9074B41F20D
:10302000F4309847064BD3F804240132C3F8042443
:10303000D3F80C240132C3F80C2408BD9D2F0000E6
:103040002402002030B50904D2B200230A4343EA27
:10305000E1730024024922430343C1E9002330BD48
:10306000B0920220642828BF642010B50022C0EB73
:103070000040094B0C466421B0FBF1F1074898472A
:10308000074B06489847074B022214B1C3F8982013
:1030900010BDC3F8942010BD150D0000A806002037
:1030A000F10C000000800041C1B2014B2320184701
:1030B0007D2600002DE9F041154A164F164D0023DC
:1030C00041F2F43C40F6092E4FF4A046072B4FEA9C
:1030D000031003F101041EBF02EB000802EB041110
:1030E000C8F80C1002EB000108BFD267A1F802C0BB
:1030F00022F800E04F60488806FB035380B230336B
:1031000003EB8003082C8B602346DFD1BDE8F08100
:10311000B00B0020142C0043580C00202DE9F04186
:103120000E4F0F4B0F4D0601BC19002061689847E8
:10313000A1680020A84761880B4B89B200209847FE
:10314000B95B0A4B89B200209847A1680020A847C4
:10315000E168074B0020BDE8F0411847B00B0020A4
:1031600005140000F51300004514000015140000BC
:1031700025140000F8B52E202E4B9847074600284E
:1031800056D12D4D2C6814F018042E4630D02B4CFF
:103190002B4A236823F001032360136C23F00203FE
:1031A0001364284B9847C0F59F50274B143098471D
:1031B000264BC3F80C74D3F804240132C3F804245A
:1031C000D3F808240132C3F808242A6812070DD561
:1031D000D3F804041E4B00F0070098471D4B3946F6
:1031E00038469847236843F0010323603368F8BDED
:1031F0002B689B051CD5154BC3F80844C3F8044441
:10320000C3F80C44144B98472046114B9847114B78
:10321000214620469847094A136843F0010313608A
:103220002B6823F400732B602B6843F008032B609A
:10323000F8BD00BFB526000028000020002C004388
:1032400000A00041351400009D2F00002402002042
:103250001D31000089140000B5300000174A00231A
:1032600010B51360164A174C1360174AE0691360D3
:10327000164A1360164A1360164B22681A60164BE2
:1032800098470121A069154B98476069144B9847EE
:10329000144B606A9847144B4FF40072C3F898209F
:1032A000124B1A6822F002021A601A6822F0040215
:1032B0001A601A6842F400721A6010BD540C0020A3
:1032C0004C0C002024020020A40B0020440C002001
:1032D000A00B0020340C0020A93000006530000055
:1032E000AD280000C928000000800041280000200F
:1032F000184B1A6822F0100210B51A601A68164CA2
:1033000022F008021A601A6842F002021A60134B97
:103310001B68C4F81432124B1B68C4F8183201221F
:1033200040F2FF310F4B0020984701210E4B04F56E
:10333000017098470D4B00209847002108460C4B20
:1033400098470C4B002098470B4B4FF40072C3F882
:10335000942010BD28000020240200204C0C0020E6
:10336000A40B0020653F0000F53F00002140000055
:1033700065300000A9300000008000415D4B5E48D0
:103380004FF400722DE9F041C3F898205B4B5C4C80
:1033900002681D68D4F804142A448A420646194675
:1033A0005FD202681F68D4F804543A440832AA4233
:1033B000544D58D2D4F8102401681868D4F8106419
:1033C0001F6801443A44B1FBF6F006FB1011521A93
:1033D0001A602168226A28684FF47A735343091AE5
:1033E000994205D322B14848016841F010010160BB
:1033F00021682868091A8B4233D3236B012B30D103
:10340000002A2ED041490B685BB30B68FF2B28D8EC
:103410003F4B1B880A689BB2934222D33D4B2068E6
:103420002D681B88D4F814249BB202FB03334FF49D
:103430007A72401B5343984213D3374B1888374B4B
:10344000D4F814541A8893B205FB033313FA80F3AB
:103450000B600868324B9847D4F814340133C4F831
:103460001434BDE8F08100681B68274FDFF8CC807A
:1034700018442C4B4FF4A04200F0070002FB003030
:10348000294B1860036A03F22F235B0A7B607B6879
:10349000282B84BF28237B60336843610B688361DA
:1034A00023682A689B1A436233680A6864211344BC
:1034B000B3FBF1F201FB123322682968521A1B494F
:1034C00041F8232079681A4B4902232201F47E41F6
:1034D0009847B968174A7B680020C047164B002000
:1034E00098477B68BA681344BB6033680133336024
:1034F0006FE700BF008000414C0C0020A40B0020AF
:1035000024020020340C002028000020C092022059
:10351000380C0020BE920220480C0020BC920220F1
:10352000A9300000580C0020300C0020C49202206A
:1035300045300000B0920220393F0000813E00007B
:10354000F8B56F4C6F4E704D1223C4F81034D4F898
:1035500010340133C4F810346C4B98476C4B6D48F1
:1035600002221A734FF080730021B3616A4B9847AF
:103570006A4B98476A4AC4F824244FF4FA7201232C
:10358000C4F8342404F58361664A6748C4F83824D3
:10359000C4F8203484F8283484F83C34A84704F272
:1035A0002C416148A847614B5F48614D984761498C
:1035B0003620A84760493720A84760492E20A847F1
:1035C0005F491920A8475F4B5F4D98474FF4007340
:1035D000C6F894300020A8470028FBD15B4B5C4D17
:1035E000484E98472B685B4A01280CBF43F04003C4
:1035F00043F080032B604FF08A434FF40057196C5F
:103600001160596C516093F82810C9B2916093F819
:10361000282042F0100283F828206420C6F8947015
:103620004D4B9847C6F8987064204C4B98474C4BCC
:10363000002098474B4BE26918804B4B1A604B4B6C
:10364000E26A1A604A4BA2691A604A4B626A1A60BF
:10365000494BA26A1A60494B226A1A60236B484A96
:103660009BB21380636B474A9BB21380A36B464A9D
:103670009BB21380E36B454A9BB21380236C444A90
:103680009BB21380434B9847434B98474FF4987332
:10369000C4F80432C4F80832636AC4F80C32002655
:1036A0004FF4A0430122C4F81032C4F81462C4F8E5
:1036B000186240F2FF313046384B394C98470121AF
:1036C000384B394898473046384B394E9847394B34
:1036D000022283F84D20384B384A1A61384B394A58
:1036E0001A602B68590700D5A0472B681A0700D528
:1036F000B0472B68DB06F4D5334B9847F1E700BFA2
:1037000024020020008000411D0E0000D1020000B4
:1037100000380040D80600201D0A000021260000C5
:10372000A5260000BD27000048070020F90D000075
:10373000990B000061270000092700007531000087
:10374000FD260000B530000065390000692F00003B
:1037500028000020588C0220090B0000E50A000018
:1037600001290000900B0020C0920220940B002041
:103770003C0C0020400C0020B8920220500C00208D
:10378000A8920220480C0020380C0020BC92022095
:10379000BE920220192F0000492F0000653F000053
:1037A0005D320000F53F00002804002021400000A9
:1037B0007D33000000A00041C40600201930000045
:1037C000002C0043200000C0F132000070B5891ABF
:1037D0000824073191FBF4F1084402F0070210F8C5
:1037E000011CD418082C41FA02F118DD10F8025C13
:1037F000C2F10806B540102C41EA05010FDD10F8B2
:10380000030CC2F11005182CC8BFC2F1180200FA4F
:1038100005F541EA0501C4BF00FA02F21143012097
:1038200098400138084070BD37B50E4B054601A8D9
:1038300098476B090C49DB01CA18C958136A146907
:103840005C400C4001A85C40084B984705F01F0500
:10385000012303FA05F5254214BF1846002003B0E2
:1038600030BD00BF990A000000800041A70A000097
:1038700013B5074802680179947F537B003418BF61
:10388000012400941268034C8068A04702B010BD68
:1038900070060020250C0000034B197911B99868B7
:1038A000024B1847704700BF700600203D0C000017
:1038B00070B5064600283CD11F4DEB682C4603B37B
:1038C000B3F90000421C1CD01C4BC0B29847EB68F7
:1038D0005B88984203D00423AB76022070BDAB7E98
:1038E000042B01D10123F7E7012B06D10222AA768E
:1038F000134A2A616B7785F82E60A07E03280DD1CC
:1039000070BDA37E033B012B08D80223A3760C4B8A
:10391000236101236377002384F82E300023237171
:10392000084B2360084B9847A07E831E584258419D
:1039300070BD042070BD00BF700600202938000053
:10394000801A0600800600207138000010B5044B74
:1039500004249C76FF241C719860D9601A6310BD02
:10396000700600202DE9F04F8A4B95B0984701284A
:10397000074605D0884B9847384615B0BDE8F08F0C
:10398000864C874E23680025D8721D731D81A06860
:10399000B0472A464FF48041A068824DA847B246FE
:1039A000002800F0DC804FF4D57245F20851A06881
:1039B000A847002800F096817B4BA0689847431CDD
:1039C00000F09081C0F30B00B0F5D57F40F0C780C8
:1039D0003B462268D27AD2072AD5002B734BDFF8F8
:1039E000C89114BF98464FF4FC1840F635060022E3
:1039F00041F23711A068A847002800F0A480424691
:103A000044F22951A068A847002800F09C80A068D3
:103A1000C847002880F29480460004D52268D37AF3
:103A200043F00803D3722368DB7AD80700F18F8054
:103A3000002245F20311A068A847002800F08F80FB
:103A4000594EA068D4F80080B04723680396000C54
:103A5000A8F80800DA7A12F0010F37D01A89A068A6
:103A6000120441F60931A847002878D02168A068DF
:103A70004F4BDFF850810E319847D4F800B00BF16E
:103A80000E090823602280214846C047494AC0F3F6
:103A9000C30100F0070002EB80004FF47A73006C62
:103AA00052F8212043435343CBF800307E220223B7
:103AB00080214846C047002855D016233022802157
:103AC0004846C04701304002CBF804002368A06894
:103AD0001A8943F207111204A84700283FD023682F
:103AE000DA7AD10775D51A89A068120441F2371124
:103AF000A847002833D0012601960096082300220B
:103B00002D49A068DFF8C080C04740B3324604A901
:103B1000A0682A4B984710B3A068294B9847F0B18A
:103B200004233822402104A8DFF89880C047B0421F
:103B30004CD002D3022800F0CA802368102247E04C
:103B4000013E7FF454AF23680022DA7207E00022BE
:103B500045F60231A068A84700287FF469AF2368C2
:103B600003279F7206E70C233E2280214846C04768
:103B7000032306462F2280214846C04701360230E3
:103B800086400423502280214846C04706FA00F0B0
:103B9000800A99E7B13800009938000070060020CB
:103BA000550C00005D0C0000650C000000801F40FB
:103BB0006D0C00007445000033110800A10C0000DA
:103BC000B10C0000CD370000850C000023681A22DC
:103BD0001A732179A068444B9847032817D92368A2
:103BE000DA7AD20711D51A89A068120441F2371186
:103BF000A8470028B3D0022241F20611A068A847C6
:103C00000028ACD0236804225A73384B9847A06828
:103C1000374B9847002849D02368DA7AD60743D52E
:103C20001B7B102B40D940220021324BDFF8D8807B
:103C3000012604A898470196009640232E4A2F4952
:103C4000A068C04700288AD0324604A9A0682C4B3F
:103C50009847002883D0A0682A4B984700283FF453
:103C60007EAFA068039B984700063FF578AF04231A
:103C70004FF4BC724FF4007104A8DFF89080C04785
:103C80000F2811D010234FF488724FF400710DEB00
:103C90000300C04700287FF462AFA068D0472368C4
:103CA0001A689E77B2401A60104B98472368DB7AF7
:103CB000D90708D54FF4007241F21011A068A84747
:103CC00000283FF44CAF236800229A7252E62F225C
:103CD0003346402104A8C047012823680CBF302286
:103CE000202275E7002374E6450C000071380000BF
:103CF0004D0C0000E543000001FFFF8006110800A5
:103D0000A10C0000B10C0000850C0000CD370000B4
:103D100038B50A4C236B7BB100B2850033F9200023
:103D2000421C09D0064BC0B29847236B2B445B88DA
:103D30001B1A5842584138BD002038BD700600207B
:103D4000293800002DE9F74F214B89461546984741
:103D50008046C8B91F4FDFF898A0DFF898B03C46FE
:103D60003B68B8681A8941F20D111204D84738B17E
:103D7000B868194EB047C2050AD4BAF1010AEFD1AA
:103D8000164B98474FF00508404603B0BDE8F08F4A
:103D9000134B1449012D98BF19462368DB7A1B0782
:103DA00001D44FEA49290123019300954FF4007390
:103DB0004A46A0680C4FB8470028E1D0A068B04739
:103DC0000A4B0340002BDBD1A586E586DCE700BF6C
:103DD000B138000070060020650C00009938000022
:103DE0001111080012111000850C0000000058E4A9
:103DF000410D03005D0C000038B5084C084B0D4622
:103E00000A460146A068984710B9A086052038BD2B
:103E1000A18E491BA186002038BD00BF700600207E
:103E2000A10C000070B5124E124B0446B0689847C2
:103E30003546D8B13CB10023B386EB8E012B07D1B8
:103E40000D4B984702E0B38E002BF6D0002070BDDA
:103E5000002243F20C11A868084CA0470246002833
:103E6000EED143F20C11A868A047E9E7052070BD28
:103E700070060020B10C0000993800005D0C0000B5
:103E80002DE9F0411F46234B05460E4690469847C4
:103E9000044630B92846204B984728B11F4B984715
:103EA00007242046BDE8F0811D4B1E4A1E4D012F00
:103EB00088BF1A462B68DB7A1B074FF08A434FF402
:103EC0000071C3F858809980DF80596A58BF760224
:103ED000C807E6D45B6AC3F34003002BE1D11103AA
:103EE00002D4D302DDD522234FF08A4043F00503EC
:103EF0008381202133460D4EB04718B9074B9847B0
:103F00000524CEE70A4BA86898470A4B0340002BCC
:103F1000C7D0F3E7B1380000113D00009938000028
:103F2000199110001891080070060020750C00000F
:103F3000650C0000000058E408B54FF08A42538E2B
:103F400003F070034BB9138E9B07F8D5138E9BB209
:103F500043F002031386024B9847002008BD00BFC0
:103F600099380000F7B51A4B04460D461746984796
:103F7000064630B92046174B984728B1164B98474C
:103F80000726304603B0F0BD144B154C1549012FE0
:103F900088BF19462368DB7A00971B074FF001039F
:103FA00058BF6D0201932A464FF40073A0680E4D6E
:103FB000A84718B9084B98470526E2E70B4BA068BD
:103FC00098470B4B0340002BF4D1A786E786D8E730
:103FD000B1380000113D000099380000199110001F
:103FE0007006002018910800850C0000650C000088
:103FF000000058E438B5084C084B0D460A46014607
:10400000A068984710B9A086052038BDA18E491B2D
:10401000A186002038BD00BF70060020A90C00005A
:1040200038B5104D104B0446A86898472B46B0B1E0
:104030003CB10022AA86DA8E0C4C012A06D1A04798
:1040400002E0AA8E002AF6D0002038BD9868084BFE
:10405000002243F20C1198470028F0D1A047052018
:1040600038BD00BF70060020B90C00009938000070
:104070005D0C0000024A0348034B111D184700BFA6
:1040800034000020300700204D39000053B94AB9F0
:10409000002908BF00281CBF4FF0FF314FF0FF3050
:1040A00000F07AB9ADF1080C6DE904CE00F006F825
:1040B000DDF804E0DDE9022304B070472DE9F047A4
:1040C0008C460D460446089E002B51D18A42174665
:1040D0006DD9B2FA82FEBEF1000F0BD0CEF1200CEA
:1040E00001FA0EF520FA0CFC02FA0EF74CEA050C68
:1040F00000FA0EF44FEA174A250CBCFBFAF81FFA37
:1041000087F90AFB18CC45EA0C4508FB09F3AB42DA
:104110000AD9ED1908F1FF3280F02381AB4240F259
:104120002081A8F102083D44ED1AA4B2B5FBFAF0D3
:104130000AFB105544EA054400FB09F9A14509D9D9
:10414000E41900F1FF3380F00A81A14540F20781B4
:1041500002383C44A4EB090440EA08400021002E48
:1041600061D024FA0EF4002334607360BDE8F08758
:104170008B4207D9002E54D0002186E82100084642
:10418000BDE8F087B3FA83F1002940F08E80AB429E
:1041900002D3824200F2FA80841A65EB0305012003
:1041A000AC46002E3FD086E81010BDE8F08712B96B
:1041B0000127B7FBF2F7B7FA87FEBEF1000F34D143
:1041C000EB1B3A0C1FFA87FC0121B3FBF2F8250C1C
:1041D00002FB183345EA03450CFB08F3AB4207D951
:1041E000ED1908F1FF3002D2AB4200F2D1808046D7
:1041F000ED1AA3B2B5FBF2F002FB105543EA0544F9
:104200000CFB00FCA44507D9E41900F1FF3302D2EE
:10421000A44500F2B8801846A4EB0C0440EA08401C
:104220009DE731463046BDE8F087CEF1200405FA1F
:104230000EF307FA0EF720FA04F83A0C25FA04F404
:1042400048EA0308B4FBF2F14FEA184502FB1144B7
:104250001FFA87FC45EA044501FB0CF3AB4200FA68
:104260000EF409D9ED1901F1FF3080F08A80AB42DC
:1042700040F2878002393D44EB1A1FFA88F5B3FB00
:10428000F2F002FB103345EA034500FB0CF3AB42AE
:1042900007D9ED1900F1FF386FD2AB426DD9023862
:1042A0003D44EB1A40EA01418FE7C1F1200722FAB1
:1042B00007F88B4005FA01F448EA030320FA07FEE9
:1042C0004FEA134CFD404EEA040EB5FBFCF94FEAF1
:1042D0001E440CFB19551FFA83F844EA054509FBF7
:1042E00008F4AC4202FA01F200FA01FA08D9ED181A
:1042F00009F1FF3043D2AC4241D9A9F102091D4472
:104300002D1B1FFA8EFEB5FBFCF00CFB10554EEA80
:10431000054400FB08F8A04507D9E41800F1FF3573
:1043200029D2A04527D902381C4440EA0940A4EB11
:104330000804A0FB02894C45C6464D4615D312D051
:1043400056B1BAEB0E0364EB050404FA07F7CB4051
:104350001F43CC40376074600021BDE8F0871846E9
:10436000F8E69046E0E6C245EAD2B8EB020E69EB09
:1043700003050138E4E72846D7E7404691E7814640
:10438000BEE7014678E702383C4445E7084608E7BF
:10439000A8F102083D442BE7704700BF70B50D4EF1
:1043A0000D4CA41BA4100025A54209D10B4E0C4CAA
:1043B00000F02EF9A41BA4100025A54205D170BD64
:1043C00056F8253098470135EEE756F825309847DE
:1043D0000135F2E71C4600001C4600001C460000A8
:1043E0002046000002440346934200D1704703F880
:1043F000011BF9E700000000180000000018000091
:10440000000000000000000000000000005020003C
:104410000000000A00000000000000000000000092
:10442000000000000000000000000000000000008C
:10443000000000000000000000000000000000007C
:10444000000000000000000000000000000000006C
:10445000000000000000000000000000000000005C
:10446000000000000000000000000000000000004C
:10447000000000000000000000000000000000003C
:10448000000000000000000000000000000000002C
:10449000000000000000000000000000000000001C
:1044A000000000000000000000000000000000000C
:1044B00000000000000000000000000000000000FC
:1044C00000000000000000000000000000000000EC
:1044D00000000000000000000000000000000000DC
:1044E00000000000000000000000000000000000CC
:1044F00000000000000000000000000000000000BC
:1045000000000000000000000000000006000000A5
:10451000360000000700000037000000090000001E
:10452000190000000E0000002E00000000300040C6
:1045300000340040002001410040014100000043E0
:104540000004004300000000000000000000000024
:1045500000000000000000000000000000380040E3
:10456000003C004000A0014100C001410014004295
:1045700000180042000000000A0000000C000000CB
:104580000D0000000F0000001400000019000000E2
:104590001E00000023000000280000002D00000085
:1045A00032000000370000003C0000004600000020
:1045B000500000000A00000064000000E803000052
:1045C00010270000000000000000000000000000B4
:1045D000000000000A0000000C0000000D000000B8
:1045E0000F000000140000001A0000001E00000070
:1045F00023000000280000002D000000340000000F
:10460000370000003C0000004600000050000000A1
:10461000F8B500BFF8BC08BC9E4670478902000090
:10462000F8B500BFF8BC08BC9E46704765020000A4
:084630008CFAFF7F010000007D
:1046380000006B00000000000000003265EA000086
:104648003275000001006C00080300000000000043
:104658004C1D0000000000000200000028000000BF
:0C46680000040000FFFF0100250000001E
:00000001FF
