S01E00004D696E6973636F70652D76342D776972652D667265652E73726563D5
S1130000E88B0320ED020000E9020000E902000091
S1130010E9020000E9020000E9020000000000001B
S1130020000000000000000000000000E9020000E1
S1130030E902000000000000E9020000E9020000FB
S1130040E9020000E9020000E9020000E902000000
S1130050E9020000E9020000E9020000E9020000F0
S1130060E9020000E9020000E9020000E9020000E0
S1130070E9020000E9020000E9020000E9020000D0
S1130080E9020000E902000099160000A116000030
S1130090E9020000A9160000E9020000E9020000DC
S11300A0E9020000E9020000B1160000E9020000C4
S11300B0E9020000E9020000E9020000A9140000BE
S11300C0B1140000B9140000C1140000C9140000E8
S11300D0E9020000E9020000E9020000E902000070
S11300E0E9020000E9020000000000000000000036
S11300F000000000B9180000E9020000E902000055
S1130100E9020000E9020000E9020000E90200003F
S1130110E9020000E9020000E9020000E90200002F
S1130120E9020000E9020000E9020000E90200001F
S1130130E9020000E9020000E9020000E90200000F
S1130140E9020000E902000001200000F91F00009C
S1130150F11F0000851F00000000000000000000E7
S1130160000000000000000000000000000000008B
S1130170000000000000000000000000000000007B
S1130180E9020000E9020000E9020000E9020000BF
S113019000000000E9020000E9020000E90200009A
S11301A0E9020000E9020000E9020000E90200009F
S11301B0E9020000E9020000E9020000E90200008F
S11301C0E9020000E9020000E9020000E90200007F
S11301D0E9020000E9020000E9020000E90200006F
S11301E0E9020000E9020000E90200000124000025
S11301F039240000E9020000E9020000E9020000DD
S1130200E90200000000000000000000E902000014
S1130210E9020000E9020000E9020000E90200002E
S1130220E9020000E9020000E9020000E90200001E
S1130230E9020000E9020000E9020000E90200000E
S1130240E902000091180000E9020000E902000040
S1130250E9020000E9020000E9020000E9020000EE
S11302600000000010B5054C237833B9044B13B1DA
S11302700448AFF300800123237010BD4000002028
S113028000000000944200000C4B43B10C480D499F
S113029010B5AFF300800C48036823B910BD0A48B9
S11302A0036833B97047094B002BF7D0BDE8104001
S11302B01847064B002BF5D0184700BF000000007C
S11302C0944200004400002094420000000000001A
S11302D010B5034B9847034BBDE81040184700BFC7
S11302E019080000D13C0000FEE7000008B5144ADC
S11302F0144B9A4218D1144B144A002193421CD334
S1130300134A144B22F07F029A60D3F8882042F4F7
S11303107002C3F88820BFF34F8FBFF36F8F0E4B6B
S113032098470E4B9847FEE70D49043A8B42E2D2B8
S113033052F8040F43F8040BF8E743F8041BDDE715
S1130340944200000000002040000020E48B0220C2
S11303500000000000ED00E0F93F000069310000FA
S11303603800002030B54A1CC4B2C0F34712164806
S113037004F01F0300EBC21007D1184490F840307A
S113038003F0FE0380F8403030BDC5185B0895F8D3
S1130390402002F0FE02184442F0010285F8402099
S11303A090F8303014F0010F19BF03F00F0343EA43
S11303B0011101F00F0103F0F00314BFC9B2194396
S11303C080F8301030BD00BF008000410122430995
S11303D0914200F01F0002FA00F011D002D302296A
S11303E01FD07047DB0103F1824303F500435860DB
S11303F082B242F08042000C9A6240F040400EE02B
S1130400DB0182B203F1824303F5004342F08042F0
S113041042F4003258609A62054A42EA10409862F7
S11304207047DB0103F1824303F500439860DFE783
S1130430000002C010B500210220044B9847044973
S1130440044B0220BDE81040184700BFCD03000054
S11304500100020065030000044A136A43F08003AC
S11304601362034B4022C3F8202170470008004068
S1130470001C004010B5054B9847054B98470022D7
S113048004490548054BBDE81040184759040000CD
S113049035040000001C0043C8060020150A0000B3
S11304A070B5224B224C234E234D4022C3F890209A
S11304B0224A536943F48063536101213620B047D3
S11304C094F8D63003F0FB0384F8D6304FF4581177
S11304D03620A84701213720B04794F8D73003F0DD
S11304E0FB0384F8D7304FF45C113720A84701216F
S11304F01920B04794F8593003F0FB0384F85930BD
S11305004FF4C8111920A84701212E20B04794F8B0
S1130510CE3003F0FB0384F8CE304FF438112E2094
S1130520A847074BBDE87040184700BF001C0040B7
S113053000800041CD030000650300000008004076
S11305406D0B000010B51249124C0E20A047124941
S11305501020A04711491120A04711491220A0479B
S113056010491320A04710491420A0470F49152013
S1130570A0470F491620A0470E491720A0470E494F
S11305800C20A04723460D490D20BDE81040184714
S11305900A000E00650300000A0010000A001100A2
S11305A00A0012000A0013000A0014000A001500D1
S11305B00A0016000A0017000A000C000A000D00C9
S11305C0024A136A43F40063136270470008004050
S11305D010B5054B9847054B054906489847064B07
S11305E0BDE81040184700BFC1050000BD0A000067
S11305F0002C0043B406002045050000064B4022B1
S1130600C3F80C214322C3F88C20044A136A43F034
S113061002031362704700BF001C00400008004042
S113062010B5054C05493020A04723460449312024
S1130630BDE81040184700BF650300000200300009
S11306400200310013B5074B074C98470023009371
S1130650064A074907481023A047074B02B0BDE8E4
S113066010401847FD050000850F00005C000020C5
S113067000040043CC060020210600002DE9F041CF
S11306802F4C304E304D4FF4006702212B20B047E1
S1130690C4F8947094F8CB302C4903F0FB0384F82D
S11306A0CB302B20A84702210820B0474FF4807399
S11306B0636194F8483003F0FB0384F848304FF04A
S11306C008110820A84702210920B0474FF40073FD
S11306D0636194F849301E4903F0FB0384F8493000
S11306E00920A8474FF4806802210A20B047C4F8C3
S11306F0148094F84A30174903F0FB0384F84A3015
S11307000A20A84702210B20B047676194F84B30B8
S1130710114903F0FB0384F84B300B20A847022156
S11307202A20B047C4F8948094F8CA300B4903F0E7
S1130730FB0384F8CA302A202B46BDE8F041184751
S113074000800041CD0300006503000008002B0079
S11307500800090008000A0008000B0008002A002D
S1130760054A136943F400431361044B4022C3F860
S11307703421C3F88C20704700080040001C00405E
S113078010B5054B9847054B05484FF08A419847EB
S1130790044BBDE810401847610700001D0C000021
S11307A0200700207D0600000148024B184700BFC7
S11307B010E000E0D50A00000149024B3E20184732
S11307C004003E0065030000044A536943F4804377
S11307D05361034B4022C3F8A42070470008004033
S11307E0001C004010B5064B9847064B9847064B33
S11307F098470649064B0246BDE81040054818478D
S1130800C9070000B9070000D523000000380040E4
S1130810C10C0000980600202DE9F0416C4B6D4C92
S11308206D4D98471023636102210420A84794F872
S11308304430202603F0FE0384F84430022166612C
S11308400520A84794F8453003F0FE0384F84530AA
S113085001210620A84794F8463003F0FB0384F8EE
S1130860463094F8463003F0FE0384F84630012104
S11308700720A84794F8473003F0FB0384F8473077
S113088094F847304FF4004703F0FE0384F84730F0
S1130890022167610F20A84794F84F3003F0FE034C
S11308A084F84F304FF08073636102211820A84709
S11308B094F858304FF0010803F0FE0384F85830E0
S11308C03046C4F894800221A84794F8C030022628
S11308D003F0FE0384F8C0303146C4F8946021204C
S11308E0A84794F8C13003F0FE0384F8C130042310
S11308F0C4F8943031462220A84794F8C23003F05B
S1130900FE0384F8C23041462520A84794F8C53038
S113091003F0FB0384F8C53094F8C53003F0FE03FC
S113092084F8C5304FF40073C4F89430314629205C
S1130930A84794F8C93003F0FE0384F8C9304FF493
S11309408053C4F8983031462C20A84794F8CC3012
S113095003F0FE0384F8CC304FF40053C4F8943011
S113096031462D20A84794F8CD3003F0FE0384F8D7
S1130970CD3031462F20A847C4F8947094F8CF3076
S113098003F0FB030C212F2084F8CF30134B98473E
S1130990134B9847134B9847134B9847134B98475F
S11309A0134B9847134B9847134B9847134A536973
S11309B03B435361124B4022C3F8A420114B984788
S11309C01149124B0246BDE8F0411148184700BFD7
S11309D07512000000800041CD0300006503000093
S11309E075040000A1040000D105000045060000C4
S11309F081070000A9070000E50700000008004087
S1130A00001C0040D1230000003C0040CD0D00003C
S1130A1038070020004B1847CD11000008B5024BE1
S1130A209847002008BD00BFED1100002DE9F84FE4
S1130A309846154BDFF85890DFF858B004460E4638
S1130A40174698474FF0000A05462046C8473146E6
S1130A5020460E4B98470028F9D031462046D84707
S1130A60012D88BF07EB0A020AEB050307F80A0009
S1130A7088BF000A1FFA83FA88BF5070D045E4D8B3
S1130A805046BDE8F88F00BFF91100000B120000BA
S1130A901912000031120000EFF31083036072B6E4
S1130AA0BFF35F8F7047BFF35F8F036883F31088D2
S1130AB07047036903B118477047000010B5034B32
S1130AC004469847024B2360002010BD59180000CB
S1130AD0B30A0000014B1860014B18476C0000205A
S1130AE009200000054B10B51C68054B9847054BC1
S1130AF001462046BDE81040184700BF6C000020A6
S1130B00591200001D200000054B10B51C68054B50
S1130B109847054B01462046BDE81040184700BFE2
S1130B206C0000206B1200001D20000070B40E4DFC
S1130B30042100240A195210032AD3B211DC05EB54
S1130B40C2067668864204D155F832304BB170BC87
S1130B50184735BF013303F1FF33DCB2D9B28C42FD
S1130B60E8D970BC704700BF70000020074B0848EC
S1130B704FF0FF31002259601A60D9609A605961C0
S1130B801A61D9619A61034B184700BF70000020B5
S1130B902D0B00006D1500001E4AF0B5002305461C
S1130BA0144602EBC3004068A84208D142F833104F
S1130BB001B101212846184BBDE8F0401847013324
S1130BC0042BEED111B3002254F83230D000D3B943
S1130BD044F8321022181646556004EB030E71686F
S1130BE0DEF80470B9420AD2791C08D096E80300F2
S1130BF054F803C08EE80300C2F800C057600833FD
S1130C00202BEAD1D5E70132042ADDD16FF00C00A4
S1130C10F0BD00BF700000204D160000004B1847C7
S1130C20C319000010B49DF804400194024CA4467A
S1130C305DF8044B604700BF051A0000004B1847DD
S1130C40DD1A0000004B1847E11A0000004B18475A
S1130C50EB1A0000004B1847F51A0000004B184728
S1130C60111B0000004B1847451B0000004B1847A0
S1130C704B1B000030B4BDF808400294034C9DF8AF
S1130C800C500395A44630BC604700BF791B00009C
S1130C90004B18474D1D0000004B1847891D0000EC
S1130CA0004B1847C51D0000004B1847C91D000024
S1130CB0436903B118477047836903B11847704704
S1130CC010B5044B04469847034B2360034B636001
S1130CD0002010BD15220000B10C0000B90C00006A
S1130CE038B5064B05469847044620B92846044BB8
S1130CF09847204638BD6FF0100038BDB923000076
S1130D003523000008B5024B9847002008BD00BFFA
S1130D1049230000F0B505681DB90F4BBDE8F0404C
S1130D201847D1F808E02C460026C2F1010C63688C
S1130D30A768934295BFDB1963449B1ADB1973457B
S1130D4007D22368264613B93046044BE6E71C460F
S1130D50EDE7A542F8D1E0E7F30F0000FB0F000038
S1130D602DE9F0470669037E44690136DA07054632
S1130D70066110D4037E9B070DD4DFF84880DFF8AA
S1130D80489000F1140724B16368A268F31A9342EF
S1130D9007D2BDE8F0872B7E43F002032B76BDE833
S1130DA0F0873846C047237C012B04D16660324665
S1130DB021463846C847D5F814A0E368204698472A
S1130DC05446E0E703100000150D000010B5044B75
S1130DD0044698470020034B2061236010BD00BFE8
S1130DE0ED200000610D000038B5064B054698471C
S1130DF0044620B92846044B9847204638BD6FF076
S1130E00100038BDA123000021230000F7B5037EA4
S1130E1000F1140643F0010303760446154B3046F3
S1130E200F469847054638B1237E03F0FE03237628
S1130E306FF0110003B0F0BD22690F4B7A603046A9
S1130E4039469847237E03F0FE032376207E10F074
S1130E500200EFD001A8094B9847237E03F0FD035D
S1130E6023762046064B984701A8064B9847284608
S1130E70E0E700BFE50F0000150D0000990A00002F
S1130E80D9230000A70A0000034600229A62DB6906
S1130E90083803B118477047034600229A625B6A18
S1130EA0083803B11847704770B50446054BA0F1E4
S1130EB008052C309847236A1BB12846BDE87040CA
S1130EC0184770BD4910000010B5B0F84C301446F6
S1130ED0B0F844209A420CD10023A0F844300123F6
S1130EE08164A0F84C4003630830034B98472046C4
S1130EF010BD6FF01B0010BD731F0000838FB0F88E
S1130F0044209A4210B504460AD0026C591C8187C9
S1130F10D15C044B9847044B2046BDE81040184769
S1130F20024BFAE76D1F0000731F00007B1F0000D7
S1130F302DE9F74305460F4BDFF8449001A83435FB
S1130F408846164698470C4B284698470B4B07464D
S1130F5001A898470024A74201D0B44203D1A0B20B
S1130F6003B0BDE8F08308EB04012846C847013408
S1130F70F1E700BF990A00006F100000A70A000003
S1130F802710000038B504460D46343011461A4681
S1130F900C4B984790B9294604F108000A4B98472E
S1130FA070B90A4B63600A4B23600A4BA3600A4B77
S1130FB0E3600A4B23610A4B636138BD6FF00C0098
S1130FC038BD00BF0F100000011F0000310F0000EA
S1130FD0C90E0000FD0E0000A90E0000890E0000DD
S1130FE0990E0000006800B970478842FAD10120C8
S1130FF0704703680B600160704703680B60016011
S1131000704703680BB11A68026018467047531E94
S11310101A4001BF43608260C26001600CBF104689
S11310206FF00C0070478368C2689A4209D0426826
S113103013400268D35C0B70836801338360002023
S113104070476FF009007047C36842681340026834
S1131050D154C36881684268591A914288BF9A1A68
S113106003F1010388BF8260C36000207047C26837
S11310708068101A7047036B0B42FCD17047000064
S113108003889BB243F0020303800321004B1847FB
S113109077100000038823F002031B041B0C038059
S11310A00321014B184700BF771000000020704750
S11310B0414B984270B502460D466BD14FF08013F8
S11310C01B68DC00190904F4E06401F070010C43AE
S11310D0C3F382031C43136B384E13F0010F10D17A
S11310E003211046B04713889B0705D51046344B9F
S11310F0984702211046B04701231380032110466C
S1131100B04710460121B0472E4BA2F848401621A3
S113111001FB05351046AB88D38040F6FF71B0471C
S1131120AB791372104640F6FF71B047EB799370B8
S11311302B899380104640F6FF71B047AB7A9372C7
S1131140104640F6FF71B047EB7AD372104640F672
S1131150FF71B047AB89938110468021B047EB897A
S1131160D38110464FF48071B0472B8A1382104606
S11311704FF40071B0476B8A538210464FF480617C
S1131180B0472B7DD3706B88138010460321B04782
S1131190002070BD0C4B98420CD14FF080131B689B
S11311A0DC0A990C04F4E06401F070010C43C3F30D
S11311B002438FE700248EE7001C004377100000F1
S11311C095100000504000000020004310B5054A6F
S11311D0016008460B469047BDE81040014618469A
S11311E0014B1847AD100000B11000000068014B1E
S11311F0184700BF811000000368DB88C3F3C103F4
S1131200032B0CBF012002207047036893F82E00C3
S113121000F00100704700000068037D43F0020302
S1131220037540F6FF71014B184700BF77100000AB
S11312300368B3F8400080B27047000043090122FC
S113124000F01F0002FA00F04033024A42F8230083
S1131250704700BF00E100E04FF4167358430138B3
S11312600A23B0FBF3F0013070474EF66023584375
S11312707047000010B50D4A0D4C13889BB21380C3
S11312800C4B98470C4B98470C4B98470C20A047A5
S11312900B4B984740F6F370A0470A4A136943F48E
S11312A000731361BDE81040074B1847004000412C
S11312B0CD1600003117000051170000251700005B
S11312C055170000000800401913000030B4104BFB
S11312D0104C1A8C1D8C02F01F020C215143ED0599
S11312E004EB010007D503EB0213012283F84E201F
S11312F0436830BC18471D8CAD0506D503EB0213BB
S1131300022283F84E206358F3E730BC704700BFD5
S113131000A000419000002070B52E4B1A8822F0E6
S113132002021204120C1A805A8822F47C5212040B
S1131330120C5A801A8892B242F001021A801A885A
S113134012F00102FBD14FF470611980597B2248DD
S113135001F0FE01597321495A6158639963134698
S11313601F4902461D461C0104F1824000F520403D
S11313700E6806640E7980F845604E7980F8466000
S113138001331019CE881653202BC56001F10801D2
S1131390E9D11F22012053099B0003F1604302F0AD
S11313A01F0103F5614300FA01F1C3F88010BFF394
S11313B04F8FBFF36F8F0132242AC3F88011196055
S11313C0E9D1044A13889BB243F00203138000203E
S11313D070BD00BF00A0004160070020600900202C
S11313E068400000024B03EB00108160002070474E
S11313F060070020024B03EB00104160002070479F
S113140060070020024B03EB0010C160002070470E
S11314106007002070B50F4B00011D18AE681A5A02
S11314201C5AC2F30122240542BF01FA02F4A41992
S1131430AC601C1865681E5A760548BF01FA02F2B2
S1131440034448BF521989B248BF626059800020E2
S113145070BD00BF6007002010B502010B4CA35AF9
S11314609BB243F00103A35202F1824303F52043EC
S11314701A6C42F002021A6431B1054A012311695F
S113148003FA00F008431061002010BD600700203B
S113149000A00041034B01EB410103EB810101601A
S11314A00020704790000020004B1847CD12000028
S11314B0004B1847CD120000004B1847CD12000016
S11314C0004B1847CD120000004B1847CD12000006
S11314D0F7B51F4B1F4D5A690192019A1E4E5A616E
S11314E04FF0FF37019BCBB903B0F0BD04200021BE
S11314F043185B10DAB215F833E0A6451FD105EBAB
S1131500C3035F687A1C02D0384633689847019B4E
S1131510012202FA04F423EA04040194019B93FADD
S1131520A3F4002BB4FA84F408BF4FF0FF34631C17
S1131530DCD1074B5A690192019A5A61D2E7B5BFCF
S1131540013202F1FF32D1B2D0B28842D0D2D9E70F
S1131550002800406841000010020020024A53683D
S11315600342FCD1704700BF0028004070B53249E7
S1131570324C4B6813F0010F064611D10320A047EB
S11315800B789B0707D50B7803F0FD0303200B7042
S1131590A0470220A047284B01221A700320A0472D
S11315A00120A04724490B7803F0EF030B700320BC
S11315B0A04700254FF03B434D708D608D610D6356
S11315C04D63CB611E4B0B620B7843F002030B702F
S11315D00320A0471B4B4FF48022C3F88020BFF3A5
S11315E04F8FBFF36F8FC3F880211A604FF400222E
S11315F0C3F88020BFF34F8FBFF36F8FC3F88021F0
S11316001A604FF40012C3F88020BFF34F8FBFF36A
S11316106F8FC3F880211A604FF08062C3F8802076
S1131620BFF34F8FBFF36F8FC3F880211A60064B4F
S113163028461E6070BD00BF002800405D150000F4
S1131640B000000A00E100E010020020362812D0A9
S1131650372812D0192812D02E2815D103230C4A6A
S113166012F83300FF280FD001230A4A834041B106
S11316701361002070470023F1E70123EFE7022301
S1131680EDE7D3605361F4E74FF0FF30704700BFDC
S11316906841000000280040004B1847D1140000A6
S11316A0004B1847D1140000004B1847D114000018
S11316B0004B1847D1140000034943F6FD734A68F0
S11316C01A42FCD1704700BF001C004010B5C4078B
S11316D004D50E4B0E4A1A620E4B9847810704D567
S11316E00A4B0D4A5A620B4B9847420704D5074BE5
S11316F00A4A9A62074B9847030706D5034B084AE0
S1131700DA62BDE81040034B184710BD001C0040CE
S113171007010200B9160000070B020005010100D1
S113172006011000014B01225A7170470008004065
S1131730064B42F28E229A8200229A75DA75DA6991
S113174002F47C52DA6101221A74704700140040DA
S1131750704700003B4B1A6A22F00F0242F0040269
S11317601A6243F6FD7259681142FCD1596811F0AE
S11317700401FBD1344A11774221C3F88010334B62
S1131780936292F82C3013F01003FAD182F82030CF
S11317902D4A134692F82C104907FBD402211177E5
S11317A093F82C209207FBD45A6A5A62264B1A46A5
S11317B093F82C100807FBD4812183F8201092F8A9
S11317C02C305907FBD41F4B4321C3F88410272323
S11317D053631D4B1946DA6B12F00602FBD19A6370
S11317E0022283F83020CB6B9B07FCD491F8203085
S11317F0154A13F0010F21D0136903F41063B3F5F4
S1131800106FF9D1104B1A6CD10702D41A6C9207DD
S1131810F9D50C4A11465368002BFCD1136A23F006
S11318200F0343F00703136243F6FD734A681A4239
S1131830FCD1044A53685B07FCD470471369D8058C
S1131840FCD5DFE7001C004000100040B9057F7C98
S1131850806800210368184738B5084BC160084DFB
S11318600B60084B044618600021074B2846984734
S11318702B68064A9C601A6038BD00BF200000C077
S1131880600B002014020020951400005118000081
S1131890084B07B51868C3681A69019201229A6057
S11318A0019BDB0703D503680BB10021984703B004
S11318B05DF804FB1402002007B50C4A9378DBB2F0
S11318C00193019B990707D5094B1B6823B1506805
S11318D0984703B05DF804FB019BDB07F9D5044B83
S11318E05B68002BF5D0014AF1E700BF000002411C
S11318F0640B002070B5140204F47C54D50541EA4D
S1131900040103D5140528D541F0010190F80442DF
S113191055044CBF44F0100404F0EF0480F8044272
S113192083608BB2C38140F27F2502F4805340F27E
S11319305D26448EA4B2BBB1344225D090F82F303A
S113194043F0020380F82F30438E9BB26FEA932357
S11319506FEA83234386002070BD96044CBF41F098
S1131960030141F00201D1E72C420DD090F82F2061
S113197042F0020280F82F20428E92B26FEA922245
S11319806FEA82224286E6E7048EE407D1D58D060B
S11319905FBF038E9BB243F00103038694040ED50C
S11319A00023591C426A06D190F82F3043F00203F9
S11319B080F82F30CFE7D20203F10103F1D50120E3
S11319C070BD016091F82F3043F0010381F82F308E
S11319D091F82F0010F00100FAD10E2381F82E3077
S11319E00F2381F829308B8E9BB26FEA53236FEA61
S11319F043238B86CB8E9BB26FEA93236FEA8323B8
S1131A00CB86704730B501689DF80C4091F82800EA
S1131A10002C4FD040F0040081F82800C88F000447
S1131A2041D4888D450708D5486A8407FCD1888D40
S1131A3020F004000004000C88854C6C254D2648D9
S1131A40C4F30744002C18BF28468C8DB0FBF2F277
S1131A5024F020042404240C8C8591F828004007E9
S1131A604FEA520202D5002A08BF0122888DC0B273
S1131A7040EA022080B28885888D20F0C0000004EE
S1131A809208000C02F0C00202438A858A8D92B249
S1131A9042F001028A858A8D9207FCD58A8D92B222
S1131AA042F004028A85012B07D0042B0DD06FF07D
S1131AB00C0030BD00F0FB00AEE791F8283003F0D5
S1131AC0FD0381F82830002030BD91F8283043F020
S1131AD00203F6E700D0C90100A093030020704779
S1131AE000290CBF0420002070470368186CC0F361
S1131AF04050704782B00023019341F28732019B2A
S1131B00934201D902B07047019B01330193F6E778
S1131B1030B400680D46416A11F0010113460BD13F
S1131B20848924F001042404240C8481044CC1809D
S1131B302A46A44630BC6047002030BC704700BF32
S1131B40F518000003681869704710B5046803238A
S1131B501A1D032B54F822201CBF100E01F8010B90
S1131B60100C087013F1FF334FEA122048708A708A
S1131B7001F10301ECD210BD2DE9700305460068A4
S1131B80BDF81460446AE4072CD4446A14F0020FCC
S1131B9028D111F4004F14BF0024102411F4803F05
S1131BA004D111F4003F17D044F02204A4B284817C
S1131BB0C3F3090484800D4CC6804FF000084FF035
S1131BC000092B82C5E902896E821346A4460A469F
S1131BD0BDE870032021604711F4002FE6D111F411
S1131BE0801FE1D10020BDE870037047F5180000A4
S1131BF02DE9F74F038AB0F812800193D0E902ABC4
S1131C0008FB03F2D317B2EB0A0263EB0B03002BBE
S1131C1008BF042A38BF019B0468274D38BF03F06E
S1131C200307019B4FF000028946194606461346F6
S1131C3050460A46594628BF0427A847134315D1DE
S1131C40638E03F070034BB194F82F3043F002031A
S1131C5084F82F30002003B0BDE8F08F238E9A065D
S1131C60EED5238E9BB243F020032386042F236AF0
S1131C701DD1C9F8003001991AEB07024BF100039A
S1131C80A1FB08894B4508BF4245C6E902230CD392
S1131C90638E03F07003002BD6D1238E9B07F7D5F8
S1131CA0238E9BB243F0020323860120D3E77A1EDE
S1131CB0022AE0D8DBB2DCE7E93C00002DE9F0477A
S1131CC0D0E90267B0F810800468DFF87CA005460C
S1131CD089464246002330463946D047134314D13F
S1131CE0638E03F0700343B194F82F3043F0020382
S1131CF084F82F300020BDE8F087238EDA06EFD574
S1131D00238E9BB243F010032386C4F820906B8A81
S1131D10043647F10007A3FB08894F4508BF464531
S1131D20C5E902670CD3638E03F07003002BDBD18B
S1131D30238E9B07F7D5238E9BB243F002032386A1
S1131D400120BDE8F08700BFE93C00002DE9F04127
S1131D50058ADFF83080074655430E46042415B93A
S1131D600120BDE8F08131463846C047A5423FBF57
S1131D703B8A93FBF4F204FB1234E4B22D1B264499
S1131D80EDE700BFF11B00002DE9F041058ADFF803
S1131D903080074655430E46042415B90120BDE89A
S1131DA0F08131683846C047A5423FBF3B8A93FB68
S1131DB0F4F204FB1234E4B22D1B2644EDE700BF19
S1131DC0BD1C00000120704701207047002808DB7B
S1131DD04209012300F01F0003FA00F0014B43F80D
S1131DE02200704700E100E000280DDB43090122D6
S1131DF000F01F0002FA00F02033044A42F82300E6
S1131E00BFF34F8FBFF36F8F704700BF00E100E057
S1131E10002809DB4309012200F01F0002FA00F048
S1131E206033024A42F82300704700BF00E100E03B
S1131E30C3690B42FCD17047036823F002030360BB
S1131E400321014B184700BF311E000070B50B4D34
S1131E5006460FCD86B06C460FC495E8030084E8AF
S1131E60030000205DF82030B34202D1C0B206B0B6
S1131E7070BD01300628F5D10020F8E78841000044
S1131E8008B5034B984780002E3000F0FE0008BDD3
S1131E904D1E000010B5C369154C13F0010F024626
S1131EA00DD10321A04703689B0703D5114B984725
S1131EB00221A0470523136003211046A0471046C2
S1131EC00121A0470C4B136010460321A0474FF497
S1131ED04033536010461F21A047084B93600020F5
S1131EE04FF658739381907382F8300010BD00BF91
S1131EF0311E0000391E0000040010400200700072
S1131F002DE9F8430646124B08460C469847054609
S1131F10D8B9104BB4619C4208BF0F4BDFF848801E
S1131F2008BF1E6020460D4B0D4F0E4E98470024EF
S1131F30814609EB0401C9B20846C0470846B847C0
S1131F4001340846B047042CF3D12846BDE8F88391
S1131F50951E00000004004318020020811E0000AA
S1131F60111E0000CD1D0000E91D00008369996267
S1131F707047836901229A757047836902229A75B2
S1131F8070470000194B10B518688469237EDA077E
S1131F9008D5A37DDB0705D5012323750368BDE8B8
S1131FA010401847237E990706D5A37D9A0703D5C9
S1131FB0022323758368F2E7237E5B070CD5638BCA
S1131FC003F0370313B1FF23638310BDA16A436891
S1131FD0C9B2BDE810401847237EDB09F5D0802341
S1131FE02376C3689847638B9BB2EDE71802002001
S1131FF0004B1847851F0000004B1847851F000041
S1132000004B1847851F0000034B6FF07F425A6056
S113201005221A60704700BF10E000E00B0E0C4A66
S113202030B5D8B26FF07F440138C0B2FF2808D170
S1132030A3EB03631944516091601368DB03FCD57F
S113204030BD546094601568ED03FCD5ECE700BF27
S113205010E000E000280DDB4309012200F01F001E
S113206002FA00F02033044A42F82300BFF34F8FF2
S1132070BFF36F8F704700BF00E100E003690B42BC
S1132080FCD17047036823F0020303600321014B72
S1132090184700BF7D20000070B5124D06460FCDD5
S11320A086B06C460FC495E8030084E8030000235F
S11320B05DF82320B2420BD1DBB20B4A117899426E
S11320C00BD0127D9A420AD1012040B206B070BDF5
S11320D00133062BECD10023EFE70020F5E74FF0A6
S11320E0FF30F3E7B8410000000000202DE9F84379
S11320F081460C463F4B08469847C9F80C40236973
S11321003D4A13F0010F074610D1032120469047A2
S113211023689B0705D52046384B98470221204663
S1132120904701232360032120469047DFF8E08095
S1132130142505FB07850121204690476E6826601B
S1132140032120469047AB7AE37306F00C062B89F3
S1132150E380082E4FF0010323732BD1EB68E36176
S1132160C021204690472B692362C0212046904716
S113217001236372224B9C4235D1224BC3F8009059
S1132180142303FB0787204BB7F90210084698472E
S113219000290CDB01F01F024909890001F16041AB
S11321A001F5614101239340C1F880310B600020A7
S11321B0BDE8F8833EB9AB89A383C021204690478C
S11321C02B8AE383D1E7042ED2D12B7B2377C02142
S11321D0204690472B7C6377C02120469047EB7ABA
S11321E0E3762021C2E7094B9C4204BF054BC3F8A8
S11321F00490C5E7992000007D20000085200000A0
S1132200003800401C02002055200000003C004023
S1132210000000202DE9F84381460C46384B08465F
S11322209847C9F810402369364A13F0010F07464E
S113223010D103212046904723689B0705D52046EB
S1132240314B984702212046904701232360032104
S113225020469047DFF8C480142505FB078501213B
S1132260204690476E682660032120469047AB7A4B
S1132270E37306F00C062B89E380082E4FF003036A
S1132280237329D1EB68E361C021204690472B6971
S11322902362C021204690471C4B9C4225D11C4BF5
S11322A0C3F80090142303FB07871A4BB7F90210F5
S11322B00846984700290CDB01F01F0249098900F0
S11322C001F1604101F5614101239340C1F880317E
S11322D00B600020BDE8F88376B9AB89A383C021E5
S11322E0204690472B8AE383D3E70B4B9C4204BFE1
S11322F0074BC3F80490D5E74FF0FF30BDE8F883EF
S1132300992000007D200000852000000038004056
S11323101C02002055200000003C0040000000206A
S1132320C068036843F0020303600321004B1847AD
S11323307D2000000069036843F002030360032169
S1132340004B18477D20000070B50469114B2046EE
S113235015460E469847104A142303FB00200F4AE3
S11323604368C66003F00C03082B056109D1E661DC
S1132370C0212046904725622046C021BDE8704018
S11323801047B6B2A683C0212046ADB29047E5837C
S1132390F2E700BF99200000000000207D2000002B
S11323A0C26808B510460321024B98471068C0F371
S11323B0400008BD7D200000026908B510460321D5
S11323C0024B98471068C0F3400008BD7D20000010
S11323D0002070470020704710B5064BC06898472E
S11323E0054A142303FB0020BDE810408078034B0A
S11323F0184700BF99200000000000203D12000093
S11324000C4B70B51C682569AB7ADA0705D5012336
S1132410AB7223680BB1204698476B7A9B0707D5AC
S11324200223AB7263681BB12046BDE870401847B5
S113243070BD00BF1C020020054B5868C3689A7A1F
S1132440D20703D501229A7203681847704700BF68
S11324501C020020144B15490122C3F89420C3F830
S1132460842002F1804202F50032C3F8A820C3F8A8
S1132470A81093F8C02002F0FE0283F8C0200422C2
S1132480C3F89420C3F8842002F1804202F500329C
S1132490C3F8A820C3F8A81093F8C22002F0FE02E3
S11324A083F8C220704700BF00800041000002C0D2
S11324B0024A136801331360704700BF24020020EE
S11324C037B50E4B054601A898476B090C49DB014B
S11324D0CA18C958136A14695C400C4001A85C40CE
S11324E0084B984705F01F05012303FA05F525421B
S11324F014BF1846002003B030BD00BF990A000085
S113250000800041A70A00001920014B184700BFB2
S1132510C12400003620014B184700BFC12400002D
S113252008B53720054B9847054B1A6810B10022AF
S11325301A6008BD42F02002FAE700BFC12400007F
S11325402800002013B501230DF107020021084CD7
S11325500848A0479DF80730074A9D2B13709FBF7A
S1132560064A136843F48073136002B010BD00BFC1
S11325702D0A0000C80600207A0B00202800002045
S11325802DE9F047274D284C4FF48056C5F8986044
S113259081460A208846A047C5F894600A20A047CF
S11325A020260827B24649FA07F313F0010F4FF02B
S11325B01003C5F814A04FF00A0014BFAB616B619F
S11325C0A047AE610A20A04717F1FF37EBD21023D2
S11325D06E610A20AB61A047AE610A20A0472027A4
S11325E0104D0F26B94648FA06F313F0010F4FF0C9
S11325F01003C5F814904FF00A0014BFAB616B616F
S1132600A047AF610A20A04716F1FF36EBD20A209B
S11326106F61A0470A20A0474FF48053C5F8983053
S1132620BDE8F08700800041E50A00002DE9F84389
S1132630274D284C4FF48056C5F8986080460A20F0
S1132640A047C5F894600A20A04720260827B14671
S113265048FA07F313F0010F4FF01003C5F8149074
S11326604FF00A0014BFAB616B61A047AE610A2052
S1132670A04717F1FF37EBD210236E610A206B617C
S1132680A047AE610A20A0476E610A20A0474FF020
S113269020080F4F0F250026C1460A20C7F81890BE
S11326A0A0470D4BC7F8148006209847A84006435E
S11326B00A20A04715F1FF35B6B2EED20A20A04792
S11326C04FF48053C7F898303046BDE8F88300BF14
S11326D000800041E50A0000C124000010B500217B
S11326E00F4C0220A04742F213111120A0470021F1
S11326F01420A0474FF40A511A20A04743F62D5145
S11327001B20A04747F21C012020A04700210820DD
S1132710A047234607211020BDE81040184700BFFA
S11327208125000010B50021064C0920A04747F27E
S11327300E012020A047234601212220BDE810409D
S1132740184700BF8125000010B50021CD4C0220A0
S1132750A04700210820A04700210920A04700210C
S11327600A20A04700211420A0474FF40A511A2040
S1132770A04743F62D511B20A04747F20F0120200C
S1132780A04701212220A04707212820A04740F686
S11327905F012920A04744F203112A20A0474FF4E7
S11327A0A3612B20A04701213020A0470121402014
S11327B0A04743F62A014120A04745F2C8314220F0
S11327C0A04740F265614320A04785214420A047EB
S11327D040F688014520A0474FF490414620A04789
S11327E048F688014720A04740F217114820A04727
S11327F000217020A04744F20A718020A04748F2CB
S113280001018120A04715218220A04740F6010143
S1132810C020A047E421C220A0474FF48271C52004
S1132820A047A721C720A04740F6E441C820A047FD
S113283040F6E441C920A047E421CC20A04714215C
S1132840CF20A0474FF48071D620A04741F21F014A
S1132850D720A0470021D820A0472321DB20A04770
S113286043F62B41DC20A04742F64D31DD20A04742
S113287043F65E61E020A0474921D320A047002110
S1132880D820A0472321DB20A04743F62B41DC209E
S1132890A04742F64D31DD20A04740F29921E620C1
S11328A0A0474FF45471E720A0474FF4FA71E82091
S11328B0A047E121EB20A0474BF219014FF48070AF
S11328C0A0474BF219014FF48170A0474FF44841DF
S11328D04FF4C070A0474FF61F3140F28110A0475B
S11328E04FF61F314FF4C170A0474FF6123140F23A
S11328F08310A0474FF612114FF4C270A0474FF651
S1132900031140F28510A0474FF602014FF4C37043
S1132910A0474FF20F3140F28710A0474FF20F311A
S11329204FF4C470A0474FF20F3140F28910A04712
S11329304FF20A314FF4C570A0474FF2011140F233
S11329408B10A0474FF20A014FF4C670A0474FF214
S11329504B2140F28D10A0474FF201214FF4C77074
S1132960A0474FF2262140F28F10A0474FF22101D9
S11329704FF4C870A0474FF2010140F29110A047F4
S11329804FF202414FF4C970A0474FF2070140F2E1
S11329909310A0474FF20F214FF4CA70A0474FF293
S11329A00F2140F29510A0474FF202214FF4CB7053
S11329B0A0474FF2060140F29710A0474EF6084197
S11329C04FF4CC70A0474CF6010140F29910A04797
S11329D04FF448414FF4CD70A0474FF4484140F2C2
S11329E0A310A0474CF602414FF4D270A0474CF616
S11329F0014140F2A510A0474CF602414FF4D370B8
S1132A00A0474CF6014140F2A710A0474CF6024102
S1132A104FF4D470A0474CF6050140F2A910A0472A
S1132A204FF448414FF4D570A047302140F2AB1029
S1132A30A04742F27B014FF4D670A04742F27101E5
S1132A4040F2AD10A04771214FF4D770A04741F276
S1132A507F0140F2AF10A04741F272014FF4D870E9
S1132A60A04741F2740140F2B110A04771214FF424
S1132A70D970A047312140F2B310A04742F2BB11F4
S1132A8002E000BF812500004FF4DA70A04742F253
S1132A90B10140F2B510A047B1214FF4DB70A0475B
S1132AA041F2BF0140F2B710A04741F2B2014FF426
S1132AB0DC70A04741F2B40140F2B910A047B12143
S1132AC04FF4DD70A047302140F2BB10A047302105
S1132AD04FF4DE70A04742F27B1140F2BD10A047D4
S1132AE042F271014FF4DF70A047712140F2BF1030
S1132AF0A04741F27F014FF4E070A04741F2720118
S1132B0040F2C110A04741F274014FF4E170A047B4
S1132B10712140F2C310A04731214FF4E270A04765
S1132B2042F2BB1140F2C510A04742F2B1014FF48A
S1132B30E370A047B12140F2C710A04741F2BF01A2
S1132B404FF4E470A04741F2B20140F2C910A0472B
S1132B5041F2B4014FF4E570A047B12140F2CB102B
S1132B60A04730214FF4E670A047302140F2CD1049
S1132B70A04742F27B114FF4E770A04742F2710183
S1132B8040F2CF10A04771214FF4E870A04741F202
S1132B90710140F2D110A04771214FF4E970A047B0
S1132BA0312140F2D310A04742F2BB114FF4EA7036
S1132BB0A04742F2B10140F2D510A047B1214FF431
S1132BC0EB70A04741F2B30140F2D710A04741F2A5
S1132BD0B1014FF4EC70A047B12140F2D910A047E5
S1132BE03F214FF4ED70A047322140F2DB10A047A3
S1132BF0234630214FF4EE70BDE81040184700BF63
S1132C0010B500210E4C0A20A04747F20F012020E6
S1132C10A04707212820A04744F213112A20A047E7
S1132C2001213020A04701214020A04740F2271174
S1132C304820A047234600217020BDE810401847D3
S1132C408125000010B5064B98470A20054B98478C
S1132C50054B9847054B9847054BBDE8104018476E
S1132C60DD260000090B000025270000492700008D
S1132C70012C000008B5012240F2FE31064B002071
S1132C8098470121054B06489847064B0020984772
S1132C90B0FA80F0400908BD853A0000393B0000D5
S1132CA028020020653B00000E4AD2F804344FF499
S1132CB0204103F0030330B559430B4C09256550FB
S1132CC06318D2F808149960D2F80414D960D2F8C1
S1132CD00C1419610549126809688000521ADA61F6
S1132CE0186230BD24020020DC0B0020CC0B002035
S1132CF008B571B9074B42F2F7709847064BD3F801
S1132D0004240132C3F80424D3F80C240132C3F898
S1132D100C2408BDA92C000024020020642828BF2C
S1132D20642010B50022C0EB0040094B0C4664211E
S1132D30B0FBF1F107489847074B06489847074B03
S1132D40022214B1C3F8982010BDC3F8942010BD1A
S1132D50050D000098060020E10C000000800041F1
S1132D6070B50C4C0C4B0D4D04EB00140020616845
S1132D709847A1680020A847094B4FF42051002030
S1132D809847A1680020A847E168064B0020BDE8E9
S1132D9070401847880B0020F5130000E51300006D
S1132DA01514000005140000164A17491748A2F12B
S1132DB0100370B44FF4205540F6092401F5204661
S1132DC0DA605D8022F8104C58609E6002F11006B3
S1132DD0DE61203201F5A0365D821C8258619E615D
S1132DE0DA6201F5F03201F520315D841C84586209
S1132DF09A62DB635D861C86586399630020044BEA
S1132E0070BC1847980B0020000C0020142C0043C1
S1132E10612D000070B52E20374CA04705462920AF
S1132E20A047364B4FF40072002842D0C3F89420D8
S1132E30002D60D1324C2368082B264602D023682B
S1132E40102B39D12F4D00242B682F4B2C601A6C7A
S1132E501C6420462D4B98472D4BC3F80C44D3F8E3
S1132E6004240132C3F80424D3F808240132C3F83B
S1132E7008243268082A0DD1D3F80404254B00F045
S1132E8003009847244B2146204698472B6843F07B
S1132E9001032B603368102B2DD1204B98473368E6
S1132EA00023336032683360336843F002033360D5
S1132EB070BDC3F89820BBE72368B3F5007F1AD12F
S1132EC0134BC3F80854C3F80454C3F80C54134BFD
S1132ED0984728460F4B98470F4B29462846984752
S1132EE0084A136843F001031360236825602368CC
S1132EF043F00803236070BDC1240000008000413A
S1132F0028000020002C004300A00041A92C000050
S1132F1024020020612D000059140000A92D000096
S1132F2038B5114B114D00241C60114B1C60114B22
S1132F301C60114B1C60114B1C604FF4FA52104B77
S1132F406968204698470F4B4FF4FA521A600E4BAB
S1132F501A680E4B1A602B682C602B682C602B6847
S1132F6043F400732B6038BDD80B002028000020E8
S1132F70D40B0020840B0020D00B0020800B0020F9
S1132F80C13B0000E08B022024020020CC0B002077
S1132F90124B1B6810B5124CDBB284F80832114B8B
S1132FA01B68DBB2012284F809324FF480610E4BB6
S1132FB00020984701210D4B04F5017098470C4BF4
S1132FC0002098470B4B1A6800221A6019681A608F
S1132FD01A6842F002021A6010BD00BFD40B002030
S1132FE024020020840B0020C13B0000513C00005F
S1132FF07D3C0000280000204F49504A2DE9F84F3D
S11330004F4F0B681468D7F804042344834288465E
S113301020D20B681468D7F8040423440433834291
S11330201AD20968106813680144043301F00301DB
S11330305B1A1360434B3A681B68396AD21A4FF41F
S11330407A734B439A4205D321B13F4A136843F044
S113305010031360BDE8F88F086813683B4E3C4DBD
S1133060DFF8FCB0384CDFF8FC901844394B4FF4CF
S1133070204100F0030001FB00303749036A086077
S113308003F223235B0A3360D8F8003043611368EA
S1133090836132682B689A428A4617D2316889B2B2
S11330A0D84718B1236843F48063236032682B68DF
S11330B09B1A2B603368626813446360D8F800304D
S11330C000200133C8F80030C847B3E7296889B243
S11330D0D84718B1236843F4806323600020C847AD
S11330E02B6862681344636061681C4B4FF4FA52A6
S11330F00020984718B1236843F4006323602868CC
S113310031682B68C91ADAF8003089B203EB402021
S1133110D84718B1236843F48063236033682A686E
S113312061680B449B1A63602B68326803F5FA5399
S11331309B1A2B60C2E700BFD40B0020840B002035
S113314024020020CC0B002028000020DC8B02206D
S1133150E08B0220DC0B0020C80B0020C13B0000E8
S1133160513C00007D3C000070B5404B404C414D4B
S11331709847414B414802221A734FF08073A36170
S113318000213F4B98474FF40073C4F898303D4CEE
S11331903D4B98473D4AC4F81C244FF47A720123EE
S11331A0C4F82C2404F58261394A3A48C4F830241E
S11331B0C4F8183484F8203484F83434A84704F26A
S11331C024413448344CA847344B32489847344956
S11331D03620A04733493720A04733492E20A04743
S11331E032491920A047324B324C98470020A0475F
S11331F00028FBD1304B314C1D4D984723680128E2
S11332000CBF43F0400343F080034FF400562360A7
S11332106420C5F894602A4B9847C5F898606420E8
S1133220284B294D294E9847294B00209847294B74
S11332301880294B9847294B012102209847284B95
S1133240022283F84D20274B274A1A610423236066
S11332502368590700D5A84723681A0700D5B04743
S11332602368DB06F4D5214B9847F1E7D10200002F
S1133270008000410D0E000000380040C806002008
S11332801D0A00002402002055240000B12400007F
S11332904525000038070020990B0000E90D0000C7
S11332A01525000021250000152E00000925000029
S11332B0A92D0000C9340000752C0000280000204E
S11332C0090B0000E50A0000212F0000F92F00007F
S11332D02D260000780B0020452C00001D2D000039
S11332E000A00041B4060020F12C0000912F000042
S11332F070B5891A0824073191FBF4F1084402F0EF
S1133300070210F8011CD418082C41FA02F118DD48
S113331010F8025CC2F10806B540102C41EA050120
S11333200FDD10F8030CC2F11005182CC8BFC2F150
S1133330180200FA05F541EA0501C4BF00FA02F2D9
S11333401143012098400138084070BD37B50E4B39
S1133350054601A898476B090C49DB01CA18C958EE
S1133360136A14695C400C4001A85C40084B984700
S113337005F01F05012303FA05F5254214BF18467D
S1133380002003B030BD00BF990A00000080004156
S1133390A70A000013B5074802680179947F537B9C
S11333A0003418BF012400941268034C8068A047BD
S11333B002B010BD5C060020250C0000034B1979F7
S11333C011B99868024B1847704700BF5C0600208B
S11333D03D0C000070B5064600283CD11F4DEB683B
S11333E02C4603B3B3F90000421C1CD01C4BC0B2E2
S11333F09847EB685B88984203D00423AB7602209D
S113340070BDAB7E042B01D10123F7E7012B06D15C
S11334100222AA76134A2A616B7785F82E60A07E71
S113342003280DD170BDA37E033B012B08D80223D2
S1133430A3760C4B236101236377002384F82E3099
S113344000232371084B2360084B9847A07E831EFA
S11334505842584170BD042070BD00BF5C06002076
S11334604D330000801A06006C06002095330000DE
S113347070B5049D0B4E520242EAC36242EA0172E5
S11334802B7842EAC0721A4341F23431B068064BD9
S11334909847044618B1B068044B984728702046F2
S11334A070BD00BF5C0600205D0C0000650C0000D0
S11334B010B5044B04249C76FF241C719860D960D9
S11334C01A6310BD5C0600202DE9F04FA54B97B0A0
S11334D098470128804605D0A34B9847404617B02B
S11334E0BDE8F08F16AEA14CA14F082306F8453D68
S11334F023680025D8721D731D81A068B8472B4628
S113350029460096062240469A4EB0472A464FF472
S11335108041A068984DA8470297002830D04FF406
S1133520D57245F20851A068A847002800F07682B9
S1133530924BA0689847431C00F07082C0F30B00C4
S1133540B0F5D57F1CD1C246002244F20551A068D3
S1133550A84708B3A068894FB84710F0E04F1BD0C4
S113356041F2893900F4FC1244F20551A068A847DD
S113357030B1A068B847002808DBB9F10109F1D1DE
S113358023684FF0030883F80A80A5E7070123683E
S11335904CBF05220422DA722368DB7ADB072BD5C1
S11335A0774BBAF1000FDFF8D4A114BF99464FF45A
S11335B0FC1940F63507002241F23711A068A847EC
S11335C0002800F0AB804A4644F22951A068A8477D
S11335D0002800F0A380A068D047002880F29B80D8
S11335E0400004D52268D37A43F00803D3722368D9
S11335F0DB7AD90700F19680002245F20311A06816
S1133600A8470028BCD05D4FA068D4F80090B84704
S113361023680397000CA9F80800DA7A12F0010F66
S113362037D01A89A068120441F60931A847002846
S1133630A6D02168A068534BDFF85C910E319847FF
S1133640D4F800B00BF10E0A082360228021504602
S1133650C8474D4AC0F3C30100F0070002EB8000E5
S11336604FF47A73006C52F8212043435343CBF850
S113367000307E22022380215046C84700285AD0B9
S11336801623302280215046C84701304002CBF82F
S113369004002368A0681A8943F207111204A8479A
S11336A000283FF46DAF2368DA7AD2077BD51A89F4
S11336B0A068120441F23711A84700283FF460AF14
S11336C0012701970097082300223049A068DFF8FA
S11336D0CC90C84700283FF453AF3A4606A9A068E7
S11336E02B4B984700283FF44BAFA068294B9847D1
S11336F000283FF445AF04233822402106A8DFF810
S11337009890C847B8424BD002D3022800F0918069
S11337102368102246E0013F7FF44DAF2368002266
S1133720DA722DE7002245F60231A068A847002886
S11337307FF462AF24E70C233E2280215046C84721
S1133740032307462F2280215046C8470137023001
S113375087400423502280215046C84707FA00F0CE
S1133760800A94E7D5330000BD3300005C060020D6
S1133770550C0000713400005D0C0000650C000065
S113378000801F406D0C0000D04100003311080080
S1133790910C0000A10C0000F1320000750C000037
S11337A023681A221A732368DB7A5F0771D5092705
S11337B0A7F1090305AA1344009300233A461946C6
S11337C018460137B0470D2FF2D19DF815309DF8FA
S11337D0147007EB03279DF8163007EB03479DF899
S11337E0173007EB036707F5807A4FF0000906AB43
S11337F04B440093002307EB09021946184609F1CC
S11338000109B047B9F1030FF1D19DF81830FF2B2E
S11338103FF4B6AE222B02D19DF81A30A3B19DF825
S11338201930002B3FF4ACAE02331F445745DCD9AA
S1133830A6E62F223B46402106A8C8470128236854
S11338400CBF30222022ADE707F1060AB946A9EBE6
S1133850070306AA1344009300234A461946184650
S113386009F10109B047D145F1D19DF81D306D48EA
S11338702268322B28BF322303F0070100EB8101B9
S1133880DB08096C50F8233059434FF47A734B43E7
S113389013602179A068644B984703283AD92368B8
S11338A0DB7A58071CD5002306AF00970822194677
S11338B01846B04700283FF463AE9DF91830002B3A
S11338C00EDA02238DF81830012300970722002115
S11338D01846B04700283FF453AE236804225A73B5
S11338E02368DA7AD10713D51A89A068120441F241
S11338F03711A84700283FF443AE022241F20611D3
S1133900A068A84700283FF43BAE236804225A73FA
S1133910464B9847A068464B984700286DD02368CB
S1133920DB7A5A071FD5002306AF009713221946E6
S11339301846B04700283FF423AE9DF81830DB0743
S113394011D502238DF8183001230097132200218A
S11339501846B04700283FF413AE236801229A7733
S11339601A6852001A602368DA7AD00743D51B7BA1
S1133970102B40D9402200212E4B2F4F012606A8A0
S113398098470196009640232C4A2D49A068B847D1
S113399000283FF4F5AD324606A9A068294B9847A4
S11339A000283FF4EDADA068274B984700283FF46A
S11339B0E7ADA068039B984701063FF5E1AD0423FA
S11339C04FF4BC724FF4007106A8204FB8470F287B
S11339D011D010234FF488724FF4007106A8B84731
S11339E000287FF4CDAD029BA068984723681A682D
S11339F09E77B2401A600D4B98472368DB7ADA074A
S1133A0008D54FF4007241F21011A068A8470028AD
S1133A103FF4B6AD236800229A725DE54FF0000AC8
S1133A2092E500BFD0410000450C00009533000032
S1133A304D0C000041400000750C000001FFFF80A8
S1133A4006110800910C0000A10C0000F1320000E6
S1133A5038B50A4C236B7BB100B2850033F92000E2
S1133A60421C09D0064BC0B29847236B2B445B8899
S1133A701B1A5842584138BD002038BD5C0600204E
S1133A804D3300002DE9F74F214B894615469847E1
S1133A908046C8B91F4FDFF898A0DFF898B03C46BD
S1133AA03B68B8681A8941F20D111204D84738B13D
S1133AB0B868194EB047C2050AD4BAF1010AEFD169
S1133AC0164B98474FF00508404603B0BDE8F08F09
S1133AD0134B1449012D98BF19462368DB7A1B0741
S1133AE001D44FEA49290123019300954FF400734F
S1133AF04A46A0680C4FB8470028E1D0A068B047F8
S1133B000A4B0340002BDBD1A586E586DCE700BF2A
S1133B10D53300005C060020650C0000BD330000B6
S1133B201111080012111000750C0000000058E477
S1133B30410D03005D0C000038B5084C084B0D46E0
S1133B400A460146A068984710B9A086052038BDEA
S1133B50A18E491BA186002038BD00BF5C06002051
S1133B60910C000070B5124E124B0446B068984791
S1133B703546D8B13CB10023B386EB8E012B07D177
S1133B800D4B984702E0B38E002BF6D0002070BD99
S1133B90002243F20C11A868084CA04702460028F2
S1133BA0EED143F20C11A868A047E9E7052070BDE7
S1133BB05C060020A10C0000BD3300005D0C000079
S1133BC0F7B51A4B04460D4617469847064630B9D2
S1133BD02046174B984728B1164B9847072630467E
S1133BE003B0F0BD144B154C1549012F88BF19467D
S1133BF02368DB7A00971B074FF0010358BF6D025F
S1133C0001932A464FF40073A0680E4DA84718B9D3
S1133C10084B98470526E2E70B4BA06898470B4BE7
S1133C200340002BF4D1A786E786D8E7D5330000FC
S1133C30513A0000BD330000199110005C060020C9
S1133C4018910800750C0000650C0000000058E491
S1133C5038B5084C084B0D460A460146A0689847FB
S1133C6010B9A086052038BDA18E491BA18600206D
S1133C7038BD00BF5C060020990C000038B5104D1B
S1133C80104B0446A86898472B46B0B13CB10022BB
S1133C90AA86DA8E0C4C012A06D1A04702E0AA8E2D
S1133CA0002AF6D0002038BD9868084B002243F261
S1133CB00C1198470028F0D1A047052038BD00BF5B
S1133CC05C060020A90C0000BD3300005D0C000060
S1133CD0024A0348034B111D184700BF300000205F
S1133CE020070020B134000053B94AB9002908BFA5
S1133CF000281CBF4FF0FF314FF0FF3000F07AB9BD
S1133D00ADF1080C6DE904CE00F006F8DDF804E02E
S1133D10DDE9022304B070472DE9F0478C460D46D7
S1133D200446089E002B51D18A4217466DD9B2FA37
S1133D3082FEBEF1000F0BD0CEF1200C01FA0EF57D
S1133D4020FA0CFC02FA0EF74CEA050C00FA0EF409
S1133D504FEA174A250CBCFBFAF81FFA87F90AFB4D
S1133D6018CC45EA0C4508FB09F3AB420AD9ED1916
S1133D7008F1FF3280F02381AB4240F22081A8F1A8
S1133D8002083D44ED1AA4B2B5FBFAF00AFB105543
S1133D9044EA054400FB09F9A14509D9E41900F1F5
S1133DA0FF3380F00A81A14540F2078102383C4488
S1133DB0A4EB090440EA08400021002E61D024FA53
S1133DC00EF4002334607360BDE8F0878B4207D99A
S1133DD0002E54D0002186E821000846BDE8F08773
S1133DE0B3FA83F1002940F08E80AB4202D38242C1
S1133DF000F2FA80841A65EB03050120AC46002E1C
S1133E003FD086E81010BDE8F08712B90127B7FB50
S1133E10F2F7B7FA87FEBEF1000F34D1EB1B3A0C70
S1133E201FFA87FC0121B3FBF2F8250C02FB1833BF
S1133E3045EA03450CFB08F3AB4207D9ED1908F139
S1133E40FF3002D2AB4200F2D1808046ED1AA3B219
S1133E50B5FBF2F002FB105543EA05440CFB00FCF1
S1133E60A44507D9E41900F1FF3302D2A44500F2B6
S1133E70B8801846A4EB0C0440EA08409DE731469C
S1133E803046BDE8F087CEF1200405FA0EF307FAB8
S1133E900EF720FA04F83A0C25FA04F448EA030869
S1133EA0B4FBF2F14FEA184502FB11441FFA87FCF8
S1133EB045EA044501FB0CF3AB4200FA0EF409D9C0
S1133EC0ED1901F1FF3080F08A80AB4240F2878027
S1133ED002393D44EB1A1FFA88F5B3FBF2F002FBFA
S1133EE0103345EA034500FB0CF3AB4207D9ED1947
S1133EF000F1FF386FD2AB426DD902383D44EB1A62
S1133F0040EA01418FE7C1F1200722FA07F88B400C
S1133F1005FA01F448EA030320FA07FE4FEA134CBA
S1133F20FD404EEA040EB5FBFCF94FEA1E440CFBBF
S1133F3019551FFA83F844EA054509FB08F4AC4215
S1133F4002FA01F200FA01FA08D9ED1809F1FF307A
S1133F5043D2AC4241D9A9F102091D442D1B1FFAD9
S1133F608EFEB5FBFCF00CFB10554EEA054400FB3D
S1133F7008F8A04507D9E41800F1FF3529D2A04577
S1133F8027D902381C4440EA0940A4EB0804A0FBEA
S1133F9002894C45C6464D4615D312D056B1BAEBEC
S1133FA00E0364EB050404FA07F7CB401F43CC402F
S1133FB0376074600021BDE8F0871846F8E6904643
S1133FC0E0E6C245EAD2B8EB020E69EB030501381C
S1133FD0E4E72846D7E7404691E78146BEE7014635
S1133FE078E702383C4445E7084608E7A8F10208A8
S1133FF03D442BE7704700BF70B50D4E0D4CA41B1C
S1134000A4100025A54209D10B4E0C4C00F02EF94A
S1134010A41BA4100025A54205D170BD56F8253077
S113402098470135EEE756F8253098470135F2E711
S11340307842000078420000784200007C42000090
S113404002440346934200D1704703F8011BF9E789
S1134050000000001800000000180000000000002C
S11340600000000000000000005020000000000AD2
S1134070000000000000000000000000000000003C
S1134080000000000000000000000000000000002C
S1134090000000000000000000000000000000001C
S11340A0000000000000000000000000000000000C
S11340B000000000000000000000000000000000FC
S11340C000000000000000000000000000000000EC
S11340D000000000000000000000000000000000DC
S11340E000000000000000000000000000000000CC
S11340F000000000000000000000000000000000BC
S113410000000000000000000000000000000000AB
S1134110000000000000000000000000000000009B
S1134120000000000000000000000000000000008B
S1134130000000000000000000000000000000007B
S1134140000000000000000000000000000000006B
S1134150000000000000000000000000000000005B
S1134160000000000000000006000000360000000F
S113417007000000370000000900000019000000DB
S11341800E0000002E00000000300040003400400B
S113419000200141004001410000004300040043AD
S11341A0000000000000000000000000000000000B
S11341B0000000000000000000380040003C004007
S11341C000A0014100C00141001400420018004257
S11341D0000000000A0000000C0000000D000000B8
S11341E00F00000014000000190000001E00000071
S11341F023000000280000002D0000003200000011
S1134200370000003C0000004600000050000000A1
S11342100A00000064000000E8030000102700000A
S1134220000000000000000000000000000000008A
S11342300A0000000C0000000D0000000F00000048
S1134240140000001A0000001E00000023000000FB
S1134250280000002D00000034000000370000009A
S11342603C0000004600000050000000F8B500BF0C
S1134270F8BC08BC9E46704789020000F8B500BF30
S10F4280F8BC08BC9E46704765020000B4
S10B428C8CFAFF7F0100000021
S113429400006B00000000000000003265EA00002A
S11342A43275000001006C000803000000000000E7
S11342B44C1D000000000000020000000004000087
S10B42C4FFFF010025000000CA
S9030000FC
