:020000040040BA
:1000000038FA41207D1D4000791D4000791D4000D7
:10001000791D4000791D4000791D4000000000005E
:10002000000000000000000000000000791D4000FA
:10003000791D400000000000791D4000AD1940000E
:10004000791D4000791D4000791D4000791D400058
:10005000791D4000791D4000791D4000791D400048
:10006000791D40000000000095174000AD0F4000D2
:1000700000000000791D4000791D4000791D4000FE
:10008000C10F400000000000791D4000791D4000B4
:10009000791D4000791D4000791D4000791D400008
:1000A000791D4000791D40000000000000000000A4
:1000B00000000000791D4000791D4000791D4000BE
:1000C000791D4000791D4000791D4000791D4000D8
:1000D00000000000791D400000000000791D400074
:1000E000791D4000791D4000791D4000791D4000B8
:1000F000791D4000791D4000791D4000000000007E
:100100000000000000000000791D4000791D400043
:10011000791D400000000000000000000000000009
:10012000791D4000791D4000D5174000791D400021
:10013000791D40000000000000000000791D400013
:1001400010B5054C237833B9044B13B10448AFF311
:1001500000800123237010BD4804402000000000EF
:10016000702540000C4B43B10C480D4910B5AFF35E
:1001700000800C48036823B910BD0A48036833B9EE
:100180007047094B002BF7D0BDE810401847064BCD
:10019000002BF5D0184700BF00000000702540007C
:1001A0004C044020702540000000000010B5064BB4
:1001B00019688B7F003318BF01234A7B0968034805
:1001C0000078034CA04710BD640440208C044020FC
:1001D000650B400008B10420704710B50E4B9B7AA8
:1001E000033BDBB2012B0DD900220C4B1A700A4CD9
:1001F0000B4B1C600B4B9847A07A022814BF0020C1
:10020000012010BD044B02229A72074A1A60012293
:100210005A7300229A77E7E7680440208C04402054
:1002200064044020AD014000801A060010B5094B5F
:100230001B681989090441F60930074B98470446A1
:1002400008B9204610BD034B18680E30034B984781
:10025000F7E700BF64044020F90B4000250C400084
:1002600008B5044B1B7803B108BD0020024B98472A
:10027000FAE700BF8C044020D50B400008B50422EB
:10028000034B9A72FF22034B1A70034B984708BD29
:10029000680440208C044020290B40002DE9F043E5
:1002A00095B08A4B98470446012805D0884B98475B
:1002B000204615B0BDE8F083864B1B680122DA7238
:1002C00000251D731D81844B984729464FF48040BB
:1002D000824B984730B97F4B1B6803249C727C4B40
:1002E0009847E5E74FF4D57145F208507B4B9847A6
:1002F000002840F090800022764B1B68DB7A13F0D8
:10030000010F40F0A782002145F20310734B98477C
:100310000028E0D06F4D2E68714B9847000C30815B
:100320002B68DB7A13F0010F34D06E4B984700280E
:10033000D1D02B685A7CC2F3C30002F007026A498D
:1003400051F822104FF47A7202FB01F2674951F81A
:10035000201002FB01F21A609A7B920940F0B381EF
:10036000997D587D1A7D920242EA800242EAA112EA
:10037000187ED97D490041EAE011C2F30B02013237
:1003800001F0070102318A40D97C01F00F018A4057
:10039000920A5A604F4B1B681989090443F20710EF
:1003A0004E4B9847002896D04A4B1B68DA7A12F0D9
:1003B000010F00F099811989090441F23710474B68
:1003C0009847002887D0012300930822002148483D
:1003D000484DA84700283FF47EAF012104A8464BB2
:1003E000984700283FF477AF444B984700283FF4E4
:1003F00072AF9DF8103003F00F03012B00F0BB81AA
:10040000002B00F06D81022B00F0BA81314B1B688C
:1004100010221A7368E1324B9847B0F1FF3F00F0A9
:100420001782C0F30B00B0F5D57F7FF454AF0122E3
:1004300062E710F0804F05D0264B1A68D37A43F05C
:100440000803D372234B1B68DB7A13F0010F3FF4D0
:100450005AAF002145F60230204B984700287FF420
:1004600052AF38E700F0C040B0F1804F27D00021F4
:1004700045F60230194B984700283FF42CAF154B36
:100480001B6801221A814FF4803141F20310134B93
:10049000984700283FF41FAF124B984700283FF4BD
:1004A0001AAF0C4B1A68937BC3F38303013B032BF6
:1004B00026D8DFE813F0EF00F200F500F800054B56
:1004C0001A68D37A43F00803D372D0E7D50140000D
:1004D0006102400064044020D70B4000F90B40004B
:1004E0001D0C40002D024000EC2440000825400077
:1004F00033110800550C4000910D4000F50D4000EF
:1005000012231373537CC3F3C30003F00703A14901
:1005100051F823104FF47A7303FB01F39E4951F80D
:10052000201003FB01F31360917D507D137D9B022E
:1005300043EA800343EAA113C3F30B0340F6FF71C0
:100540008B420FD0107ED17D490041EAE01101338A
:1005500001F0070102318B40D17C01F00F018B408B
:100560009B0A53601189090443F207108B4B98478B
:1005700000283FF4B0AE8A4B1B681B7B3F2B40F238
:100580009F800021009101234FF400728548864D21
:10059000A84700283FF49FAE0025844E03A8B0472B
:1005A00000283FF498AE0135ADB2322DF6D1039E4E
:1005B00006F002067A4B1B689A7D597D1B7D9B02D3
:1005C00043EA810343EAA213C3F30B0340F6FF722D
:1005D00093420ED1754F04A8B84700283FF47BAE74
:1005E0000135ADB2352DF6D96D4B1A68049B5B0809
:1005F00053606E4F7F2D59D96D4B18786D4B9847CE
:1006000003281DD96A4B18786A4B98470546042879
:1006100054D0694B6949082818BF194643F206109F
:100620005E4B984700283FF456AE654B984710F054
:10063000800F7FF450AE5A4B1B685D73614B984737
:10064000614B9847B6B1A8B1604943F20610534BCD
:10065000984700283FF43FAE594B984710F0800F61
:100660007FF439AE4E4B1B6801229A77584A1A60C4
:10067000544B98470A254FF4007841F21017474E23
:1006800041463846B04700286ED1013D15F0FF05C0
:10069000F6D120E61423137334E72223137331E7D2
:1006A000302313732EE7402313732BE704A8B847B6
:1006B00000283FF410AE0135ADB29BE74549ADE7E8
:1006C000404B9847D6E7D97D987D5A7D120442EA7F
:1006D00000220A43C2F31502013252025A6059E65F
:1006E0002F4B1B6810221A73314B1878314B9847E7
:1006F00003281CD92A4B1B68DA7A12F0010F14D098
:100700001989090441F23710244B984700283FF417
:10071000E2AD022141F20610204B984700283FF439
:10072000DAAD1F4B1B6804225A73264B9847264BA1
:10073000984750B11A4B1B68DA7A12F0010F02D0B9
:100740001B7B102B4AD81F4B9847154B1B68DB7A35
:1007500013F0010F08D04FF4007141F210100F4B4D
:10076000984700283FF4B7AD0D4B1B6800229A72E2
:10077000194B98479CE50A4B1B681A221A73B3E77A
:100780009DF81230DB09064B1B6814BF3022202273
:100790001A73A9E7EC244000AC244000F90B400098
:1007A0006404402008110800550C40001D0D400055
:1007B0008C044020550B40000000B7010002B70137
:1007C0001D0C4000AD0140005F0B40000001B9036B
:1007D000007519030001B7016102400040252A4657
:1007E000002104A8394B9847012300932A46384931
:1007F0003848394DA84700283FF46DAD012104A8C1
:10080000364B984700283FF466AD354B9847002893
:100810003FF461AD334B984710F0800F7FF45BAD30
:100820009DF8203003F00F030F2B8CD09DF82D3056
:100830009DF82C2053EA02237FF44DAD2A4B9847B4
:100840002A4B1B6801229A771A6852001A607AE7CD
:10085000002251E5002A264F08BF4FF4FC1740F64E
:1008600035054FF00008234EDFF87890414641F2FD
:100870003710B04750B1394644F22950B04728B13B
:10088000C8470028FFF6D5AD013DEFD1174B1B68D7
:100890000222DA7200214FF48040164B984700285C
:1008A0003FF419AD41F26905DFF84480114F0D4E58
:1008B000414644F20150B84700283FF40CADB04720
:1008C0000028FFF6CFAD013DF2D104E5F122400052
:1008D00001FFFF8006110800550C4000910D4000FB
:1008E000F50D40001D0C4000D70B40006404402073
:1008F00000801F40F90B400008B5054B984708B130
:10090000002008BD034B9847034B1B68D87A08BDED
:10091000D5014000610240006404402008B5054B49
:10092000984708B1002008BD034B9847034B1B684C
:10093000586808BDD50140006102400064044020B1
:100940000020704770B582B00E461546164B98478A
:100950000446B8B9154B1648012D98BF1846154BDB
:100960001B68DB7A13F0080F08BF7602012300939F
:100970002B464FF4007231460F4EB04728B90F4B4B
:1009800098470524204602B070BD0D4B98470D4B8B
:10099000034023B90C4B1D800C4B1D80F2E7074B25
:1009A00098470524EEE700BFD501400018910800E4
:1009B0001991100064044020550C40006102400071
:1009C0001D0C4000000058E4880440208A044020A8
:1009D00010B50C46064B984720B90022054B1A80EB
:1009E000052010BD034A13881C1B1480002010BD75
:1009F000590E40008804402010B50446124B984719
:100A000008B9052010BD84B10022104B1A80104B8C
:100A10001B88012B0FD0002143F20C100D4B98477F
:100A200068B90D4B9847052010BD084B1B88002B5B
:100A3000EDD0002010BD084B9847002010BD064B9C
:100A40009847002010BD00BFBD0E40008804402024
:100A50008A044020F90B40006102400070B44FF05E
:100A600080435D689C68D868D9695A6D80261E608D
:100A70005D609C60D860D9615A6500221A650522C4
:100A80001A6070BC7047000008B501F03F031843BE
:100A900011F4807F04D011F4006F0ED040F4845024
:100AA00011F4804F18BF40F400604FF080431A618A
:100AB0005861184601F480520DE011F4005F14BF34
:100AC00040F4865040F48250EAE713F41B0F0CD137
:100AD00013F0010F0DD1036C002AF6D013F41F0F91
:100AE000F6D0104B9847002008BD0E4B98470020C9
:100AF00008BD11F4005F03D1012008BD012008BD2D
:100B00004FF080431B6C4FF0FF324FF0804103F0F9
:100B10003003202BF2D00B6C013AF8D1014B9847EF
:100B2000002008BD5D0A400010B51220084CA04707
:100B30003A20A0474FF0804372229A60DA61112276
:100B40005A654FF4E0625A6005221A6010BD00BF7A
:100B5000991B400000280CBF042000207047012092
:100B6000704700009BB14FF08040436D43F48073A9
:100B700043654900154B994210D81548B0FBF1F375
:100B800001FB130101B101334BB1013B07E04FF011
:100B90008040436D23F480734365EAE700234FF000
:100BA0008041486820F0FF0048604868DBB203439A
:100BB0004B60042A07D0082A0CBFC02200224FF045
:100BC0008043DA6070478022F9E700BFFF43950851
:100BD0000044950870474FF080435A6822F46052F1
:100BE0005A6000221A614FF410625A611A46136C5F
:100BF00013F0010FFBD0704710B54FF080435A68D7
:100C000022F460525A6000241C659C610A46014629
:100C10002046014B984710BD890A40004FF08043A1
:100C2000186A704710B4031D14304FF08044226AD4
:100C3000110E03F8041C110C03F8031C110A03F82D
:100C4000021C03F8012C04338342F0D15DF8044BFD
:100C50007047000070B59DF8104084B34FF4807564
:100C60004FF0804425654FF080456C6844F4C054D3
:100C70006C6012F0030F27D06C6844F400546C6071
:100C800000F40044002C14BF4FF480344FF4A0242F
:100C900010F4803F1FD143EA02454FF08046B56112
:100CA00010F4003F2BD110F4802F2BD110F4002F23
:100CB00018D110F4801F18BF44F4002412E000255E
:100CC0004FF080442565CEE74FF080456C6824F4F2
:100CD00000546C60D4E744F40014C2F308054FF0EC
:100CE0008046B5610026094D2E60094D2A80094ACB
:100CF00013800A4601462046074B984770BD44F4CE
:100D00002014EFE744F48014ECE700BF9404402083
:100D10008E04402090044020890A400008B54FF01E
:100D20008041164A0B6C13421DD113F0020FF9D00B
:100D30004FF080431B6B0360114A13680433136048
:100D4000104A1188104A128802FB01F2934212D312
:100D50004FF08041094A0B6C134208D113F0006F29
:100D6000F9D0012008BD094B9847002008BD074B6A
:100D70009847002008BD012008BD00BF000060C0EA
:100D8000940440208E044020900440205D0A4000DE
:100D9000F0B589B007460C462022002168460E4B6C
:100DA00098470E4E012535620D4B1B8804FB03F45A
:100DB0000C4B0393A30800930B4B019302976A46D5
:100DC00000213046094B9847F561094A13681C44D5
:100DD0001460284609B0F0BDF122400000800740B1
:100DE0008E0440200130040000020040691C4000D5
:100DF0009404402070B5124B1B88124A128802FBE3
:100E000003F2114B1C684FF080401049104E09E06E
:100E1000104B984701220E4B1A62002070BD13F050
:100E2000006F0AD1036C0B42F2D1A242F7D9F56DE3
:100E300015F0010FF3D0012070BD012070BD00BF7F
:100E40008E0440209004402094044020000060C0A4
:100E5000008007405D0A4000F0B589B007460C46A7
:100E60002022002168460E4B98470E4E0125356220
:100E70000D4B1B8804FB03F40C4B0393A308009356
:100E800001970B4B02936A4600213046094B984765
:100E9000F561094A13681C441460284609B0F0BD86
:100EA000F1224000008007408E04402011500100D4
:100EB00000020040691C40009404402070B5124BB1
:100EC0001B88124A128802FB03F2114B1C684FF078
:100ED00080401049104E09E0104B984701220E4BFC
:100EE0001A62002070BD13F0006F0AD1036C0B4230
:100EF000F2D1A242F7D9F56D15F0010FF3D0012020
:100F000070BD012070BD00BF8E04402090044020C1
:100F100094044020000060C0008007405D0A40004B
:100F2000064BD3F81411064A0A40C3F81421D3F82B
:100F3000142180B21043C3F81401704700800840A8
:100F40000000FFFF024BD3F8140180B2704700BFCE
:100F500000800840C06C7047806C70472DE9F041FC
:100F6000044688460E4B9847054620460D4B984749
:100F7000054013D00C4C04F1600603E0B4420DD0E0
:100F800010345DB120684045F8D161682942F5D040
:100F9000E3689847636825EA0305EFE7BDE8F08159
:100FA000550F4000590F40009804402008B50B2110
:100FB0000148024B984708BD00100E405D0F4000ED
:100FC00008B510210148024B984708BD00140E4097
:100FD0005D0F400000B585B01B4B01931B4B029386
:100FE0001B4B984740F030001A4B98471A4B202271
:100FF0001A66C3F890205A655A62C3F88020196FA8
:1010000021F020011967596F21F0200159675A60BA
:1010100010221A66C3F890205A655A62C3F88020DD
:10102000196F21F010011967596F21F010015967EC
:101030005A601420094B984701A90948094B984761
:1010400005B05DF804FB00BF00A24A04A0860100C1
:10105000450F4000210F400000100E40991B40003A
:1010600000C00140351C400008B50B20104B9847CC
:10107000104B984740F030000F4B98470F4B4FF400
:1010800000121A61C3F8A0205A634FF480125A610B
:10109000C3F8A0205A634FF480021A61C3F8A0205D
:1010A0005A634FF000721A61C3F8A0201A6308BD9A
:1010B000991B4000450F4000210F400000140E40D6
:1010C00010B5002102200E4CA04742F2131111204E
:1010D000A04700211420A0474FF40A511A20A0472E
:1010E00043F62D511B20A04747F21C012020A047AA
:1010F00000210820A04707211020A04710BD00BFF5
:10110000F117400010B500210920054CA04747F217
:101110000E012020A04701212220A04710BD00BFC2
:10112000F117400010B500210220CD4CA04700214E
:101130000820A04700210920A04700210A20A0473D
:1011400000211420A0474FF40A511A20A04743F66B
:101150002D511B20A04747F20F012020A04701215D
:101160002220A04707212820A04740F65F01292020
:10117000A04744F203112A20A0474FF4A3612B207B
:10118000A04701213020A04701214020A04743F67D
:101190002A014120A04745F2C8314220A04740F231
:1011A00065614320A04785214420A04740F688017F
:1011B0004520A0474FF490414620A04748F68801BB
:1011C0004720A04740F217114820A0470021702077
:1011D000A04744F20A718020A04748F20101812013
:1011E000A04715218220A04740F60101C020A0475A
:1011F0004FF47971C220A0474FF46071C520A04719
:10120000A721C720A04741F28831C820A04741F25A
:101210002431C920A0472421CC20A0471421CF206D
:10122000A0474FF48071D620A04741F21F01D7207C
:10123000A0470021D820A0472321DB20A04743F668
:101240002B41DC20A04742F64D31DD20A04743F67C
:101250005E61E020A0474921D320A0470021D8208B
:10126000A0472321DB20A04743F62B41DC20A047E9
:1012700042F64D31DD20A04740F29921E620A047FB
:101280004FF45471E720A0474FF4FA71E820A047CB
:10129000E121EB20A0474FF448414FF4C070A04734
:1012A0004FF61F3140F28110A0474FF61F314FF427
:1012B000C170A0474FF6123140F28310A0474FF69D
:1012C00012114FF4C270A0474FF6031140F285107F
:1012D000A0474FF602014FF4C370A0474FF20F3101
:1012E00040F28710A0474FF20F314FF4C470A0476F
:1012F0004FF20F3140F28910A0474FF20A314FF4FC
:10130000C570A0474FF2011140F28B10A0474FF279
:101310000A014FF4C670A0474FF24B2140F28D10E6
:10132000A0474FF201214FF4C770A0474FF226218A
:1013300040F28F10A0474FF221014FF4C870A04730
:101340004FF2010140F29110A0474FF202414FF4D9
:10135000C970A0474FF2070140F29310A0474FF227
:101360000F214FF4CA70A0474FF20F2140F29510A1
:10137000A0474FF202214FF4CB70A0474FF2060175
:1013800040F29710A0474EF608414FF4CC70A047AA
:101390004CF6010140F29910A0474FF448414FF438
:1013A000CD70A0474FF4484140F2A310A0474CF63F
:1013B00002414FF4D270A0474CF6014140F2A51013
:1013C000A0474CF602414FF4D370A0474CF60141C0
:1013D00040F2A710A0474CF602414FF4D470A0474A
:1013E0004CF6050140F2A910A0474FF448414FF4D4
:1013F000D570A047302140F2AB10A04742F27B01EC
:101400004FF4D670A04742F2710140F2AD10A047F0
:1014100071214FF4D770A04741F27F0140F2AF1025
:10142000A04741F272014FF4D870A04741F2740115
:1014300040F2B110A04771214FF4D970A04731217B
:1014400040F2B310A04742F2BB114FF4DA70A0474C
:1014500042F2B10140F2B510A047B12102E000BF55
:10146000F11740004FF4DB70A04741F2BF0140F29A
:10147000B710A04741F2B2014FF4DC70A04741F22F
:10148000B40140F2B910A047B1214FF4DD70A0477C
:10149000302140F2BB10A04730214FF4DE70A0474E
:1014A00042F27B1140F2BD10A04742F271014FF4AD
:1014B000DF70A047712140F2BF10A04741F27F01C9
:1014C0004FF4E070A04741F2720140F2C110A04712
:1014D00041F274014FF4E170A047712140F2C31052
:1014E000A04731214FF4E270A04742F2BB1140F215
:1014F000C510A04742F2B1014FF4E370A047B121FB
:1015000040F2C710A04741F2BF014FF4E470A0477A
:1015100041F2B20140F2C910A04741F2B4014FF4C8
:10152000E570A047B12140F2CB10A04730214FF425
:10153000E670A047302140F2CD10A04742F27B1167
:101540004FF4E770A04742F2710140F2CF10A0477C
:1015500071214FF4E870A04741F2710140F2D110BF
:10156000A04771214FF4E970A047312140F2D31018
:10157000A04742F2BB114FF4EA70A04742F2B1011A
:1015800040F2D510A047B1214FF4EB70A04741F2D3
:10159000B30140F2D710A04741F2B1014FF4EC7013
:1015A000A047B12140F2D910A0473F214FF4ED7080
:1015B000A047322140F2DB10A04730214FF4EE70FB
:1015C000A04710BD10B500210A200D4CA04747F2DE
:1015D0000F012020A04707212820A04744F2131123
:1015E0002A20A04701213020A04701214020A04708
:1015F00040F227114820A04700217020A04710BDCD
:10160000F1174000034B0449044A43F8042F8B426E
:10161000FBD170474405402004DA412044332211B5
:101620000E4B4FF400321A66C3F890205A655A6286
:10163000C3F88020196F11431967596F21F40031E5
:1016400059675A60064A4FF400731360536C23F0D5
:10165000570343F052035364704700BF000E0E401F
:1016600000060E40144B02221A625A6AD3F89C20DC
:10167000124AC3F8A02047F23052C3F8B020104AF3
:10168000C3F8B8200022C3F8AC20C3F8B420C3F8D4
:10169000BC20C3F8C020C3F8C420D3F8902042F087
:1016A0000102C3F89020DA6842F00202DA60DA69D7
:1016B00042F00202DA61704700800740680F0E4076
:1016C00001300422034AD2F8543143F00103C2F836
:1016D00054317047000E0E40034AD2F8543123F0C3
:1016E0000103C2F854317047000E0E401C4B1B68BA
:1016F00013F4804F33D070B51A4B1B7813B11A4BCB
:101700001B781BB9184B1B78E3B970BD0024154B2F
:101710001C70154B1C70154B9847154B1868154AD3
:1017200015495050154805680839555014490E6838
:10173000144D565104601A6801321A60124B1C6035
:101740000C6070BD0122074B1A7000230B4A136016
:101750000D4A13600D4B98470D4B9847D5E77047DE
:1017600018054020080540201C054020D9164000DF
:101770000C05402048054020BCD401001005402045
:1017800024054020B0D40100140540206516400017
:10179000C516400008B50A4BDA6C0A4B1A601B6884
:1017A00013F4001F04D0084B1B78DBB2012B02D0CE
:1017B000064B984708BD064A136801331360F7E7E4
:1017C000000E0E401805402008054020ED16400090
:1017D00010054020044BD3F89C3013F0010F02D0C9
:1017E0000122024B1A607047008007402405402008
:1017F0002DE9F84F04460D46334F4FF00078C7F8F7
:101800003080F320314EB047C7F83480F320B04722
:101810004FF0090B3E464FF48009CA464FF0F308DB
:101820002A4F0FE04FF4001373634046B847C6F8E1
:1018300030904046B8476400A4B20BF1FF3313F078
:10184000FF0B08D0C6F834A014F4807FEAD04FF420
:1018500000133363E9E71C4C4FF4800767634FF4D0
:1018600000132363F320194EB0476763F320B0479A
:101870001024154EB946BA464FF0F308134F0EE048
:101880004FF4001333634046B847C6F830904046E3
:10189000B8476D00ADB2631E13F0FF0408D0C6F860
:1018A00034A015F4004FEBD14FF400137363EAE753
:1018B000054C4FF480032363F320044B98474FF00B
:1018C00000732363BDE8F88F00140E400100402030
:1018D0002DE9F0470546334E4FF000773763F3208C
:1018E000314CA0477763F320A04709244FF48009C7
:1018F000CA464FF0F3082C4F0EE04FF40013736309
:101900004046B847C6F830904046B8476D00ADB283
:10191000631E13F0FF0408D0C6F834A015F4807FCE
:10192000EBD04FF400133363EAE71E4C4FF480060C
:1019300066634FF400136363F3201B4DA8472663CF
:10194000F320A8476663F320A8472663F320A8473F
:101950006663E06BC0F30058F320A8472663F320CA
:10196000A8470F240F4D37466F63E86BC0F3005054
:1019700040EA48001FFA80F8F320DFF82C90C847AF
:101980002E63F320C847631E13F0FF04ECD1054B10
:101990004FF480025A634FF000721A634046BDE86C
:1019A000F08700BF00140E4001004020024A136877
:1019B00001331360704700BF280540200022064B0A
:1019C0001A60064B06495960E020064981F8230059
:1019D0009A6007221A6070472805402010E000E056
:1019E0007F32020000ED00E0014B1868704700BF35
:1019F00028054020814202D2091A481E7047081A61
:101A00007047000010B51048104B98473E21002049
:101A10000F4B98470F4CA0470028FCD00E4B98471F
:101A20000E4A0F4B9A620F4CA0470028FCD00220B0
:101A30000D4B984700200D4B98470D4B98470D488C
:101A4000024B984710BD00BF00A3E111451F4000A5
:101A5000151B4000691B4000791B4000013F0B2013
:101A600000060E40891B4000791A4000B11A400060
:101A7000391E400000449508032811D0042812D0D4
:101A800002280CBF4FF480710021084A136B23F425
:101A900040730B431363936E13F0080FFBD0704732
:101AA0004FF44071F1E74FF40071EEE700060E408D
:101AB000174A136B23F0700318431063936E13F0EF
:101AC000080F0AD14FF4805311498A6E12F0080FA3
:101AD00003D1013BF9D1012070470D4A136B23F06C
:101AE000030343F002031363936E13F0080F0AD14C
:101AF0004FF4805306498A6E12F0080F05D1013B5E
:101B0000F9D101207047002070470020704700BFC6
:101B100000060E40A0B90E48036A090289B20D4AB8
:101B20001A400D4B1343194301620246936E13F0A2
:101B3000010FFBD0064A116A084B0B431362704732
:101B400003490B6A064A1A40064B13430B6270475F
:101B500000060E40FCFFC8FF0100370000003701FF
:101B6000FCFFC8FE02003701024B986E00F4803083
:101B7000704700BF00060E404FF00052014B9A62C2
:101B8000704700BF00060E40024B986E00F0020046
:101B9000704700BF00060E403F281ED81F280CD8F3
:101BA000114B9A6901238340934318D0012303FA10
:101BB00000F00D4B18610020704720380A4BD3F815
:101BC00008210123834093430BD0012303FA00F043
:101BD000054BC3F80001002070470120704700202A
:101BE00070470020704700BF00060E40104B99421E
:101BF0001BD84900B2FBF1F2043AFF2A13D90023A3
:101C000001335208FF2A01D9062BF9D9D1B241F08C
:101C1000E051120292B20A431B0403F4E02313437F
:101C20000361002070470023F0E70120704700BFE8
:101C3000801A060008B54FF0FF328262026A8022E5
:101C40000260026B0822026020220260042202600D
:101C50000A684968034B9847012814BF00200120F7
:101C600008BD00BFED1B400000EB8111CB6D536838
:101C70000B6693684B66136823F07F430B67136909
:101C8000C3F30B034B675369CB67936923F07F431F
:101C9000C1F88030D36923F07F43C1F88430D36822
:101CA0008B677047334B4FF080521A66C3F8902011
:101CB0005A655A62C3F88020196F21F08051196764
:101CC000596F114359675A604FF000721A66C3F892
:101CD00090205A655A62C3F88020196F1143196722
:101CE000596F114359675A604FF080421A66C3F822
:101CF00090205A655A62C3F88020196F21F0804104
:101D00001967596F114359675A604FF000421A66BC
:101D1000C3F890205A655A62C3F88020196F21F0E9
:101D200000411967596F114359675A604FF080623B
:101D30001A66C3F890205A655A62C3F88020196F5A
:101D400021F080611967596F114359675A604FF04C
:101D500000621A66C3F890205A655A62C3F8802060
:101D6000196F21F000611967596F114359675A6063
:101D7000704700BF000E0E40FEE7000008B5234B81
:101D8000234A9A4210D0234B204A9A420CD2013B5C
:101D90009B1A23F00303043313441D4951F8040B29
:101DA00042F8040B9A42F9D11B4B1C4A9A420AD2C0
:101DB000013B9B1A23F0030304331344002142F830
:101DC000041B9342FBD1164A164B23F07F0393600A
:101DD000EFF3108372B6BFF35F8F0021124A1170C8
:101DE00012490A6842F470020A60BFF34F8FBFF3D2
:101DF0006F8F2BB901220C4B1A70BFF35F8F62B645
:101E00000B4B98470B4B9847FEE700BF0000402064
:101E1000702540004404402034DA4120480440202A
:101E200000ED00E0000040001000402088ED00E0E0
:101E3000A1224000ED1F40003B4B1B6B03F003034E
:101E4000012B1DD083B1022B36D0374B1B6B03F017
:101E50007003702B5FD0344B1A6B3449C2F30212FB
:101E60000B68D3400B607047314B5B6913F0800FF8
:101E700014BF4FF400424FF4FA422C4B1A60E4E7CF
:101E8000294B1B6A13F0807F03D02A4A274B1A6024
:101E9000DBE7294A254B1A60234B1B6A03F07003CA
:101EA000102B05D0202BD0D1224A204B1A60CCE732
:101EB000224A1E4B1A60C8E71B4B1B6A13F0807F37
:101EC00016D01C4A194B1A60174B1B6B03F0030307
:101ED000022BBAD1144A916A926A1448C1F30A419A
:101EE000036801FB0333D2B2B3FBF2F30360ACE748
:101EF000114A0E4B1A600C4B1B6A03F07003102B37
:101F000005D0202BE0D10B4A084B1A60DCE70B4AC6
:101F1000064B1A60D8E7054A13680949A1FB031369
:101F20005B081360704700BF00060E40140040209D
:101F300010180E40001BB70000093D0000127A0087
:101F4000ABAAAAAA124B984211D9124B984213D9A4
:101F5000114B984214D9114B984215D9104B984205
:101F600094BF4FF004220F4A0F4B1A6070474FF096
:101F700080620D4B1A6070470C4A0B4B1A60704719
:101F80000B4A094B1A6070470A4A074B1A607047A0
:101F9000FF2C3101FF596202FF869303FFB3C40493
:101FA000FFE0F50500050004000C0E4000010004F0
:101FB000000200040003000408B5064B98470648D9
:101FC000064B9847064B9847064B9847064B984751
:101FD00008BD00BFC110400040B403000100402014
:101FE0000511400025114000C5154000F8B501223B
:101FF0008A4B1A70BFF35F8F62B6894B9847894B43
:1020000098470A20884CA0470B20A0471020A047E3
:10201000864B9847864B9847864B9847864B984700
:10202000864FB847864E30603568B8470146284627
:10203000844B9847844B18601020A047834B02259F
:102040001D61C3F8A0501D630A20A0470B20A047C4
:102050007F4C2561C4F8A0506563B84730607D4867
:102060007D4B9847256304232361C4F8A030636344
:102070007A4B4FF480225A61C3F8A0205A63784B00
:1020800098470020774B984745F2040398420CD0BC
:102090000122724B1A63744B98470020734B984788
:1020A000F0B16A4C6B4E6C4D13E0684BDB6B13F078
:1020B000020F02D0654B5D63EAE70222634B1A63AD
:1020C000E6E7022323633046A8470020674B984782
:1020D00030B1E36B13F0020FF3D002236363F2E736
:1020E0000020634B9847092827D00222574B5A6398
:1020F000A3F5C0634FF000721A61C3F8A0204FF03F
:1021000000421A61C3F8A0204FF080621A61C3F840
:10211000A0204FF000621A61C3F8A0204FF0804267
:102120001A61C3F8A0204FF080525A61C3F8A02072
:102130000A203D4B98470020F8BD0222434B1A630A
:1021400000204C4B98473D4B98473D4B18604A4800
:10215000414B98470020494B984738BB484B98471C
:10216000EA224FF480610020464B984700282AD18C
:10217000454B1B6863B10024444F454E424DEA2154
:102180003846B04700282BD101342B68A342F6D83B
:102190000120404B9847002833D02C4BDB6B13F0C9
:1021A000020F2AD00222294B5A6314E0274BDB6B23
:1021B00013F0020F03D00222244B5A63CEE702220F
:1021C000224B1A63CAE7214BDB6B13F0020F03D0DB
:1021D00002221E4B5A63F8BD02221C4B1A63FAE717
:1021E0001A4BDB6B13F0020F03D00222174B5A631A
:1021F000F1E70222154B1A63EDE70222134B1A6333
:10220000E9E7254C254E144D2368013323602368EC
:10221000013323603046A847F6E700BF1000402096
:10222000051A4000A51C4000991B400021164000E3
:10223000BD19400069104000D50F4000E919400069
:1022400008DA4120F51940000CDA412000140E4054
:1022500000100E40780A250001004020000E0E40BC
:10226000B91F4000D11840007D0240009D0240008F
:10227000F90840001D094000670B3C074109400078
:1022800005164000450940000C004020480540204C
:10229000D1094000F909400020054020AF687201D3
:1022A00070B50F4E0F4D761BB61018BF002405D029
:1022B000013455F8043B9847A642F9D10A4E0B4D1C
:1022C000761B00F043F9B61018BF002406D0013485
:1022D00055F8043B9847A642F9D170BD70BD00BFC8
:1022E00058254000582540006025400058254000F2
:1022F00070B4860746D0541E002A41D0CAB20346A5
:1023000002E014F1FF343BD303F8012B9D07F8D111
:10231000032C2ED9CDB245EA05250F2C45EA0545FB
:1023200019D903F110022646103E0F2E42F8105C18
:1023300042F80C5C42F8085C42F8045C02F11002BE
:10234000F2D8A4F1100222F00F0204F00F041032B0
:10235000032C13440DD91E462246043A032A46F89C
:10236000045BFAD8221F22F003020432134404F063
:1023700003042CB1C9B21C4403F8011B9C42FBD1DD
:1023800070BC704714460346C2E700BF024B13B14E
:10239000024800F005B8704700000000AD2340007F
:1023A000002301461A46184600F01EB838B50A4CFC
:1023B0000A4D641BA4100AD004F18043013B05EBD5
:1023C0008305013C55F804399847002CF9D1BDE844
:1023D000384000F0C5B800BF702540006C254000B3
:1023E000704700BF704700BF2DE9F8432C4D0646EB
:1023F000286898460F469146FFF7F2FF294B1C6864
:10240000D4F84831002B3ED05A681F2A1CDC02F158
:10241000010E76B103EB82010124C1F88890D3F854
:10242000880194402043022EC3F88801C1F8088136
:1024300023D00232C3F804E0286843F82270FFF783
:10244000D1FF0020BDE8F883174B0BB34FF4C870E1
:10245000AFF300800346D8B1D4F8482102600021D0
:1024600041600A46C4F848014FF0010EC0F88811D7
:10247000C0F88C11002EDCD0CCE7D3F88C110C43C3
:10248000C3F88C41D5E704F5A673C4F84831BBE71F
:102490002868FFF7A7FF4FF0FF30BDE8F88300BFC3
:1024A00040044020482540000000000000000000DB
:1024B0000A0000000C0000000D0000000F000000EA
:1024C000140000001A0000001E000000230000009D
:1024D000280000002D00000034000000370000003C
:1024E0003C00000046000000500000000A00000010
:1024F00064000000E8030000102700000000000056
:102500000000000000000000000000000A000000C1
:102510000C0000000D0000000F000000140000007F
:10252000190000001E000000230000002800000029
:102530002D00000032000000370000003C000000C9
:10254000460000005000000018004020F8B500BF11
:10255000F8BC08BC9E4670478D23400065014000D2
:10256000F8B500BFF8BC08BC9E467047410140006A
:10257000BFF35F8F0138FBD17047000001000000FE
:102580000100000000093D0000000000040340209D
:102590006C034020D4034020000000000000000035
:1025A000000000000000000000000000000000002B
:1025B000000000000000000000000000000000001B
:1025C000000000000000000000000000000000000B
:1025D00000000000000000000000000000000000FB
:1025E00000000000000000000000000000000000EB
:1025F00000000000000000000000000000000000DB
:1026000000000000000000000000000000000000CA
:1026100000000000000000000000000000000000BA
:1026200000000000000000000000000000000000AA
:1026300001000000000000000E33CDAB34126DE647
:10264000ECDE05000B0000000000000000000000B0
:10265000000000000000000000000000000000007A
:10266000000000000000000000000000000000006A
:10267000000000000000000000000000000000005A
:10268000000000000000000000000000000000004A
:0429B00010DA4120D8
:0400000500401D7D1D
:00000001FF
