S015000057464D696E6953636F706556342E7372656361
S21440000000A44520812140007D2140007D21400004
S2144000107D2140007D2140007D2140000000000001
S2144000200000000000000000000000007D214000AD
S2144000307D214000000000007D214000B11D4000B1
S2144000407D2140007D2140007D2140007D214000F3
S2144000507D2140007D2140007D2140007D214000E3
S2144000607D21400000000000B51B40000D114000FF
S214400070000000007D2140007D2140007D214000A1
S21440008021114000000000007D2140007D214000FD
S2144000907D2140007D2140007D2140007D214000A3
S2144000A07D2140007D21400000000000000000004F
S2144000B0000000007D2140007D2140007D21400061
S2144000C07D2140007D2140007D2140007D21400073
S2144000D0000000007D214000000000007D2140001F
S2144000E07D2140007D2140007D2140007D21400053
S2144000F07D2140007D2140007D2140000000000021
S21440010000000000000000007D2140007D214000EE
S2144001107D214000000000000000000000000000BC
S2144001207D2140007D214000911740007D21400008
S2144001307D21400000000000000000007D214000BE
S21440014010B5054C237833B9044B13B10448AFF3CC
S21440015000800123237010BD4804402000000000AA
S2144001605C2A40000C4B43B10C480D4910B5AFF328
S21440017000800C48036823B910BD0A48036833B9A9
S2144001807047094B002BF7D0BDE810401847064B88
S214400190002BF5D0184700BF000000005C2A400046
S2144001A04C0440205C2A40000000000010B5064B7E
S2144001B019688B7F003318BF01234A7B09680348C0
S2144001C00078034CA04710BD640440208C044020B7
S2144001D0C50C400008B10420704710B50E4B9B7A02
S2144001E0033BDBB2012B0DD900220C4B1A700A4C94
S2144001F00B4B1C600B4B9847A07A022814BF00207C
S214400200012010BD044B02229A72074A1A6001224E
S2144002105A7300229A77E7E7680440208C0440200F
S21440022064044020AD014000801A060010B5094B1A
S2144002301B681989090441F60930074B984704465C
S21440024008B9204610BD034B18680E30034B98473C
S214400250F7E700BF64044020590D4000850D40007C
S21440026008B5044B1B7803B108BD0020024B9847E5
S214400270FAE700BF8C044020350D400008B5042244
S214400280034B9A72FF22034B1A70034B984708BDE4
S214400290680440208C044020890C40002DE9F0433F
S2144002A095B08A4B98470446012805D0884B984716
S2144002B0204615B0BDE8F083864B1B680122DA72F3
S2144002C000251D731D81844B984729464FF4804076
S2144002D0824B984730B97F4B1B6803249C727C4BFB
S2144002E09847E5E74FF4D57145F208507B4B984761
S2144002F0002840F090800022764B1B68DB7A13F093
S214400300010F40F0A782002145F20310734B984737
S2144003100028E0D06F4D2E68714B9847000C308116
S2144003202B68DB7A13F0010F34D06E4B98470028C9
S214400330D1D02B685A7CC2F3C30002F007026A4948
S21440034051F822104FF47A7202FB01F2674951F8D5
S214400350201002FB01F21A609A7B920940F0B381AA
S214400360997D587D1A7D920242EA800242EAA112A5
S214400370187ED97D490041EAE011C2F30B020132F2
S21440038001F0070102318A40D97C01F00F018A4012
S214400390920A5A604F4B1B681989090443F20710AA
S2144003A04E4B9847002896D04A4B1B68DA7A12F094
S2144003B0010F00F099811989090441F23710474B23
S2144003C09847002887D001230093082200214848F8
S2144003D0484DA84700283FF47EAF012104A8464B6D
S2144003E0984700283FF477AF444B984700283FF49F
S2144003F072AF9DF8103003F00F03012B00F0BB8165
S214400400002B00F06D81022B00F0BA81314B1B6847
S21440041010221A7368E1324B9847B0F1FF3F00F064
S2144004201782C0F30B00B0F5D57F7FF454AF01229E
S21440043062E710F0804F05D0264B1A68D37A43F017
S2144004400803D372234B1B68DB7A13F0010F3FF48B
S2144004505AAF002145F60230204B984700287FF4DB
S21440046052AF38E700F0C040B0F1804F27D00021AF
S21440047045F60230194B984700283FF42CAF154BF1
S2144004801B6801221A814FF4803141F20310134B4E
S214400490984700283FF41FAF124B984700283FF478
S2144004A01AAF0C4B1A68937BC3F38303013B032BB1
S2144004B026D8DFE813F0EF00F200F500F800054B11
S2144004C01A68D37A43F00803D372D0E7D5014000C8
S2144004D06102400064044020370D4000590D400042
S2144004E07D0D40002D024000D4294000F0294000F8
S2144004F033110800B50D4000F10E4000550F400086
S21440050012231373537CC3F3C30003F00703A149BC
S21440051051F823104FF47A7303FB01F39E4951F8C8
S214400520201003FB01F31360917D507D137D9B02E9
S21440053043EA800343EAA113C3F30B0340F6FF717B
S2144005408B420FD0107ED17D490041EAE011013345
S21440055001F0070102318B40D17C01F00F018B4046
S2144005609B0A53601189090443F207108B4B984746
S21440057000283FF4B0AE8A4B1B681B7B3F2B40F2F3
S2144005809F800021009101234FF400728548864DDC
S214400590A84700283FF49FAE0025844E03A8B047E6
S2144005A000283FF498AE0135ADB2322DF6D1039E09
S2144005B006F002067A4B1B689A7D597D1B7D9B028E
S2144005C043EA810343EAA213C3F30B0340F6FF72E8
S2144005D093420ED1754F04A8B84700283FF47BAE2F
S2144005E00135ADB2352DF6D96D4B1A68049B5B08C4
S2144005F053606E4F7F2D59D96D4B18786D4B984789
S21440060003281DD96A4B18786A4B98470546042834
S21440061054D0694B6949082818BF194643F206105A
S2144006205E4B984700283FF456AE654B984710F00F
S214400630800F7FF450AE5A4B1B685D73614B9847F2
S214400640614B9847B6B1A8B1604943F20610534B88
S214400650984700283FF43FAE594B984710F0800F1C
S2144006607FF439AE4E4B1B6801229A77584A1A607F
S214400670544B98470A254FF4007841F21017474EDE
S21440068041463846B04700286ED1013D15F0FF057B
S214400690F6D120E61423137334E72223137331E78D
S2144006A0302313732EE7402313732BE704A8B84771
S2144006B000283FF410AE0135ADB29BE74549ADE7A3
S2144006C0404B9847D6E7D97D987D5A7D120442EA3A
S2144006D000220A43C2F31502013252025A6059E61A
S2144006E02F4B1B6810221A73314B1878314B9847A2
S2144006F003281CD92A4B1B68DA7A12F0010F14D053
S2144007001989090441F23710244B984700283FF4D2
S214400710E2AD022141F20610204B984700283FF4F4
S214400720DAAD1F4B1B6804225A73264B9847264B5C
S214400730984750B11A4B1B68DA7A12F0010F02D074
S2144007401B7B102B4AD81F4B9847154B1B68DB7AF0
S21440075013F0010F08D04FF4007141F210100F4B08
S214400760984700283FF4B7AD0D4B1B6800229A729D
S214400770194B98479CE50A4B1B681A221A73B3E735
S2144007809DF81230DB09064B1B6814BF302220222E
S2144007901A73A9E7D429400094294000590D400017
S2144007A06404402008110800B50D40007D0E40004E
S2144007B08C044020B50C40000000B7010002B70191
S2144007C07D0D4000AD014000BF0C40000001B90364
S2144007D0007519030001B7016102400040252A4612
S2144007E0002104A8394B9847012300932A463849EC
S2144007F03848394DA84700283FF46DAD012104A87C
S214400800364B984700283FF466AD354B984700284E
S2144008103FF461AD334B984710F0800F7FF45BADEB
S2144008209DF8203003F00F030F2B8CD09DF82D3011
S2144008309DF82C2053EA02237FF44DAD2A4B98476F
S2144008402A4B1B6801229A771A6852001A607AE788
S214400850002251E5002A264F08BF4FF4FC1740F609
S21440086035054FF00008234EDFF87890414641F2B8
S2144008703710B04750B1394644F22950B04728B1F6
S214400880C8470028FFF6D5AD013DEFD1174B1B6892
S2144008900222DA7200214FF48040164B9847002817
S2144008A03FF419AD41F26905DFF84480114F0D4E13
S2144008B0414644F20150B84700283FF40CADB047DB
S2144008C00028FFF6CFAD013DF2D104E5D927400020
S2144008D001FFFF8006110800B50D4000F10E4000F4
S2144008E0550F40007D0D4000370D40006404402009
S2144008F000801F40590D400008B5054B984708B189
S214400900002008BD034B9847034B1B68D87A08BDA8
S214400910D5014000610240006404402008B5054B04
S214400920984708B1002008BD034B9847034B1B6807
S214400930586808BDD501400061024000640440206C
S2144009402DE9F04782B08A469146264B9847804626
S21440095018B1404602B0BDE8F087234C234E244DE4
S214400960244F33681989090441F20D10A84728B16D
S214400970B84710F4807F17D1013CF2D11E4B984700
S2144009804FF00508E5E71B4B98471C4B034033B92F
S2144009901B4BA3F800901B4BA3F80090D9E7164BCF
S2144009A098474FF00508D4E7174B1848B9F1010FA0
S2144009B098BF18460D4B1B68DB7A13F0080F01D121
S2144009C04FEA4A2A012300934B464FF400725146A1
S2144009D00F4CA0470028D6D1074B98474FF0050844
S2144009E0B7E700BFD5014000410D03006404402036
S2144009F0590D40007D0D400061024000000058E463
S214400A00880440208A04402011110800121110006A
S214400A10B50D400010B50C46064B984720B900224D
S214400A20054B1A80052010BD034A13881C1B1480F2
S214400A30002010BDF10E40008804402010B504464A
S214400A40134B984708B9052010BD84B10022114BBE
S214400A501A80114B1B88012B0FD0002143F20C103B
S214400A600E4B984768B10E4B9847002010BD094B77
S214400A701B88002BEDD0002010BD094B9847002066
S214400A8010BD002143F20C10044B9847EBE700BF23
S214400A90550F4000880440208A044020590D4000ED
S214400AA06102400070B582B00E461546164B984718
S214400AB00446B8B9154B1648012D98BF1846154B35
S214400AC01B68DB7A13F0080F08BF760201230093F9
S214400AD02B464FF4007231460F4EB04728B90F4BA5
S214400AE098470524204602B070BD0D4B98470D4BE5
S214400AF0034023B90C4B1D800C4B1D80F2E7074B7F
S214400B0098470524EEE700BFD5014000189108003D
S214400B101991100064044020B50D40006102400069
S214400B207D0D4000000058E4880440208A044020A0
S214400B3010B50C46064B984720B90022054B1A8044
S214400B40052010BD034A13881C1B1480002010BDCE
S214400B50B90F40008804402010B50446124B984711
S214400B6008B9052010BD84B10022104B1A80104BE6
S214400B701B88012B0FD0002143F20C100D4B9847D9
S214400B8068B90D4B9847052010BD084B1B88002BB5
S214400B90EDD0002010BD084B9847002010BD064BF6
S214400BA09847002010BD00BF1D104000880440201C
S214400BB08A044020590D40006102400070B44FF056
S214400BC080435D689C68D868D9695A6D80261E60E7
S214400BD05D609C60D860D9615A6500221A6505221E
S214400BE01A6070BC7047000008B501F03F03184318
S214400BF011F4807F04D011F4006F0ED040F484507E
S214400C0011F4804F18BF40F400604FF080431A61E3
S214400C105861184601F480520DE011F4005F14BF8D
S214400C2040F4865040F48250EAE713F41B0F0CD190
S214400C3013F0010F0DD1036C002AF6D013F41F0FEA
S214400C40F6D0104B9847002008BD0E4B9847002022
S214400C5008BD11F4005F03D1012008BD012008BD86
S214400C604FF080431B6C4FF0FF324FF0804103F053
S214400C703003202BF2D00B6C013AF8D1014B984749
S214400C80002008BDBD0B400010B51220084CA04700
S214400C903A20A0474FF0804372229A60DA611122D0
S214400CA05A654FF4E0625A6005221A6010BD00BFD4
S214400CB09D1F400000280CBF0420002070470120E4
S214400CC0704700009BB14FF08040436D43F4807303
S214400CD043654900154B994210D81548B0FBF1F3CF
S214400CE001FB130101B101334BB1013B07E04FF06B
S214400CF08040436D23F480734365EAE700234FF05A
S214400D008041486820F0FF0048604868DBB20343F3
S214400D104B60042A07D0082A0CBFC02200224FF09E
S214400D208043DA6070478022F9E700BFFF439508AA
S214400D300044950870474FF080435A6822F460524A
S214400D405A6000221A614FF410625A611A46136CB8
S214400D5013F0010FFBD0704710B54FF080435A6830
S214400D6022F460525A6000241C659C610A46014683
S214400D702046014B984710BDE90B40004FF080439A
S214400D80186A704710B4031D14304FF08044226A2E
S214400D90110E03F8041C110C03F8031C110A03F887
S214400DA0021C03F8012C04338342F0D15DF8044B57
S214400DB07047000070B59DF8104084B34FF48075BE
S214400DC04FF0804425654FF080456C6844F4C0542D
S214400DD06C6012F0030F27D06C6844F400546C60CB
S214400DE000F40044002C14BF4FF480344FF4A02489
S214400DF010F4803F1FD143EA02454FF08046B5616C
S214400E0010F4003F2BD110F4802F2BD110F4002F7C
S214400E1018D110F4801F18BF44F4002412E00025B7
S214400E204FF080442565CEE74FF080456C6824F44B
S214400E3000546C60D4E744F40014C2F308054FF045
S214400E408046B5610026094D2E60094D2A80094A24
S214400E5013800A4601462046074B984770BD44F427
S214400E602014EFE744F48014ECE700BF94044020DD
S214400E708E04402090044020E90B400008B54FF017
S214400E808041164A0B6C13421DD113F0020FF9D065
S214400E904FF080431B6B0360114A136804331360A2
S214400EA0104A1188104A128802FB01F2934212D36C
S214400EB04FF08041094A0B6C134208D113F0006F83
S214400EC0F9D0012008BD094B9847002008BD074BC4
S214400ED09847002008BD012008BD00BF000060C044
S214400EE0940440208E04402090044020BD0B4000D7
S214400EF0F0B589B007460C462022002168460E4BC6
S214400F0098470E4E012535620D4B1B8804FB03F4B3
S214400F100C4B0393A30800930B4B019302976A462E
S214400F2000213046094B9847F561094A13681C442E
S214400F301460284609B0F0BDD9274000008007401D
S214400F408E04402001300400000200406D20400026
S214400F509404402070B5124B1B88124A128802FB3C
S214400F6003F2114B1C684FF080401049104E09E0C8
S214400F70104B984701220E4B1A62002070BD13F0AA
S214400F80006F0AD1036C0B42F2D1A242F7D9F56D3D
S214400F9015F0010FF3D0012070BD012070BD00BFD9
S214400FA08E0440209004402094044020000060C0FE
S214400FB000800740BD0B4000F0B589B007460C46A0
S214400FC02022002168460E4B98470E4E012535627A
S214400FD00D4B1B8804FB03F40C4B0393A3080093B0
S214400FE001970B4B02936A4600213046094B9847BF
S214400FF0F561094A13681C441460284609B0F0BDE0
S214401000D9274000008007408E0440201150010040
S214401010000200406D2040009404402070B5124B02
S2144010201B88124A128802FB03F2114B1C684FF0D1
S21440103080401049104E09E0104B984701220E4B55
S2144010401A62002070BD13F0006F0AD1036C0B4289
S214401050F2D1A242F7D9F56D15F0010FF3D0012079
S21440106070BD012070BD00BF8E044020900440201B
S21440107094044020000060C000800740BD0B400044
S214401080064BD3F81411064A0A40C3F81421D3F885
S214401090142180B21043C3F8140170470080084002
S2144010A00000FFFF024BD3F8140180B2704700BF28
S2144010B000800840C06C7047806C70472DE9F04156
S2144010C0044688460E4B9847054620460D4B9847A3
S2144010D0054013D00C4C04F1600603E0B4420DD03A
S2144010E010345DB120684045F8D161682942F5D09A
S2144010F0E3689847636825EA0305EFE7BDE8F081B3
S214401100B5104000B91040009804402008B50B21A7
S2144011100148024B984708BD00100E40BD104000E5
S21440112008B510210148024B984708BD00140E40F0
S214401130BD1040000B69934202D24FF6FF707047D5
S2144011400B68CA6000EB4310C0F8082200207047C6
S21440115000B585B01B4B01931B4B02931B4B984726
S21440116040F030001A4B98471A4B20221A66C3F8B4
S21440117090205A655A62C3F88020196F21F02001EA
S2144011801967596F21F0200159675A6010221A6674
S214401190C3F890205A655A62C3F88020196F21F030
S2144011A010011967596F21F0100159675A601420D1
S2144011B0094B984701A90948094B984705B05DF87F
S2144011C004FB00BF00A24A04A0860100A510400010
S2144011D08110400000100E409D1F400000C001409E
S2144011E03920400008B50B20104B9847104B9847C5
S2144011F040F030000F4B98470F4B4FF400121A61E7
S214401200C3F8A0205A634FF480125A61C3F8A02056
S2144012105A634FF480021A61C3F8A0205A634FF015
S21440122000721A61C3F8A0201A6308BD9D1F4000D3
S214401230A51040008110400000140E4010B500215B
S21440124002200E4CA04742F213111120A047002165
S2144012501420A0474FF40A511A20A04743F62D51B8
S2144012601B20A04747F21C012020A0470021082051
S214401270A04707211020A04710BD00BFF51B400027
S21440128010B500210920054CA04747F20E0120204A
S214401290A04701212220A04710BD00BFF51B4000FB
S2144012A010B500210220CD4CA04700210820A047C1
S2144012B000210920A04700210A20A0470021142031
S2144012C0A0474FF40A511A20A04743F62D511B2041
S2144012D0A04747F20F012020A04701212220A04727
S2144012E007212820A04740F65F012920A04744F266
S2144012F003112A20A0474FF4A3612B20A0470121C9
S2144013003020A04701214020A04743F62A01412033
S214401310A04745F2C8314220A04740F265614320CD
S214401320A04785214420A04740F688014520A04795
S2144013304FF490414620A04748F688014720A047F2
S21440134040F217114820A04700217020A04744F2E1
S2144013500A718020A04748F201018120A04715214C
S2144013608220A04740F60101C020A0474FF4797183
S214401370C220A0474FF46071C520A047A721C720D0
S214401380A04741F28831C820A04741F22431C92005
S214401390A0472421CC20A0471421CF20A0474FF4BB
S2144013A08071D620A04741F21F01D720A0470021D8
S2144013B0D820A0472321DB20A04743F62B41DC2042
S2144013C0A04742F64D31DD20A04743F65E61E0205F
S2144013D0A0474921D320A0470021D820A047232159
S2144013E0DB20A04743F62B41DC20A04742F64D3198
S2144013F0DD20A04740F29921E620A0474FF45471E3
S214401400E720A0474FF4FA71E820A047E121EB20FF
S214401410A0474FF448414FF4C070A0474FF61F31E5
S21440142040F28110A0474FF61F314FF4C170A047DD
S2144014304FF6123140F28310A0474FF612114FF488
S214401440C270A0474FF6031140F28510A0474FF6F2
S21440145002014FF4C370A0474FF20F3140F287109D
S214401460A0474FF20F314FF4C470A0474FF20F31F0
S21440147040F28910A0474FF20A314FF4C570A0479A
S2144014804FF2011140F28B10A0474FF20A014FF481
S214401490C670A0474FF24B2140F28D10A0474FF246
S2144014A001214FF4C770A0474FF2262140F28F101B
S2144014B0A0474FF221014FF4C870A0474FF20101F8
S2144014C040F29110A0474FF202414FF4C970A04736
S2144014D04FF2070140F29310A0474FF20F214FF40E
S2144014E0CA70A0474FF20F2140F29510A0474FF226
S2144014F002214FF4CB70A0474FF2060140F29710FE
S214401500A0474EF608414FF4CC70A0474CF6010178
S21440151040F29910A0474FF448414FF4CD70A04791
S2144015204FF4484140F2A310A0474CF602414FF416
S214401530D270A0474CF6014140F2A510A0474CF6A9
S21440154002414FF4D370A0474CF6014140F2A71039
S214401550A0474CF602414FF4D470A0474CF6050124
S21440156040F2A910A0474FF448414FF4D570A04729
S214401570302140F2AB10A04742F27B014FF4D670C8
S214401580A04742F2710140F2AD10A04771214FF4DE
S214401590D770A04741F27F0140F2AF10A04741F21A
S2144015A072014FF4D870A04741F2740140F2B11076
S2144015B0A04771214FF4D970A047312140F2B310B3
S2144015C0A04742F2BB114FF4DA70A04742F2B10195
S2144015D040F2B510A047B12102E000BFF51B400025
S2144015E04FF4DB70A04741F2BF0140F2B710A0476E
S2144015F041F2B2014FF4DC70A04741F2B40140F230
S214401600B910A047B1214FF4DD70A047302140F219
S214401610BB10A04730214FF4DE70A04742F27B114A
S21440162040F2BD10A04742F271014FF4DF70A04770
S214401630712140F2BF10A04741F27F014FF4E070A5
S214401640A04741F2720140F2C110A04741F2740136
S2144016504FF4E170A047712140F2C310A0473121FA
S2144016604FF4E270A04742F2BB1140F2C510A047CB
S21440167042F2B1014FF4E370A047B12140F2C710E7
S214401680A04741F2BF014FF4E470A04741F2B201D7
S21440169040F2C910A04741F2B4014FF4E570A047AC
S2144016A0B12140F2CB10A04730214FF4E670A0475E
S2144016B0302140F2CD10A04742F27B114FF4E77044
S2144016C0A04742F2710140F2CF10A04771214FF47B
S2144016D0E870A04741F2710140F2D110A047712155
S2144016E04FF4E970A047312140F2D310A04742F2B0
S2144016F0BB114FF4EA70A04742F2B10140F2D51058
S214401700A047B1214FF4EB70A04741F2B30140F23D
S214401710D710A04741F2B1014FF4EC70A047B12179
S21440172040F2D910A0473F214FF4ED70A047322138
S21440173040F2DB10A04730214FF4EE70A04710BDBA
S21440174010B500210A200D4CA04747F20F0120207B
S214401750A04707212820A04744F213112A20A0477B
S21440176001213020A04701214020A04740F2271108
S2144017704820A04700217020A04710BDF51B400020
S21440178008B58221C020014B984708BDF51B400094
S214401790044BD3F89C3013F0010F02D00122024BC9
S2144017A01A60704700800740300540200E4B4FF4CB
S2144017B000321A66C3F890205A655A62C3F88020F1
S2144017C0196F11431967596F21F4003159675A60F0
S2144017D0064A4FF400731360536C23F0570343F0EC
S2144017E052035364704700BF000E0E4000060E4082
S2144017F000B5ADF5017D4FF40072002168460E4BF2
S2144018009847012240F2FF3100200C4B98470121B7
S21440181068460B4B984700200A4B9847049A0A4B59
S2144018201A60059A094B1A60069A094B1A600DF51C
S214401830017D5DF804FB00BFD92740004109400008
S214401840150A40003D0A40000C004020100540208C
S21440185018054020034AD2F8543143F02003C2F81A
S21440186054317047000E0E4008B53A20054B984755
S214401870054B4FF08062C3F88421202183F83A1349
S2144018805A6008BD9D1F400000E100E0034AD2F8C0
S2144018905C3143F00F03C2F85C317047000E0E40D7
S2144018A0124B1A6842F480421A605A6942F48042E7
S2144018B05A61D3F8942042F48042C3F894201A6CBC
S2144018C042F480421A64D3F8B02042F48042C3F80F
S2144018D0B020D3F8C02042F48042C3F8C020D3F8EA
S2144018E0D02042F48042C3F8D0207047000E0E400D
S2144018F0124B1A6842F400121A605A6942F40012F7
S2144019005A61D3F8942042F40012C3F894201A6C1B
S21440191042F400121A64D3F8B02042F40012C3F81E
S214401920B020D3F8C02042F40012C3F8C020D3F849
S214401930D02042F40012C3F8D0207047000E0E406C
S214401940234B02221A625A6AD3F89C20214AC3F8D3
S214401950A020214B1A68214BA3FB02135B0803EB24
S2144019604303D31A012B29D01BB3022B2BD0184B81
S21440197047F23052C3F8B020194AC3F8B8200022C4
S214401980C3F8AC20C3F8B420C3F8BC20C3F8C020CA
S214401990C3F8C420D3F8902042F00102C3F8902048
S2144019A0DA6842F00202DA60DA6942F00202DA618C
S2144019B07047074B0B4AC3F8A420D8E7044B0A4AA3
S2144019C0C3F8A420D3E7024B084AC3F8A420CEE7C6
S2144019D000800740680F0E400C054020ABAAAAAA1C
S2144019E00130042210AF43209005402050DA4120B9
S2144019F0034AD2F8543143F00103C2F854317047D9
S214401A00000E0E40034AD2F8543123F00103C2F8C8
S214401A1054317047000E0E4008B50F4B98470A20C9
S214401A200E4B98470E4B4FF48062C3F880214021FE
S214401A3083F80A131A600B4B98470B4B98470B4B8F
S214401A4098470B4B98470B4B98470B4B00221A7402
S214401A5001225A6008BD00BF051A40009D1F400085
S214401A6000E100E0551840008D184000691840001D
S214401A70A1184000F11840007805402008B53B4BBF
S214401A801B6813F4804F09D0394B1B7813B1394B80
S214401A901B7823B9374B1B78002B5AD108BD00233F
S214401AA0334A1370334A1370334B9847334B1A6894
S214401AB0334BA3FB02135B0803EB4303D31A012B00
S214401AC02BD0E3B1022B36D000232E4A13602B4A8C
S214401AD01168013111602C490B602C490B602C4B6E
S214401AE01B68126802339342D8D30123214A1370ED
S214401AF01F4A1370274B9847274B984708BD1F4BE4
S214401B001968264B264A99501E4A1168254A99500C
S214401B101E4A1168244A9950D6E7184B1968234B39
S214401B201F4A9950174A11681E4A9950174A116819
S214401B301D4A9950C8E7114B19681D4B184A9950D1
S214401B40104A1168174A9950104A1168164A995017
S214401B50BAE70122064B1A7000230A4A13600A4A63
S214401B6013600C4B98470C4B984797E7200540204E
S214401B700805402028054020051A40000C05402056
S214401B80ABAAAAAA140540201C05402030054020D8
S214401B902405402041194000F119400010AF432071
S214401BA0BCD40100B4D40100B0D40100900540205C
S214401BB050DA412008B50A4BDA6C0A4B1A601B68AB
S214401BC013F4001F04D0084B1B78DBB2012B02D065
S214401BD0064B984708BD064A136801331360F7E77B
S214401BE0000E0E4020054020080540207D1A40008B
S214401BF0140540202DE9F84F04460D46334F4FF06C
S214401C000078C7F83080F320314EB047C7F83480AC
S214401C10F320B0474FF0090B3E464FF48009CA46C2
S214401C204FF0F3082A4F0FE04FF40013736340461B
S214401C30B847C6F830904046B8476400A4B20BF1A7
S214401C40FF3313F0FF0B08D0C6F834A014F4807F9F
S214401C50EAD04FF400133363E9E71C4C4FF4800797
S214401C6067634FF400132363F320194EB04767634E
S214401C70F320B0471024154EB946BA464FF0F30845
S214401C80134F0EE04FF4001333634046B847C6F890
S214401C9030904046B8476D00ADB2631E13F0FF0467
S214401CA008D0C6F834A015F4004FEBD14FF400131B
S214401CB07363EAE7054C4FF480032363F320044B39
S214401CC098474FF000732363BDE8F88F00140E402A
S214401CD0010040202DE9F0470546334E4FF000778F
S214401CE03763F320314CA0477763F320A04709249D
S214401CF04FF48009CA464FF0F3082C4F0EE04FF4DD
S214401D00001373634046B847C6F830904046B8471D
S214401D106D00ADB2631E13F0FF0408D0C6F834A0C1
S214401D2015F4807FEBD04FF400133363EAE71E4C84
S214401D304FF4800666634FF400136363F3201B4D35
S214401D40A8472663F320A8476663F320A847266380
S214401D50F320A8476663E06BC0F30058F320A8471B
S214401D602663F320A8470F240F4D37466F63E86B72
S214401D70C0F3005040EA48001FFA80F8F320DFF82E
S214401D802C90C8472E63F320C847631E13F0FF0409
S214401D90ECD1054B4FF480025A634FF000721A6341
S214401DA04046BDE8F08700BF00140E4001004020CA
S214401DB0024A136801331360704700BF3405402061
S214401DC00022064B1A60064B06495960E020064939
S214401DD081F823009A6007221A6070473405402035
S214401DE010E000E07F32020000ED00E0014B186892
S214401DF0704700BF34054020814202D2091A481E6F
S214401E007047081A7047000010B51048104B9847A6
S214401E103E2100200F4B98470F4CA0470028FCD08F
S214401E200E4B98470E4A0F4B9A620F4CA04700281D
S214401E30FCD002200D4B984700200D4B98470D4B89
S214401E4098470D48024B984710BD00BF00A3E111CC
S214401E5049234000191F40006D1F40007D1F400071
S214401E60013F0B2000060E408D1F40007D1E4000A7
S214401E70B51E40003D22400000449508032811D07E
S214401E80042812D002280CBF4FF480710021084A63
S214401E90136B23F440730B431363936E13F0080FD6
S214401EA0FBD070474FF44071F1E74FF40071EEE716
S214401EB000060E40174A136B23F070031843106356
S214401EC0936E13F0080F0AD14FF4805311498A6E6F
S214401ED012F0080F03D1013BF9D1012070470D4A9B
S214401EE0136B23F0030343F002031363936E13F064
S214401EF0080F0AD14FF4805306498A6E12F0080F35
S214401F0005D1013BF9D101207047002070470020E1
S214401F10704700BF00060E40A0B90E48036A09028B
S214401F2089B20D4A1A400D4B1343194301620246CB
S214401F30936E13F0010FFBD0064A116A084B0B4311
S214401F401362704703490B6A064A1A40064B13430E
S214401F500B62704700060E40FCFFC8FF01003700CA
S214401F6000003701FCFFC8FE02003701024B986EA6
S214401F7000F48030704700BF00060E404FF000521D
S214401F80014B9A62704700BF00060E40024B986EA7
S214401F9000F00200704700BF00060E403F281ED8E3
S214401FA01F280CD8114B9A6901238340934318D0BD
S214401FB0012303FA00F00D4B1861002070472038CB
S214401FC00A4BD3F808210123834093430BD00123C7
S214401FD003FA00F0054BC3F80001002070470120CB
S214401FE07047002070470020704700BF00060E4034
S214401FF0104B99421BD84900B2FBF1F2043AFF2A33
S21440200013D9002301335208FF2A01D9062BF9D9E8
S214402010D1B241F0E051120292B20A431B0403F4DB
S214402020E02313430361002070470023F0E70120BC
S214402030704700BF801A060008B54FF0FF32826234
S214402040026A80220260026B08220260202202603E
S214402050042202600A684968034B9847012814BF67
S2144020600020012008BD00BFF11F400000EB811199
S214402070CB6D53680B6693684B66136823F07F43BB
S2144020800B671369C3F30B034B675369CB679369BD
S21440209023F07F43C1F88030D36923F07F43C1F8F3
S2144020A08430D3688B677047334B4FF080521A6644
S2144020B0C3F890205A655A62C3F88020196F21F001
S2144020C080511967596F114359675A604FF0007233
S2144020D01A66C3F890205A655A62C3F88020196F72
S2144020E011431967596F114359675A604FF0804240
S2144020F01A66C3F890205A655A62C3F88020196F52
S21440210021F080411967596F114359675A604FF063
S21440211000421A66C3F890205A655A62C3F8802077
S214402120196F21F000411967596F114359675A607A
S2144021304FF080621A66C3F890205A655A62C3F818
S2144021408020196F21F080611967596F11435967D4
S2144021505A604FF000621A66C3F890205A655A6279
S214402160C3F88020196F21F000611967596F114339
S21440217059675A60704700BF000E0E40FEE70000E9
S21440218008B5234B234A9A4210D0234B204A9A4202
S2144021900CD2013B9B1A23F00303043313441D491E
S2144021A051F8040B42F8040B9A42F9D11B4B1C4AD7
S2144021B09A420AD2013B9B1A23F00303043313448A
S2144021C0002142F8041B9342FBD1164A164B23F0DB
S2144021D07F039360EFF3108372B6BFF35F8F0021E7
S2144021E0124A117012490A6842F470020A60BFF33C
S2144021F04F8FBFF36F8F2BB901220C4B1A70BFF372
S2144022005F8F62B60B4B98470B4B9847FEE700BF75
S214402210000040205C2A400044044020FC834520C7
S2144022204804402000ED00E0000040001000402040
S21440223088ED00E089274000612440003B4B1B6B43
S21440224003F00303012B1DD083B1022B36D0374B4E
S2144022501B6B03F07003702B5FD0344B1A6B344902
S214402260C2F302120B68D3400B607047314B5B6978
S21440227013F0800F14BF4FF400424FF4FA422C4B39
S2144022801A60E4E7294B1B6A13F0807F03D02A4A82
S214402290274B1A60DBE7294A254B1A60234B1B6AFB
S2144022A003F07003102B05D0202BD0D1224A204BB0
S2144022B01A60CCE7224A1E4B1A60C8E71B4B1B6AC3
S2144022C013F0807F16D01C4A194B1A60174B1B6BB5
S2144022D003F00303022BBAD1144A916A926A144857
S2144022E0C1F30A41036801FB0333D2B2B3FBF2F3F6
S2144022F00360ACE7114A0E4B1A600C4B1B6A03F0A6
S2144023007003102B05D0202BE0D10B4A084B1A60E7
S214402310DCE70B4A064B1A60D8E7054A13680949BA
S214402320A1FB03135B081360704700BF00060E4016
S2144023301400402010180E40001BB70000093D0056
S21440234000127A00ABAAAAAA124B984211D9124B95
S214402350984213D9114B984214D9114B984215D92B
S214402360104B984294BF4FF004220F4A0F4B1A600E
S21440237070474FF080620D4B1A6070470C4A0B4B0B
S2144023801A6070470B4A094B1A6070470A4A074B57
S2144023901A607047FF2C3101FF596202FF86930393
S2144023A0FFB3C404FFE0F50500050004000C0E4032
S2144023B000010004000200040003000408B5064BB8
S2144023C098470648064B9847064B9847064B98470B
S2144023D0064B984708BD00BF3D12400040B403007E
S2144023E00100402081124000A112400041174000E9
S2144023F0194B4FF400121A61C3F8A0204FF4800224
S2144024001A61C3F8A0204FF000711961C3F8A010FC
S2144024104FF480105861C3F8A00019635A63022134
S2144024201961C3F8A0105963A3F5C06301221A616D
S214402430C3F8A0201A63094A1161C2F8A01051637C
S21440244004211161C2F8A01051634FF480225A61F2
S214402450C3F8A0205A63704700140E4000100E4088
S2144024602DE9F84F4FF40042994B5A600122994BA0
S2144024701A70BFF35F8F62B6974B9847974B984753
S2144024800A20974CA0470B20A0471020A047954B0A
S2144024909847954B98470A20A0470B20A047102006
S2144024A0A047924B9847924B9847924B9847924BEF
S2144024B098470820914B984745F20403984209D024
S2144024C08F4B984700208F4B9847F8B18E4C8F4ED5
S2144024D08F4D14E08C4BDB6B13F0020F03D00222BF
S2144024E0894B5A63ECE70222874B1A63E8E70223DC
S2144024F023633046A8470020824B984730B1E36BB1
S21440250013F0020FF3D002236363F2E70020814BFF
S2144025109847092827D002227B4B5A630A20704BE3
S21440252098477D4B4FF000721A61C3F8A0204FF0D9
S21440253000421A61C3F8A0204FF080621A61C3F8C7
S214402540A0204FF000621A61C3F8A0204FF08042EE
S2144025501A61C3F8A0204FF080525A61C3F8A020F9
S2144025600020BDE8F88F0222674B1A6300206B4BB1
S21440257098476B48664B98476A4B98476A4B1B6828
S214402580FE2B02D90022684B1A60674B1A686749CF
S2144025906748684B9847684B9847684B984742F659
S2144025A0C6524FF480610020654B9847654B98476C
S2144025B0654B18600123654A13700421644A116311
S2144025C0A2F50072136302224F4B1A634FF48068E1
S2144025D00024DFF8B0A15C4F5A4E5E4D33E05E4BB0
S2144025E01B68A3F10209D7F800B0B0470146584629
S2144025F0A8475A4B43F82900A5211846584B9847F8
S2144026000020584B98470134574B1C6001224F4BD3
S2144026101A70564BA3FB04231B09322202FB1343BA
S214402620002B45D0D7F80090B04701464846A8470B
S2144026304F4B1A684FF47A7303FB02F398423FD22B
S21440264000224C4B1A60DAF800309C42EAD24A4BE1
S214402650A3FB04235B0803EB4303E31A012B15D0CB
S214402660002BBCD0022BCBD13B4B1B68A3F10209FD
S214402670D7F800B0B04701465846A8473F4B43F806
S2144026802900A5211846364B9847B9E7324B1B68B8
S214402690A3F10209D7F800B0B04701465846A8470C
S2144026A0374B43F82900A52118462D4B9847A7E7F6
S2144026B042F6C652904441460020214B9847B1E727
S2144026C00222114B5A630122A3F5C0635A63FEE708
S2144026D050180E4010004020091E4000A92040001F
S2144026E09D1F4000AD174000C11D4000F123400033
S2144026F0E511400051114000BD234000D51C40006C
S2144027007D0240009D02400000140E40780A2500DD
S21440271001004020F9084000000E0E401D09400010
S214402720670B3C07F1174000100540203805402055
S2144027300000024035114000191A40008117400041
S214402740A50A4000ED1D4000D083452028054020C6
S21440275000100E40F91D4000302A400010AF4320C4
S214402760310B4000590B4000240540201F85EB519B
S214402770180540202C054020ABAAAAAA50DA4120D2
S214402780900540200C05402070B50F4E0F4D761B2F
S214402790B61018BF002405D0013455F8043B9847BE
S2144027A0A642F9D10A4E0B4D761B00F045F9B610FD
S2144027B018BF002406D0013455F8043B9847A6427B
S2144027C0F9D170BD70BD00BF442A4000442A400085
S2144027D04C2A4000442A400070B4860746D0541E17
S2144027E0002A41D0CAB2034602E014F1FF343BD37C
S2144027F003F8012B9D07F8D1032C2ED9CDB245EA1C
S21440280005250F2C45EA054519D903F11002264641
S214402810103E0F2E42F8105C42F80C5C42F8085C02
S21440282042F8045C02F11002F2D8A4F1100222F041
S2144028300F0204F00F041032032C13440DD91E4629
S2144028402246043A032A46F8045BFAD8221F22F0AE
S21440285003020432134404F003042CB1C9B21C44EE
S21440286003F8011B9C42FBD170BC704714460346DC
S214402870C2E700BF024B13B1024800F005B87047EC
S2144028800000000095284000002301461A461846DE
S21440289000F01EB838B50A4C0A4D641BA4100AD086
S2144028A004F18043013B05EB8305013C55F80439B0
S2144028B09847002CF9D1BDE8384000F0C7B800BFB3
S2144028C05C2A4000582A4000704700BF704700BF4F
S2144028D02DE9F8432C4D0646286898460F46914603
S2144028E0FFF7F2FF294B1C68D4F84831002B3ED046
S2144028F05A681F2A1CDC02F1010E76B103EB8201F6
S2144029000124C1F88890D3F8880194402043022ED1
S214402910C3F88801C1F8088123D00232C3F804E026
S214402920286843F82270FFF7D1FF0020BDE8F883FF
S214402930174B0BB34FF4C870AFF300800346D8B1C3
S214402940D4F848210260002141600A46C4F8480194
S2144029504FF0010EC0F88811C0F88C11002EDCD064
S214402960CCE7D3F88C110C43C3F88C41D5E704F57B
S214402970A673C4F84831BBE72868FFF7A7FF4FF0B7
S214402980FF30BDE8F88300BF40044020342A4000B2
S21440299000000000000000000A0000000C000000DC
S2144029A00D0000000F000000140000001A00000098
S2144029B01E00000023000000280000002D0000003C
S2144029C034000000370000003C00000046000000D5
S2144029D0500000000A00000064000000E803000009
S2144029E0102700000000000000000000000000006B
S2144029F0000000000A0000000C0000000D0000006F
S214402A000F00000014000000190000001E00000027
S214402A1023000000280000002D00000032000000C7
S214402A20370000003C000000460000005000000058
S214402A303075000018004020F8B500BFF8BC08BC50
S214402A409E4670477528400065014000F8B500BFB7
S210402A50F8BC08BC9E46704741014000A0
S214402A5CBFF35F8F0138FBD17047000001000000C8
S214402A6C0100000000093D00000000000403402067
S214402A7C6C034020D40340200000000000000000FF
S214402A8C00000000000000000000000000000000F5
S214402A9C00000000000000000000000000000000E5
S214402AAC00000000000000000000000000000000D5
S214402ABC00000000000000000000000000000000C5
S214402ACC00000000000000000000000000000000B5
S214402ADC00000000000000000000000000000000A5
S214402AEC0000000000000000000000000000000095
S214402AFC0000000000000000000000000000000085
S214402B0C0000000000000000000000000000000074
S214402B1C01000000000000000E33CDAB34126DE611
S214402B2CECDE05000B00000000000000000000007A
S214402B3C0000000000000000000000000000000044
S214402B4C0000000000000000000000000000000034
S214402B5C0000000000000000000000000000000024
S214402B6C0000000000000000000000000000000014
S208402E9CD88345202D
S80440218119
