S01E00004D696E6973636F70652D76342D776972652D667265652E73726563D5
S113000020940320E9020000E5020000E50200005C
S1130010E5020000E5020000E50200000000000027
S1130020000000000000000000000000E5020000E5
S1130030E502000000000000E5020000E502000007
S1130040E5020000E5020000E5020000E502000010
S1130050E5020000E5020000E5020000E502000000
S1130060E5020000E5020000E5020000E5020000F0
S1130070E5020000E5020000E5020000E5020000E0
S1130080E5020000E5020000A51F0000B11F00000A
S1130090E5020000BD1F0000E5020000E5020000CB
S11300A0E5020000E5020000C91F0000E5020000AF
S11300B0E5020000E5020000E5020000451D000025
S11300C0511D00005D1D0000691D0000751D00002C
S11300D0E5020000E5020000E5020000E502000080
S11300E0E5020000E502000000000000000000003E
S11300F00000000021220000E5020000E5020000EB
S1130100E5020000E5020000E5020000E50200004F
S1130110E5020000E5020000E5020000E50200003F
S1130120E5020000E5020000E5020000E50200002F
S1130130E5020000E5020000E5020000E50200001F
S1130140E5020000E50200001D2D0000312D000035
S1130150452D0000592D00000000000000000000A3
S1130160000000000000000000000000000000008B
S1130170000000000000000000000000000000007B
S1130180E5020000E5020000E5020000E5020000CF
S113019000000000E5020000E5020000E5020000A6
S11301A0E5020000E5020000E5020000E5020000AF
S11301B0E5020000E5020000E5020000E50200009F
S11301C0E5020000E5020000E5020000E50200008F
S11301D0E5020000E5020000E5020000E50200007F
S11301E0E5020000E5020000E5020000193300000A
S11301F02D330000E5020000E5020000E5020000E6
S1130200E50200000000000000000000E50200001C
S1130210E5020000E5020000E5020000E50200003E
S1130220E5020000E5020000E5020000E50200002E
S1130230E5020000E5020000E5020000E50200001E
S1130240E5020000F5210000E5020000E5020000DF
S1130250E5020000E5020000E5020000E5020000FE
S11302600000000010B5054C237833B9044B13B1DA
S11302700448AFF300800123237010BD4000002028
S113028000000000E45700000C4B43B10C480D493A
S113029010B5AFF300800C48036823B910BD0A48B9
S11302A0036833B97047094B002BF7D0BDE8104001
S11302B01847064B002BF5D0184700BF000000007C
S11302C0E457000044000020E45700000000000050
S11302D008B5024B9847024B984708BDE509000052
S11302E045500000FEE7000008B5154B154A9A4238
S11302F009D0134B134A03E0116819600433043224
S113030011498B42F8D3114B02E000221A600433E6
S11303100F4A9342F9D30F4B0F4A22F07F029A609F
S1130320D3F8882042F47002C3F88820BFF34F8FBB
S1130330BFF36F8F094B9847094B9847FEE700BFFF
S113034000000020E45700003C0000204000002092
S11303502094022000ED00E0000000007153000032
S11303604942000008B5084A536943F40043536105
S11303704022064BC3F8A420054B98470246054982
S11303800548064B984708BD00080040001C004083
S1130390D5320000003C0040480700206D130000E7
S11303A00C4B04225A6002F180429A624FF04042A0
S11303B09A6293F8422002F0FE0242F0010283F8AE
S11303C0422093F8312002F0F00242F0010283F857
S11303D03120704700800041044A136A43F08003CF
S11303E013624022024BC3F82021704700080040EA
S11303F0001C004008B5054B9847054B9847002260
S113040004490548054B984708BD00BFD9030000BF
S1130410A1030000001C0043D8060020410C00008A
S113042008B540223F4BC3F890203F4A536943F438
S1130430806353613D4B4FF48002C3F884203C49F0
S1130440C3F8A8103B4AC3F8A82093F8D62002F0BA
S1130450FB0283F8D62093F8D62002F0FE0242F085
S1130460010283F8D62093F8BB2002F0F00283F84F
S1130470BB204FF40002C3F88420C3F8A8102E4A0E
S1130480C3F8A82093F8D72002F0FB0283F8D72002
S113049093F8D72002F0FE0242F0010283F8D7203D
S11304A093F8BB2002F00F0283F8BB204FF00072D8
S11304B05A609962214A9A6293F8592002F0FB0229
S11304C083F8592093F8592002F0FE0242F0010209
S11304D083F8592093F83C2002F00F0283F83C2063
S11304E04FF48042C3F88420154AC3F8A820154A63
S11304F0C3F8A82093F8CE2002F0FB0283F8CE20A4
S113050093F8CE2002F0FE0242F0010283F8CE20DE
S113051093F8B72002F0F00283F8B7200A4B98470B
S113052008BD00BF001C00400008004000800041DE
S113053000000240400002C0800002C0000202C06D
S113054000400240000002C0390E0000584B93F8EE
S11305504E2002F0FE0242F0010283F84E2093F88E
S1130560372002F0F00242F00A0283F8372093F8B1
S1130570502002F0FE0242F0010283F8502093F86A
S1130580382002F0F00242F00A0283F8382093F88F
S1130590512002F0FE0242F0010283F8512093F848
S11305A0382002F00F0242F0A00283F8382093F8BA
S11305B0522002F0FE0242F0010283F8522093F826
S11305C0392002F0F00242F00A0283F8392093F84D
S11305D0532002F0FE0242F0010283F8532093F804
S11305E0392002F00F0242F0A00283F8392093F878
S11305F0542002F0FE0242F0010283F8542093F8E2
S11306003A2002F0F00242F00A0283F83A2093F80A
S1130610552002F0FE0242F0010283F8552093F8BF
S11306203A2002F00F0242F0A00283F83A2093F835
S1130630562002F0FE0242F0010283F8562093F89D
S11306403B2002F0F00242F00A0283F83B2093F8C8
S1130650572002F0FE0242F0010283F8572093F87B
S11306603B2002F00F0242F0A00283F83B2093F8F3
S11306704C2002F0FE0242F0010283F84C2093F871
S1130680362002F0F00242F00A0283F8362093F892
S11306904D2002F0FE0242F0010283F84D2093F84F
S11306A0362002F00F0242F0A00283F83620704791
S11306B000800041024A136A43F4006313627047E6
S11306C00008004008B5044B984704490448054B0A
S11306D09847054B984708BDB5060000002C004319
S11306E0C4060020650D00004D050000064B4022A5
S11306F0C3F80C214322C3F88C20044A136A43F044
S113070002031362704700BF001C00400008004051
S1130710104B93F8D02002F0FE0242F0010283F85D
S1130720D02093F8B82002F0F00242F0020283F8DD
S1130730B82093F8D12002F0FE0242F0010283F8BF
S1130740D12093F8B82002F00F0242F0200283F87F
S1130750B82070470080004110B582B0064B98471E
S1130760002300931023054A05490648064CA04778
S1130770064B984702B010BDED0600005C00002057
S113078000040043DC060020E91500001107000006
S113079070B45B4B4FF40065C3F88850594EC3F8EE
S11307A0A8604FF04042C3F8A820C3F8945093F8CF
S11307B0CB1001F0FB0183F8CB1093F8CB1001F0C0
S11307C0FE0141F0010183F8CB1093F8B51001F05C
S11307D00F0141F0800183F8B5104FF480719960E6
S11307E0494898629A62596193F8481001F0FB01F4
S11307F083F8481093F8481001F0FE0141F001011C
S113080083F8481093F8341001F0F00141F0080126
S113081083F834104FF40071996000F58070986289
S11308209A62596193F8491001F0FB0183F8491069
S113083093F8491001F0FE0141F0010183F84910D9
S113084093F8341001F00F0141F0800183F8341063
S11308504FF4806098602D4C9C629A62586193F8C2
S11308604A1001F0FB0183F84A1093F84A1001F092
S1130870FE0141F0010183F84A1093F8351001F0AC
S1130880F00141F0080183F835109D609E629A6280
S11308905D6193F84B1001F0FB0183F84B1093F862
S11308A04B1001F0FE0141F0010183F84B1093F865
S11308B0351001F00F0141F0800183F83510C3F8C1
S11308C08800C3F8A840C3F8A820C3F8940093F89C
S11308D0CA2002F0FB0283F8CA2093F8CA2002F06F
S11308E0FE0242F0010283F8CA2093F8B52002F018
S11308F0F00242F0080283F8B52070BC704700BFD4
S11309000080004100080040000100400004004055
S1130910054A136943F400431361044B4022C3F8AE
S11309203421C3F88C20704700080040001C0040AC
S113093008B5054B98474FF08A410448044B984743
S1130940044B984708BD00BF110900003007002080
S11309503D0F00009107000008B50248024B98477C
S113096008BD00BF10E000E0A10D0000084A92F8A5
S1130970DE3003F0FE0343F0010382F8DE3092F828
S1130980BF3003F0F00343F0040382F8BF30704734
S113099000800041044A536943F480435361402278
S11309A0024BC3F8A420704700080040001C00401C
S11309B008B5064B9847064B9847064B984702469E
S11309C005490648064B984708BD00BF9509000035
S11309D06D090000D932000000380040A80600204C
S11309E00512000070B5884B9847884B10225A6155
S11309F09A6002F180429A624FF040429A6293F800
S1130A00441001F0FE0183F8441020255D619D60CF
S1130A107F4999629A6293F8451001F0FE0183F8C8
S1130A2045104021596001F1804101F5003199627E
S1130A307848986293F8461001F0FB0183F8461059
S1130A4093F8461001F0FE0183F8461080215960A6
S1130A5001F1804101F500319962986293F84710E1
S1130A6001F0FB0183F8471093F8471001F0FE01F1
S1130A7083F847104FF4004159619960664C9C62B9
S1130A809A6293F84F6006F0FE0683F84F604FF0C9
S1130A9080765E619E604FF080469E625F4E9E62ED
S1130AA093F8586006F0FE0683F858600126C3F8F0
S1130AB09460C3F8886006F18046C3F8A860C3F860
S1130AC0A82093F8C06006F0FE0683F8C0600226F2
S1130AD0C3F89460C3F8886006F18046C3F8A86040
S1130AE0C3F8A82093F8C16006F0FE0683F8C1603D
S1130AF00426C3F89460C3F8886006F18046C3F8FE
S1130B00A860C3F8A82093F8C26006F0FE0683F834
S1130B10C260C3F8845005F1804505F50035C3F87B
S1130B20A850C3F8A80093F8C50000F0FB0083F8B0
S1130B30C50093F8C50000F0FE0083F8C5004FF42B
S1130B400070C3F89400C3F8880000F18040C3F833
S1130B50A800C3F8A82093F8C90000F0FE0083F8A9
S1130B60C9004FF48050C3F89800C3F8880000F11E
S1130B708040C3F8A800C3F8A82093F8CC0000F084
S1130B80FE0083F8CC004FF40050C3F89400C3F87F
S1130B90880000F18040C3F8A800C3F8A82093F8A7
S1130BA0CD0000F0FE0083F8CD00C3F88810C3F830
S1130BB0A840C3F8A820C3F8941093F8CF2002F0FB
S1130BC0FB0283F8CF2093F8CF2002F0FE0242F01C
S1130BD0010283F8CF2093F8B72002F00F0242F00D
S1130BE0C00283F8B7200E4B98470E4B98470E4B24
S1130BF098470E4B98470E4B98470E4B98470E4B11
S1130C0098470E4B984770BD851A0000008000413C
S1130C1020000040000002C000800040000100C02D
S1130C20F503000021040000C50600005907000078
S1130C303109000059090000B109000065030000F2
S1130C4038B50C46054660B149B101203922064940
S1130C50064B984721462846054B984738BD002047
S1130C60F4E70020F2E700BFC85300007D1600003F
S1130C70AD19000038B50D4604464E220549003032
S1130C8018BF0120044B984729462046034B984738
S1130C90002038BDC85300007D160000E51900008F
S1130CA02DE9F0470D46904699460746C8B1D2B1A2
S1130CB0DBB90020DFF884A0672251461A4EB04702
S1130CC03C463846194B9847074699FBF0F007FB1A
S1130CD0109069225146B0FA80F04009B0470026CE
S1130CE009E00020E6E70020E4E70120E2E73E44D3
S1130CF0B6B2B14515D920460D4B98472946204632
S1130D000C4B98470028F9D0294620460A4B9847AF
S1130D1008F80600012FEAD9731C000A08F803003A
S1130D20E5E73046BDE8F0877D160000FB190000BA
S1130D301B1A00000F1A0000311A0000C8530000EB
S1130D40EFF31083036072B6BFF35F8F7047BFF396
S1130D505F8F036883F31088704708B5036903B194
S1130D60984708BD38B50D46044678B161B10120F5
S1130D7032220749074B984729462046064B984795
S1130D80064B2360002038BD0020F1E70020EFE788
S1130D90E45300007D160000BD2100005B0D00003F
S1130DA008B5024B1860024B984708BD6C00002040
S1130DB0812D000010B5044B1C68044B9847014674
S1130DC02046034B984710BD6C000020591A0000C0
S1130DD08D2D000010B5044B1C68044B9847014648
S1130DE02046034B984710BD6C000020751A000084
S1130DF08D2D000038B50425002407E00D4A52F873
S1130E003330B3B1984738BD013AD5B2AC4210D8AB
S1130E102B195B10DAB2032A0BD81346054901EBF0
S1130E20C20149688142E9D08142EDD20132D4B293
S1130E30ECE738BD7000002008B500230AE0084A3A
S1130E4002EBC3014FF0FF304860002142F8331039
S1130E5001339BB2032BF2D90248034B984708BDD8
S1130E6070000020F50D0000451E0000F0B583B0B1
S1130E7004460023032B0ED818462E4A02EBC30265
S1130E805268A24202D00133DBB2F3E7294B43F8A4
S1130E903010012700E0002759B1002F3DD1002375
S1130EA0032B13D8234A52F8332042B10133DBB267
S1130EB0F6E7002F38D020461F4B984732E01D4AF2
S1130EC042F8331002EBC30254600127002201E010
S1130ED00132D2B2032A20D8032B1ED89E461549CC
S1130EE001EBC300406801EBC20149688842EFD2BC
S1130EF0B1F1FF3FECD00F4E06EBC20595E80300BD
S1130F008DE8030006EBC30696E8030085E80300BA
S1130F109DE8030086E80300DAE747B10121204693
S1130F20054B984703B0F0BD6FF00C00FAE76FF083
S1130F300C00F7E7700000204D1F000038B50C4688
S1130F40054660B149B1012031220649064B984754
S1130F5021462846054B984738BD0020F4E7002079
S1130F60F2E700BF045400007D160000792400005D
S1130F70F0B583B00D4616461F4604464422084980
S1130F80003018BF0120074B98479DF8203000938C
S1130F903B46324629462046034CA04703B0F0BDE9
S1130FA0045400007D160000E124000038B50D460D
S1130FB004464D220549003018BF0120044B9847D0
S1130FC029462046034B984738BD00BF045400000F
S1130FD07D1600007525000038B50D4604465622DE
S1130FE00549003018BF0120044B98472946204684
S1130FF0034B984738BD00BF045400007D16000021
S11310007925000010B5044660220549003018BF58
S11310100120044B98472046034B984710BD00BF5E
S1131020045400007D1600008325000010B504461A
S113103069220549003018BF0120044B9847204617
S1131040034B984710BD00BF045400007D160000F8
S11310508D25000070B50D461646044672220649D9
S1131060003018BF0120054B9847324629462046D8
S1131070034B984770BD00BF045400007D16000068
S1131080C525000010B504467B220549003018BF71
S11310900120044B98472046034B984710BD00BFDE
S11310A0045400007D1600001D26000038B50C46CF
S11310B0054660B149B1012084220649064B984790
S11310C021462846054B984738BD0020F4E7002008
S11310D0F2E700BF045400007D160000492600001A
S11310E010B5014CA04710BD89230000F0B583B0B2
S11310F00D4616461F46044696220A49003018BF7C
S11311000120094B98479DF824300193BDF8203005
S113111000933B46324629462046044CA04703B080
S1131120F0BD00BF045400007D160000A12600009D
S113113070B50C461646054668B151B10120BB2274
S11311400649074B9847324621462846054B98479F
S113115070BD0020F3E70020F1E700BF0454000055
S11311607D1600000D29000070B50C461646054694
S113117068B151B10120C4220649074B9847324651
S113118021462846054B984770BD0020F3E7002010
S1131190F1E700BF045400007D1600008D29000013
S11311A010B50446CD220549003018BF0120044B78
S11311B098472046034B984710BD00BF04540000D5
S11311C07D1600000D2A000010B50446D6220549FC
S11311D0003018BF0120044B98472046034B984722
S11311E010BD00BF045400007D160000352A000025
S11311F008B5436903B1984708BD08B5836903B1CD
S1131200984708BD38B50D46044688B171B1012030
S113121033220849084B984729462046074B9847EC
S1131220074B2360074B6360002038BD0020EFE7C5
S11312300020EDE7205400007D16000089300000F6
S1131240F1110000FB11000010B504464A220949BF
S1131250003018BF0120084B98472046074B984799
S113126020B92046064B9847002010BD6FF01000AF
S113127010BD00BF205400007D160000C3320000E2
S11312801D32000070B50D46164604467C22064900
S1131290003018BF0120054B9847324629462046A6
S11312A0034B9847002070BD205400007D160000B9
S11312B031320000F8B5076817B13C4600260BE050
S11312C00E4B9847F8BDA5682B449B1A01338D68D3
S11312D0AB4209D22646246834B163689342F2D8FB
S11312E0A5689B1A2B44F2E7BC4203D03046044B5A
S11312F09847F8BD014B9847F8BD00BF9916000008
S1131300C5160000F8B54469066901360661037E16
S113131013F0010F05D1037E13F0020F01D105462E
S113132009E0037E43F002030376F8BD6F69E368C6
S1131330204698473C469CB16368F31AA2689342DE
S11313400ED305F114073846064B9847237C012B2E
S1131350ECD16660324621463846034B9847E5E7B0
S1131360F8BD00BFCD160000B512000038B50D461B
S1131370044680B169B101203B220849084B9847D3
S113138029462046074B984700202061064B2360DE
S113139038BD0020F0E70020EEE700BF385400001D
S11313A07D160000B52E00000513000010B504469C
S11313B053220949003018BF0120084B98472046A2
S11313C0074B984720B92046064B9847002010BD8C
S11313D06FF0100010BD00BF385400007D160000EF
S11313E0B13200000932000070B582B00D460446E7
S11313F020B309B301207A221F49204B9847237E4A
S113140043F00103237604F11406294630461C4BAD
S11314109847A8B923696B60226929463046194B5D
S11314209847237E03F0FE032376237E13F0020FF6
S113143012D1002002B070BD0020DCE70020DAE702
S1131440237E03F0FE0323767F220B4900200B4BFF
S113145098476FF01100EDE701A80B4B9847237EE6
S113146003F0FD0323762046084B984701A8084B58
S113147098470020DEE700BF385400007D160000C6
S113148083160000B5120000410D0000DD3200009B
S11314904F0D000008B500238362C3691BB1A0F19E
S11314A008021046984708BD08B500238362436AC2
S11314B01BB1A0F108021046984708BD38B5044690
S11314C0A0F108052C30034B9847236A0BB128463A
S11314D0984738BD6917000070B50E461546044696
S11314E0D8B1E1B1EAB9002040F23B120F49104BE8
S11314F09847B4F84420B4F84C309A4213D1A66407
S1131500A4F84C500023A4F844300123236304F1CD
S11315100800084B9847284670BD0020E4E70020E7
S1131520E2E70120E0E76FF01B0070BD50540000BB
S11315307D1600000B2D000010B50446838FB0F813
S11315404420934209D0026C591C8187D15C044B1E
S113155098472046034B984710BD034B984710BD4E
S1131560052D00000B2D0000132D00002DE9F04186
S113157082B0884616460546A0B1A9B1B2B900208A
S11315804FF4AC721249134B984701A8124B984779
S113159034352846114B9847074601A8104B984705
S11315A000240BE00020EBE70020E9E70120E7E757
S11315B00134A4B2414428460A4B98472146A74225
S11315C001D9B442F4D3204602B0BDE8F08100BF93
S11315D0505400007D160000410D0000A9170000C2
S11315E04F0D000021170000F8B50D4616461F46A2
S11315F0044618B321B32AB333BB00203A22154959
S1131600154B98473A46314604F13400134B98473A
S1131610E0B9294604F10800114B9847034658B92C
S1131620104A6260104A2260104AA260104AE260C6
S1131630104A2261104A62611846F8BD0020DDE7B5
S11316400020DBE70020D9E70120D7E76FF00C0387
S1131650F2E700BF505400007D160000DD160000C4
S1131660812C00006D150000D9140000391500000C
S1131670BD14000095140000A914000000B900BEB8
S1131680704703681BB18B4203D01B68FAE7002044
S1131690704701207047000038B504460D46064BDC
S11316A0984780F0010039220449C0B2044B98479E
S11316B023682B60256038BD831600007054000039
S11316C07D16000003680B600160704703681BB15E
S11316D01A680260184670470020704770B50E46BD
S11316E01546044678B181B18AB9002028220A49F6
S11316F00A4B98476B1E1D420BD163600020A0600B
S1131700E060266070BD0020F0E70020EEE70120D5
S1131710ECE76FF00C0070BD905400007D160000E3
S113172038B50D460446A8B191B1012040220C49B8
S11317300C4B9847E268A3689A420DD0226861680E
S11317400B40D35C2B70A3680133A360002038BD29
S11317500020EBE70020E9E76FF0090038BD00BF87
S1131760905400007D16000038B50D460446512201
S11317700B49003018BF01200A4B98472268E368E0
S113178061680B40D554E368A2689A1A61688A427A
S113179001D9591AA1600133E360002038BD00BFAC
S11317A0905400007D16000010B5044667220549D8
S11317B0003018BF0120044B9847E068A368C01AA2
S11317C010BD00BF905400007D16000000F13D40A4
S11317D0A0F5E050C0F387207047000010B4604BC0
S11317E0984200F09C805F4B984200F0A880002251
S11317F0036B13F0010F1BD1036B13F0030FFBD129
S1131800038813F0020F0DD003889BB223F0020368
S11318109BB20380036B13F0030FFBD1036B13F034
S1131820020FFBD101230380036B13F0030FFBD1E1
S1131830036B13F0010FFBD1A0F8482016234A4A8A
S113184003FB01239B88C380036BC3F30B03002BAF
S1131850FAD11623444A03FB01239B790372036BD9
S1131860C3F30B03002BFAD116233F4A03FB0123D6
S1131870DA7982701B898380036BC3F30B03002B1B
S1131880FAD11623384A03FB01239B7A8372036B34
S1131890C3F30B03002BFAD11623334A03FB0123B2
S11318A0DB7AC372036BC3F30B03002BFAD1162349
S11318B02D4A03FB01239B898381036B13F0800F63
S11318C0FBD11623284A03FB0123DB89C381036B65
S11318D013F4807FFBD11623234A03FB01231B8AC5
S11318E00382036B13F4007FFBD116231E4A03FB10
S11318F001235B8A4382036B13F4806FFBD11622AE
S1131900194B02FB01310B7DC3704B880380036BC1
S113191013F0030FFBD100205DF8044B70474FF028
S113192080131B685A09120202F4E0621C0A2401A3
S113193004F070042243C3F382031A4358E74FF0C0
S113194080131B68DA0C120202F4E0629C0D24017D
S113195004F070042243C3F302431A4348E700BF70
S1131960001C004300200043B454000008B50B4B96
S1131970984700233BB1882209490020094B984726
S11319800023184608BD162202FB03F206498A5CAE
S11319909042F6D00133DBB2ECE700BFCD17000074
S11319A0CC5400007D160000B454000038B50C4639
S11319B00546D9220749003018BF0120064B984735
S11319C02C602046054B984701462046044B984717
S11319D038BD00BFCC5400007D1600006D19000016
S11319E0DD170000026813889BB243F002031380E2
S11319F0136B13F0030FFBD170470368DB88C3F349
S1131A00C103032B01D002207047012070470368F3
S1131A1093F82E0000F0010070470268137D43F034
S1131A2002031375136BC3F30B03002BFAD1704736
S1131A300368B3F8400080B270470000430900F027
S1131A401F00012202FA00F04033024A42F8230048
S1131A50704700BF00E100E04FF4167303FB00F091
S1131A600138034BA3FB0030C0080130704700BFAE
S1131A70CDCCCCCC4FF4167303FB00F0642303FBF2
S1131A8000F0704710B50D4A13889BB213800C4BBD
S1131A9098470C4B98470C4B98470C200B4CA0478D
S1131AA00B4B984740F6F370A0470A4A136943F476
S1131AB000731361084B984710BD00BF00400041FC
S1131AC059200000792000004D200000D51F00009F
S1131AD07D20000000080040451B000008B5174A9F
S1131AE0138C03F01F0303EB4301880014490844DB
S1131AF0128C12F4807F05D1104A128C12F4007FEC
S1131B000BD108BD1A0102F1824202F520420121E3
S1131B1082F84E104368984708BD1A0102F18242C8
S1131B2002F52042022182F84E1003EB430303FA2C
S1131B3001F2034B9B589847E3E700BF00A0004124
S1131B409000002030B43C4A13889BB223F0020377
S1131B509BB2138053889BB223F47C539BB2538073
S1131B6013889BB243F001031380334B1B8813F09B
S1131B70010FFAD1304A4FF470631380537B03F0A2
S1131B80FE035373002353612C4951632C49916321
S1131B9016E02C4A52F83350274C191D09016018DD
S1131BA0655002EBC3021179417151798171D48876
S1131BB022491A0188188C520022C2600133DBB218
S1131BC01F2BE6D900230AE003F11F010AB2002A01
S1131BD010DA002A1CDA002A24DA0133DBB2042BDF
S1131BE0F2D9154A13889BB243F0020313800020F4
S1131BF030BC7047500901F01F050124AC4020306F
S1131C00114D45F82040BFF34F8FBFF36F8FE0E7CE
S1131C10500901F01F050124AC4060300A4D45F81D
S1131C202040D8E7520901F01F01012000FA01F118
S1131C30054840F82210D0E700A0004170070020BA
S1131C4070090020E454000000E100E0024B03EBC3
S1131C50001081600020704770070020024B03EBE6
S1131C6000104160002070477007002089B2000115
S1131C70014B19520020704770070020024B03EB00
S1131C800010C1600020704770070020024B03EB76
S1131C900010408880B270477009002030B4144CA2
S1131CA00201A3189D68A35AC3F30123A25A12F494
S1131CB0006F06D001FA03F42C440D4A02EB001223
S1131CC094600B4C0201A5186D68A25A12F4806F3F
S1131CD005D001FA03F32B4404EB0012536089B2DC
S1131CE0034B03EB00104180002030BC704700BF61
S1131CF07007002010B40C4C0201A35A9BB243F0AD
S1131D000103A352094C031D1B01E25842F00202D5
S1131D10E25029B1012303FA00F022691043206143
S1131D2000205DF8044B70477007002000A00041BC
S1131D3001EB41018A00024B134403600020704709
S1131D409000002008B5014B984708BDDD1A00003B
S1131D5008B5014B984708BDDD1A000008B5014BD2
S1131D60984708BDDD1A000008B5014B984708BD27
S1131D70DD1A000008B5014B984708BDDD1A0000C4
S1131D8070B582B02A4B5A690192019A5A61294B63
S1131D901868F4222849003018BF0120274B9847BF
S1131DA04FF0FF3535E0264B03EBC6067568B5F1F9
S1131DB0FF3F03D01F4B1B68284698470123A340CD
S1131DC0019C24EA03040194019B93FAA3F4B4FA5A
S1131DD084F40BB94FF0FF34B4F1FF3F14D0042066
S1131DE0002101E0013BD8B28142E0D84318C3F39B
S1131DF047031E46124A12F83320A242D3D0A2420D
S1131E00F0DA0133D9B2EFE7094B5A690192019A2A
S1131E105A61019B4BB1019B93FAA3F4B4FA84F485
S1131E20002BD9D14FF0FF34D6E702B070BD00BF0C
S1131E300028004010020020045600007D16000017
S1131E40E45500003D4B5B6813F0010F20D13B4B80
S1131E505B6813F0030FFAD1384B1B7813F0020FB1
S1131E600ED0364A137803F0FD031370334B5B68CE
S1131E7013F0030FFAD1314B5B6813F0020FFAD160
S1131E8001222E4B1A702D4B5B6813F0030FFAD10D
S1131E902A4B5B6813F0010FFAD1284A137803F038
S1131EA0EF031370254B5B6813F0030FFAD1234B38
S1131EB000225A709A609A611A635A634FF03B4247
S1131EC0DA611F4A1A621A7842F002021A701B4B36
S1131ED05B6813F0030FFAD11A4B4FF48022C3F856
S1131EE08020BFF34F8FBFF36F8FC3F880211A6038
S1131EF04FF40022C3F88020BFF34F8FBFF36F8FDE
S1131F00C3F880211A604FF40012C3F88020BFF395
S1131F104F8FBFF36F8FC3F880211A604FF0806238
S1131F20C3F88020BFF34F8FBFF36F8FC3F88021B6
S1131F301A60054B18600020704700BF002800405D
S1131F40B000000A00E100E01002002010B40023F9
S1131F50032B0DD81C46114A02EBC302526882427D
S1131F6002D00133DBB2F3E70C4B13F8342000E06A
S1131F70FF22FF2A0FD041B901239340084AD360BE
S1131F80536100205DF8044B704701239340044AD9
S1131F9013610020F6E74FF0FF30F3E7E45500004B
S1131FA00028004008B5014B984708BD811D00007A
S1131FB008B5014B984708BD811D000008B5014BC9
S1131FC0984708BD811D000008B5014B984708BD1E
S1131FD0811D000010F0010F08D0174A174B1A6238
S1131FE0164B5A6843F6FD731A42F9D110F0020FEA
S1131FF008D0134A114B5A62104B5A6843F6FD73CA
S11320001A42F9D110F0040F08D00E4A0B4B9A6211
S11320100A4B5A6843F6FD731A42F9D110F0080FBF
S113202008D0094A054BDA62044B5A6843F6FD733B
S11320301A42F9D1704700BF07010200001C00409A
S1132040070B060005010100060110000122014BE7
S11320505A71704700080040064B42F28E229A8261
S113206000229A75DA75DA6902F47C52DA61012287
S11320701A7470470014004070470000494A136AFC
S113208023F00F0343F004031362464B5A6843F6EC
S1132090FD731A42F9D1434B5B6813F0040FFAD174
S11320A0414B00221A7742213E4AC2F880103F4A2F
S11320B09A623D4B93F82C3013F0100FF9D10022A3
S11320C0394B83F82020384B93F82C3013F0040F4D
S11320D0F9D10222344B1A77334B93F82C3013F096
S11320E0020FF9D1304B5A6A5A622F4B93F82C30B5
S11320F013F0080FF9D181222B4B83F820202A4BAF
S113210093F82C3013F0040FF9D14322254BC3F874
S113211084202722A3F540635A63234BDB6B13F01F
S1132120060FFAD1204B00229A63022283F8302052
S11321301D4BDB6B13F0020FFAD11B4B93F82030CD
S113214013F0010F27D0184B1B6903F41063B3F588
S1132150106FF8D1144B1B6C13F0010F04D1124B08
S11321601B6C13F0020FF5D00E4B5B68002BFBD1F8
S11321700C4A136A23F00F0343F007031362094B5D
S11321805A6843F6FD731A42F9D1064B5B6813F0A3
S1132190040FFAD17047044B1B6913F4807FFAD003
S11321A0D8E700BF001C004000100040B9057F7C48
S11321B008B5806803680021984708BD38B504460F
S11321C0C160074B0B60074B1860074D0021284680
S11321D0064B98472B689C60054A1A6038BD00BFBF
S11321E0200000C014020020700B0020311D0000EC
S11321F0B121000000B583B0084B1868C3681A69A0
S1132200019201229A60019B13F0010F03D003682D
S11322100BB10021984703B05DF804FB14020020C1
S113222000B583B00D4B9B78DBB20193019B13F097
S1132230020F06D00A4B1B681BB1084A5068984726
S113224009E0019B13F0010F05D0054B5B6813B146
S1132250024A5068984703B05DF804FB000002414D
S1132260740B002010B4838D13F0040F09D0446A5A
S113227014F0030FFBD1848DA4B224F00404A4B29F
S11322808485446CC4F30744002C35D1224B002AC6
S113229034D1828D92B222F0200292B28285B3FBB5
S11322A0F1F1490890F8283013F0040F01D001B976
S11322B001218AB2838DDBB243EA02239BB2838578
S11322C0C1F30F21838D9BB223F0C003890101F078
S11322D0C00119438185838D9BB243F0010383853B
S11322E0838D13F0020FFBD0838D9BB243F0040364
S11322F083855DF8044B7047084BC8E7828D92B222
S113230042F02002828504FB0333B3FBF1F1002980
S1132310C8D00139C6E700BF00A0930300D0C901AB
S113232010B5044634220649003018BF0120054B7D
S1132330984794F82F3043F0020384F82F3010BDEF
S11323401C5600007D16000010B504467F220B4980
S1132350003018BF01200A4B98474FF0FF33626AE0
S1132360591E2BB10B4612F4801FF8D0012010BD6A
S11323702046044B9847002010BD00BF1C560000A7
S11323807D16000021230000F8B50F4615461E46B1
S1132390044699223449003018BF0120334B984732
S11323A0290201F47C51394315F4807F04D015F4DB
S11323B0006F0ED041F0010115F4804F12D094F853
S11323C0043243F0100384F80432A6608BB2E38134
S11323D017E015F4005F02D041F00301ECE741F08F
S11323E00201E9E794F8043203F0EF0384F80432BD
S11323F0EBE740F27F22134218D1238E13F0010F32
S113240020D1638E9BB215F4805FF2D040F25D223E
S11324101342F2D02046164B9847638E9BB26FEA64
S113242093236FEA832363860020F8BD2046104B74
S11324309847638E9BB26FEA93236FEA8323638684
S11324400020F8BD11F0200F04D1238E9BB243F07D
S11324500103238615F4005F01D10120F8BD204655
S1132460044B9847F8BD00BF1C5600007D160000C1
S1132470212300004923000038B50C46054648B323
S113248031B30120D8221449144B98472C6094F896
S11324902F3043F0010384F82F3094F82F3013F0D9
S11324A0010FFAD10E2384F82E300F2384F829303B
S11324B0A38E9BB26FEA53236FEA4323A386E38E72
S11324C09BB26FEA93236FEA8323E386002038BD2F
S11324D00020D7E70020D5E71C5600007D16000039
S11324E0F8B516461D469DF818700446E0B1036819
S11324F0C3B101204FF480721B491C4B98472468D8
S1132500A7B194F8283043F0040384F82830E38F0B
S113251013F4004F11D0012D15D0042D1BD06FF0F2
S11325200C00F8BD0020E5E70020E3E794F828302C
S113253003F0FB0384F82830E9E700223146204603
S11325400B4B9847E7E794F8283003F0FD0384F831
S113255028300020F8BD94F8283043F0020384F8B2
S113256028300020F8BD00BF1C5600007D16000076
S1132570652200000020704709B90420704700203C
S113258070470368186CC0F34050704700B583B0BF
S113259040F249120949003018BF0120084B9847FE
S11325A00023019302E0019B01330193019A41F25C
S11325B087339A42F7D903B05DF804FB1C56000038
S11325C07D16000070B50D461646044680B10368BA
S11325D063B101204FF4AB720D490E4B984720684C
S11325E0436A13F0010F05D0002070BD0020F1E70D
S11325F00020EFE783899BB223F001039BB2838120
S11326000021C18033462A46034CA04770BD00BF59
S11326101C5600007D1600008923000010B50446F6
S113262060B1036843B101204FF4B5720449054B0E
S113263098472368186910BD0020F5E70020F3E7E8
S11326401C5600007D16000038B50C46054660B1E6
S1132650036843B1012040F277120F490F4B9847AA
S1132660286803210BE00020F5E70020F3E7110CB4
S11326702170110A6170A2700334013B59B2002920
S113268009DBCBB21A1D50F822200329EFD0110E1A
S113269004F8011BEBE738BD1C5600007D16000052
S11326A02DE9F0410D4690461F46BDF818600446DA
S11326B0002831D003686BB3012040F29312214902
S11326C0214B98472068436A13F0010F31D1436AC4
S11326D013F0020F30D115F4004F1FD0002315F46E
S11326E0803F04D115F4003F1AD043F022039BB27B
S11326F08381C7F309038380C68000220023C4E9D1
S113270002232782668243462A4620210F4CA04793
S1132710BDE8F0810020D0E70020CEE71023DEE7FB
S113272015F4002FE3D115F4801F08D043F02203E1
S1132730DDE70020BDE8F0810020BDE8F081002045
S1132740BDE8F0811C5600007D16000089230000BE
S11327502DE9F8430F46054600285DD00368002B99
S113276058D0012040F2D3123649374B98472C6891
S11327702A8AB5F8128008FB02F84FEAE879D5E90D
S11327800201B8EB000869EB0109B9F1000F08BFB9
S1132790B8F1040F42D202F0030692B20023DFF82C
S11327A0B080C04713430DD1638E03F07003002B38
S11327B036D1238E13F0200FF6D0238E9BB243F034
S11327C020032386042E31D0236A721E022A01D8E4
S11327D0DBB23B60F6B20027D5E90223B6185F41AD
S11327E0C5E902672A8A688AA2FB00239F4208BFC0
S11327F0964224D3638E03F07003D3B9238E13F06F
S1132800020FF7D0238E9BB243F0020323860120EC
S1132810BDE8F8830020A5E70020A3E70426BCE771
S113282020460A4B98470020BDE8F883236A3B60A2
S1132830D0E72046054B98470020BDE8F8830120E7
S1132840BDE8F8831C5600007D160000212300001B
S113285061500000F8B50F46054600283FD00368D4
S1132860002B3AD0012040F212222449244B9847ED
S11328702C682A8A0023D5E90201224EB04713436B
S11328800CD1638E03F070035BBB238E13F0100F27
S1132890F7D0238E9BB243F0100323862762D5E939
S11328A00223043243F10003C5E90223288A6E8A15
S11328B0A0FB06018B4208BF82421CD3638E03F047
S11328C070039BB9238E13F0020FF7D0238E9BB2B3
S11328D043F0020323860120F8BD0020C3E7002053
S11328E0C1E72046084B98470020F8BD2046064B18
S11328F098470020F8BD0120F8BD00BF1C56000019
S11329007D16000061500000212300002DE9F041F4
S11329100E4690460746F0B10368D3B10120184D26
S113292040F241222946174CA04740F24222294650
S113293018F1000018BF0120A04740F243222946A5
S1132940301C18BF0120A0473D8A05FB08F504246C
S113295005E00020E3E70020E1E72D1B264465B1F4
S113296031463846084B9847A542F6D23B8A93FB3A
S1132970F4F204FB1234E4B2EFE70120BDE8F08185
S11329801C5600007D160000512700002DE9F0417F
S11329900E4690460746F0B10368D3B10120184DA6
S11329A040F25D222946174CA04740F25E22294698
S11329B018F1000018BF0120A04740F25F22294609
S11329C0301C18BF0120A0473D8A05FB08F50424EC
S11329D005E00020E3E70020E1E72D1B264465B174
S11329E031683846084B9847A542F6D23B8A93FB98
S11329F0F4F204FB1234E4B2EFE70120BDE8F08105
S1132A001C5600007D1600005528000008B558B17A
S1132A1003683BB101204FF41D720449044B9847ED
S1132A20012008BD0020F6E70020F4E71C56000052
S1132A307D16000008B558B103683BB1012040F28F
S1132A407F220449044B9847012008BD0020F6E783
S1132A500020F4E71C5600007D16000070B487B017
S1132A6006466C460C4D0FCD0FC495E8030084E870
S1132A700300002005280AD806AB03EB800353F8B3
S1132A80183CB34201D00130F4E7C0B200E00020AA
S1132A9007B070BC704700BF3456000010B584699D
S1132AA0237E13F0010F03D0A37D13F0010F12D185
S1132AB0237E13F0020F03D0A37D13F0020F0FD176
S1132AC0237E13F0040F15D0638B03F0370363B137
S1132AD0FF23638310BD012323750368984710BD4A
S1132AE0022323758368984710BD4368A16AC9B25D
S1132AF0984710BD237EDB0900D110BD80232376C7
S1132B00C3689847638B9BB26383F6E7034B984291
S1132B1000D07047024B1960FBE700BF000400437C
S1132B201802002008B5044B98478000C0B22E302C
S1132B3000F0FE0008BD00BF5D2A000008B50C4B84
S1132B409847002343B140F26B220A4900200A4B04
S1132B5098470023184608BD03EB4302D100074AF7
S1132B600A44127E9042F5D00133DBB2EAE700BF9B
S1132B705D2A0000A05600007D16000034560000B7
S1132B8038B504463C4B9847E36913F0010F22D152
S1132B9000EB4003DA00394B1344DA6902F01C02FB
S1132BA0E36913F0030FFBD1236813F0020F0BD07A
S1132BB0236823F002032360E36913F0030FFBD1BE
S1132BC0E36913F0020FFBD142F001022260E369D2
S1132BD013F0030FFBD1E36913F0010FFBD100EBFA
S1132BE04003DA00254B1344DB692360E36913F0E7
S1132BF0030FFBD100EB4003DA00204B13441B6AA4
S1132C006360E36913F01F0FFBD142000244D1005B
S1132C101A4B0B445A6AA260DB6913F4005F0AD1B1
S1132C2013F4C04F07D100EB4003DA00134B1344F5
S1132C301B8DA3810FE042000244D1000F4B0B44D3
S1132C40198DA28961F30C02A28193F82A20A38929
S1132C5062F34F33A381094A43001D18E9000D466E
S1132C60114491F82B10A1732A4492F82C3084F863
S1132C703030002038BD00BF3D2B0000345600002A
S1132C8070B50C460646CB221849003018BF012007
S1132C90174B98472046174B9847054608B12846D6
S1132CA070BDB46131462046134B98472046134B00
S1132CB09847002416E0410900F01F0201239340C5
S1132CC00F4A01F1200642F82630BFF34F8FBFF3BD
S1132CD06F8F01F1600642F8263042F8213001304E
S1132CE0C0B20134032CE6D9D9E700BFA0560000D6
S1132CF07D160000812B00000D2B0000252B000009
S1132D0000E100E0836999627047836901229A7542
S1132D107047836902229A757047000008B5024B18
S1132D201868024B984708BD180200209D2A00002D
S1132D3008B5024B1868024B984708BD18020020DA
S1132D409D2A000008B5024B1868024B984708BD3D
S1132D50180200209D2A000008B5024B1868024B97
S1132D60984708BD180200209D2A0000034B6FF00D
S1132D707F425A6005221A60704700BF10E000E0ED
S1132D8008B5014B984708BD6D2D0000080E0DE0F5
S1132D900D4B6FF07F40586098600B4B1B6813F429
S1132DA0803FFAD001F17F4101311046431EDAB26F
S1132DB00028EDD1044B59609960034B1B6813F450
S1132DC0803FFAD0704700BF10E000E008B5C36848
S1132DD09A7A12F0010F00D108BD01229A72036899
S1132DE09847F9E738B505460469A37A13F0010F4B
S1132DF004D00123A372036803B19847637A13F0E4
S1132E00020F05D00223A3726B680BB128469847C2
S1132E1038BD0000064B984203D0064B984203D0BD
S1132E207047054B1960F8E7034B5960F8E700BF9A
S1132E3000380040003C00401C02002070B586B001
S1132E4006466C46174D0FCD0FC495E8030084E881
S1132E5003000023052B0AD806AA02EB830252F8CA
S1132E60182CB24201D00133F4E7DBB200E00023B6
S1132E700022012A0BD802EB820081000A48415C3F
S1132E80994202D00132D2B2F3E750B207E04FF4D4
S1132E90F47206490020064B98474FF0FF3006B005
S1132EA070BD00BFBC56000000000020D4560000D6
S1132EB07D16000070B506460C4608466C4B9847D4
S1132EC00546F4608F226B4901206B4B98472369B8
S1132ED013F0010F19D1236913F0030FFBD12368F9
S1132EE013F0020F0BD0236823F00203236023693D
S1132EF013F0030FFBD1236913F0020FFBD101235D
S1132F002360236913F0030FFBD1236913F0010F2E
S1132F10FBD105EB85039A00584B13445B6823608F
S1132F20236913F0030FFBD1AA002A449100534BE9
S1132F300B449A7AE2731A89E280012222735B6855
S1132F4003F00C03082B5BD0002B6DD105EB85033C
S1132F509A004A4B13449B89A383236913F0C00F3F
S1132F60FBD105EB85039A00444B13441B8AE3838E
S1132F70236913F0C00FFBD101236372314620464D
S1132F803F4B984705EB85039A003C4B1344B3F938
S1132F900230002B0DDB5A0903F01F03012101FA53
S1132FA003F32032374941F82230BFF34F8FBFF388
S1132FB06F8F05EB85039A00304B1344B3F902304D
S1132FC0002B09DB5A0903F01F03012101FA03F363
S1132FD060322C4941F8223005EB8505AA00274BC5
S1132FE01344B3F90230002B08DB590903F01F0323
S1132FF0012202FA03F3234A42F82130002070BD73
S11330001E4B0B44DB68E361236913F0C00FFBD153
S113301005EB85039A00194B13441B69236223694A
S113302013F0C00FFBD1A7E7042BA5D105EB850353
S11330309A00124B13441B7B2377236913F0C00FB0
S1133040FBD105EB85039A000C4B13441B7C63777F
S1133050236913F0C00FFBD105EB85039A00074BDE
S11330601344DB7AE376236913F0200FFBD183E763
S11330703D2E0000D45600007D1600000000002004
S1133080152E000000E100E070B506460C46084627
S1133090594B984705463461236913F0010F19D140
S11330A0236913F0030FFBD1236813F0020F0BD035
S11330B0236823F002032360236913F0030FFBD179
S11330C0236913F0020FFBD101232360236913F05A
S11330D0030FFBD1236913F0010FFBD105EB85032B
S11330E09A00464B13445B682360236913F0030F73
S11330F0FBD1AA002A449100404B0B449A7AE27314
S11331001A89E280032222735B6803F00C03082B04
S113311059D0002B6BD105EB85039A00374B134430
S11331209B89A383236913F0C00FFBD105EB8503AF
S11331309A00324B13441B8AE383236913F0C00FB4
S1133140FBD1314620462E4B984705EB85039A0068
S11331502A4B1344B3F90230002B0DDB5A0903F058
S11331601F03012101FA03F32032264941F82230DA
S1133170BFF34F8FBFF36F8F05EB85039A001F4B8F
S11331801344B3F90230002B09DB5A0903F01F037F
S1133190012101FA03F360321A4941F8223005EBA8
S11331A08505AA00154B1344B3F90230002B21DB2B
S11331B0590903F01F03012202FA03F3114A42F8EA
S11331C02130002070BD0D4B0B44DB68E3612369A3
S11331D013F0C00FFBD105EB85039A00074B134492
S11331E01B692362236913F0C00FFBD1A9E74FF0D9
S11331F0FF3070BD002070BD3D2E00000000002097
S1133200152E000000E100E0C268136843F00203D9
S11332101360136913F0030FFBD17047026913683D
S113322043F002031360136913F0030FFBD17047DB
S113323070B50E461546046920461B4B984782001C
S113324002449100194B0B44DE601D615B6803F07E
S11332500C03082B16D000EB80039A00134B134485
S11332609B89A383236913F0C00FFBD100EB80007B
S113327082000E4B13441B8AE383236913F0C00FAF
S1133280FBD170BDE661236913F0C00FFBD100EBE5
S113329080008200054B13441B692362236913F0E9
S11332A0C00FFBD170BD00BF3D2E00000000002008
S11332B0C268136913F0030FFBD11068C0F3400018
S11332C070470269136913F0030FFBD11068C0F350
S11332D040007047002070470020704710B5C06858
S11332E0084B9847044640F29D1207490120074BBA
S11332F0984704EB8404A200054B13449878054BCB
S1133300984710BD3D2E0000D45600007D160000E5
S1133310000000203D1A000008B5024B1868024B5B
S1133320984708BD1C020020E52D000008B5024B9B
S11333305868024B984708BD1C020020CD2D0000A0
S1133340144B0122C3F89420C3F8842002F1804274
S113335002F50032C3F8A8200F49C3F8A81093F867
S1133360C02002F0FE0283F8C0200422C3F8942097
S1133370C3F8842002F1804202F50032C3F8A82089
S1133380C3F8A81093F8C22002F0FE0283F8C2200A
S1133390704700BF00800041000002C0024A136869
S11333A001331360704700BF2402002010B582B0BF
S11333B001230DF1070200210748084CA0479DF89E
S11333C00730074A13709D2B04D8064A136843F448
S11333D08073136002B010BDD8060020A10C000059
S11333E0920B00202800002000B583B001A8074BF1
S11333F09847074BD3F88020D3F8A020D3F8903017
S113340001A8044B984703B05DF804FB410D00008C
S1133410008000414F0D000000B583B001A8064BA9
S11334209847064B1A681A6A1B6901A8044B984707
S113343003B05DF804FB00BF410D000000800041B3
S11334404F0D000010B582B001A80F4B98470F4BE9
S1133450D3F88010D3F8A020D3F8904054400C4007
S1133460544001A80A4B984714F4000F06D1094AA6
S1133470136843F02003136002B010BD054A1368BB
S113348023F020031360F7E7410D000000800041A2
S11334904F0D0000280000202DE9F04107460E469C
S11334A02F4D4FF48058C5F898800A202D4CA04722
S11334B0C5F894800A20A04708240CE01022284B69
S11334C05A610A20274DA8472022254B9A610A20D9
S11334D0A847013C64B2002C0BDB2022204B5A612C
S11334E047FA04F313F0010FE8D010221C4B9A6141
S11334F0E7E71B4C202767611023A3610A20194DBD
S1133500A847A7610A20A8470F240CE01022144BF7
S11335105A610A20134DA8472022114B9A610A20B0
S1133520A847013C64B2002C0BDB20220C4B5A61EF
S113353046FA04F313F0010FE8D01022084B9A6105
S1133540E7E7074C202363610A20064DA8470A20B9
S1133550A8474FF48053C4F89830BDE8F08100BF09
S113356000800041B50D000008B502280DD00428E4
S113357010D0012804D0E121CC20094B984708BD84
S1133580E121CC20064B984708BDE421CC20044B14
S1133590984708BD2421CC20014B984708BD00BFA3
S11335A09934000008B505380F2820D8DFE800F06A
S11335B0081F1F1F1F0E1F1F1F1F141F1F1F1F1A4F
S11335C044F62061C9200A4B984708BD42F21071A5
S11335D0C920074B984708BD41F60B21C920044B6D
S11335E0984708BD41F28831C920014B984708BD6E
S11335F0993400002DE9F04182B00646334D4FF472
S11336008057C5F898700A20314CA047C5F89470CB
S11336100A20A04708240CE010222C4B5A610A20EF
S11336202B4DA8472022294B9A610A20A847013C28
S113363064B2002C0BDB2022244B5A6146FA04F3BB
S113364013F0010FE8D01022204B9A61E7E71F4CDA
S113365020266661102363610A201D4DA847A661D8
S11336600A20A84766610A20A84700270F251EE004
S1133670164C4FF02008C4F818800A20144EB047A6
S1133680C4F8148001A8134B98472268236A24695C
S11336905C4014405C4001A80F4B9847C4F380146D
S11336A0AC403C43A7B20A20B047013D6DB2002DA7
S11336B0DEDA0A20064B98474FF48052034BC3F8D6
S11336C09820384602B0BDE8F08100BF0080004178
S11336D0B50D0000410D00004F0D000010B5002194
S11336E002200E4CA04742F213111120A0470021E2
S11336F01420A0474FF40A511A20A04743F62D5135
S11337001B20A04747F21C012020A04700210820CD
S1133710A04707211020A04710BD00BF9934000026
S113372010B500210920054CA04747F20E012020C6
S1133730A04701212220A04710BD00BF99340000FA
S113374010B500210220CD4CA04700210820A0473D
S113375000210920A04700210A20A04700211420AD
S1133760A0474FF40A511A20A04743F62D511B20BD
S1133770A04747F20F012020A04701212220A047A3
S113378007212820A04740F65F012920A04744F2E2
S113379003112A20A0474FF4A3612B20A047012145
S11337A03020A04701214020A04743F62A014120B0
S11337B0A04745F2C8314220A04740F2656143204A
S11337C0A04785214420A04740F688014520A04712
S11337D04FF490414620A04748F688014720A0476F
S11337E040F217114820A04700217020A04744F25E
S11337F00A718020A04748F201018120A0471521C9
S11338008220A04740F60101C020A047E421C22045
S1133810A0474FF48271C520A0473221C720A0479A
S113382040F6E441C820A04740F6E441C920A0473F
S1133830E421CC20A0471421CF20A0474FF480716D
S1133840D620A04741F21F01D720A0470021D8204D
S1133850A0472321DB20A04743F62B41DC20A047CF
S113386042F64D31DD20A04743F65E61E020A047DB
S11338704921D320A0470021D820A0472321DB20C1
S1133880A04743F62B41DC20A04742F64D31DD2012
S1133890A04740F29921E620A0474FF45471E72055
S11338A0A0474FF4FA71E820A047E121EB20A0479C
S11338B04BF219014FF48070A0474BF219014FF4F9
S11338C08170A0474FF448414FF4C070A0474FF6B1
S11338D01F3140F28110A0474FF61F314FF4C170E1
S11338E0A0474FF6123140F28310A0474FF6121151
S11338F04FF4C270A0474FF6031140F28510A04761
S11339004FF602014FF4C370A0474FF20F3140F25B
S11339108710A0474FF20F314FF4C470A0474FF205
S11339200F3140F28910A0474FF20A314FF4C570AD
S1133930A0474FF2011140F28B10A0474FF20A0149
S11339404FF4C670A0474FF24B2140F28D10A047B0
S11339504FF201214FF4C770A0474FF2262140F2E5
S11339608F10A0474FF221014FF4C870A0474FF2C7
S1133970010140F29110A0474FF202414FF4C97087
S1133980A0474FF2070140F29310A0474FF20F21D6
S11339904FF4CA70A0474FF20F2140F29510A04790
S11339A04FF202214FF4CB70A0474FF2060140F2D0
S11339B09710A0474EF608414FF4CC70A0474CF640
S11339C0010140F29910A0474FF448414FF4CD70E3
S11339D0A0474FF4484140F2A310A0474CF60241DF
S11339E04FF4D270A0474CF6014140F2A510A04715
S11339F04CF602414FF4D370A0474CF6014140F21B
S1133A00A710A0474CF602414FF4D470A0474CF6DF
S1133A10050140F2A910A0474FF448414FF4D57076
S1133A20A047302140F2AB10A04742F27B014FF493
S1133A30D670A04742F2710140F2AD10A047712147
S1133A404FF4D770A04741F27F0140F2AF10A04776
S1133A5041F272014FF4D870A04741F2740140F270
S1133A60B110A04771214FF4D970A047312140F221
S1133A70B310A04742F2BB1102E000BF993400002A
S1133A804FF4DA70A04742F2B10140F2B510A047FA
S1133A90B1214FF4DB70A04741F2BF0140F2B710EF
S1133AA0A04741F2B2014FF4DC70A04741F2B401E7
S1133AB040F2B910A047B1214FF4DD70A047302186
S1133AC040F2BB10A04730214FF4DE70A04742F211
S1133AD07B1140F2BD10A04742F271014FF4DF7038
S1133AE0A047712140F2BF10A04741F27F014FF47B
S1133AF0E070A04741F2720140F2C110A04741F2C8
S1133B0074014FF4E170A047712140F2C310A04743
S1133B1031214FF4E270A04742F2BB1140F2C510CC
S1133B20A04742F2B1014FF4E370A047B12140F243
S1133B30C710A04741F2BF014FF4E470A04741F21F
S1133B40B20140F2C910A04741F2B4014FF4E5704C
S1133B50A047B12140F2CB10A04730214FF4E670CA
S1133B60A047302140F2CD10A04742F27B114FF420
S1133B70E770A04742F2710140F2CF10A0477121D3
S1133B804FF4E870A04741F2710140F2D110A04710
S1133B9071214FF4E970A047312140F2D310A047BE
S1133BA042F2BB114FF4EA70A04742F2B10140F275
S1133BB0D510A047B1214FF4EB70A04741F2B301F7
S1133BC040F2D710A04741F2B1014FF4EC70A04786
S1133BD0B12140F2D910A0473F214FF4ED70A04726
S1133BE0322140F2DB10A04730214FF4EE70A047A1
S1133BF010BD00BF10B500210A200D4CA04747F2AC
S1133C000F012020A04707212820A04744F21311C8
S1133C102A20A04701213020A04701214020A047AD
S1133C2040F227114820A04700217020A04710BD72
S1133C309934000008B5064B98470A20054B98476D
S1133C40054B9847054B9847054B984708BD00BF5F
S1133C50DD360000D50D000021370000413700009B
S1133C60F53B000010B540F68301C020034CA0478B
S1133C7040F6E471C220A04710BD00BF9934000093
S1133C80014B1868704700BF2402002008B50122C8
S1133C9040F2FE310020074B984701210648074BAC
S1133CA098470020064B984708B1002008BD012022
S1133CB008BD00BF754C000028020020114D000013
S1133CC05D4D0000024B03EB80004068704700BF6D
S1133CD024020020014B43F82010704728040020E0
S1133CE02DE9F0418046124BD3F8046406F0070630
S1133CF0104CB500A9190A03A7180A21A150D3F83A
S1133D00042402F007027A60D3F80824BA60D3F8D6
S1133D100424FA60D3F80C343B61074B9847074BF3
S1133D201B68C01AF8614FEA88033B62BDE8F08162
S1133D3024020020340C0020813C0000240C0020CC
S1133D4001B1704708B541F2F630074B9847074B6D
S1133D50D3F804240132C3F80424D3F80C24013228
S1133D60C3F80C2408BD00BFE13C0000240200207D
S1133D7030B40024D2B200232243034309040A438B
S1133D8043EAE1730249C1E9002330BC704700BF34
S1133D908892022038B50D46642800D96420C0EB0F
S1133DA000400B49A1FB00310A4C0022490920467E
S1133DB0094B98472046094B984725B90222084BDE
S1133DC0C3F8942038BD0222054BC3F8982038BDAF
S1133DD01F85EB51A806002085120000491200003F
S1133DE00080004128B94FF40072054BC3F89420B9
S1133DF070474FF40072024BC3F89820704700BF1D
S1133E00008000410023072B2BD810B4072B23D0AC
S1133E105A1C144901EB021201EB0311CA60114848
S1133E201A01811841F2F6344C8040F60924845278
S1133E300D4A4A6003EB8300020328320B48024414
S1133E40488880B202EB80028A600133DBB2072B20
S1133E50DCD95DF8044B7047024A02EB0311CA60D7
S1133E60DDE77047A00B0020142C0043340C002025
S1133E70F8B50E4F0601BC19616800200C4B984739
S1133E80A16800200B4DA847618889B200200A4B25
S1133E909847B95B89B20020084B9847A168002075
S1133EA0A847E1680020064B9847F8BDA00B002006
S1133EB05D1C00004D1C00009D1C00006D1C0000DA
S1133EC07D1C0000F0B583B001A8474DA847474EBC
S1133ED0D6F88020D6F8A030D6F890405C40144044
S1133EE05C4001A8424FB84704F480446846A847A0
S1133EF0D6F88020D6F8A030D6F890505D40154012
S1133F005D406846B84715F4007F0FD00020394B58
S1133F1098474CB9384B1B6813F0180F0AD1364B2D
S1133F201B6813F4007F3ED103B0F0BD0120314B78
S1133F309847EEE7314A136823F001031360304ACF
S1133F40136C23F00203136400202E4B9847C0F532
S1133F509F5016302C4B98472C4B0022C3F80C244E
S1133F60D3F804240132C3F80424D3F8082401321A
S1133F70C3F80824204B1B6813F0080F02D11E4B12
S1133F801B68D1E7214BD3F8040400F00700204B51
S1133F909847002108461F4B9847184A136843F076
S1133FA001031360EBE7194B0024C3F80844C3F87A
S1133FB00444C3F80C44184B98472046144B9847C4
S1133FC021462046134B98470C4A136843F00103DB
S1133FD01360094B1A6822F400721A601A6842F0DE
S1133FE008021A60A0E700BF410D000000800041F4
S1133FF04F0D0000E53D000028000020002C004388
S113400000A000418D1C0000E13C000024020020BF
S1134010713E0000F51C0000053E000008B50023B9
S11340200D4A13600D4A13600D4A13600D4A136064
S11340300D4A13600D4B98470D4B18600D4B1A68D1
S113404022F002021A601A6822F004021A601A6846
S113405042F400721A6008BD300C00202C0C0020C1
S11340609C0B0020280C0020980B0020813C0000B1
S1134070240C00202800002010B5144B1A6822F0EC
S113408010021A601A6822F008021A601A6842F0D4
S113409002021A600E4B196804200E4CA0470E4B06
S11340A019680520A047012240F2FF3100200B4B84
S11340B0984701210A480B4B984700200A4B984720
S11340C000210846094B984710BD00BF2800002076
S11340D02C0C0020D53C00009C0B0020F14E00006D
S11340E028040020914F0000DD4F0000953D0000A2
S11340F0474B1B68474A12681344474AD2F80424C2
S1134100934280F084802DE9F041414B1B68414A81
S1134110126813440833404AD2F80424934221D24B
S11341203D48D0F810343A4A12683A490C6822449F
S1134130D0F81044B2FBF4F004FB10229B1A0A6876
S113414013440B60354B9847354B1B68C01A42F239
S11341500F73984204D9334A136843F01003136071
S1134160BDE8F0812A4B1B682A4A1268134403F005
S1134170070303EB83031C032B4B1C442B4B1C60D6
S1134180236A03F227235B0A264A53605368282BC9
S113419002D92822234B5A601D4D2B686361DFF836
S11341A07480D8F80030A3611C4FB8471C4E3368A4
S11341B0C01A60622B68D8F8002013441C4CA4FB7E
S11341C003246409642202FB1434B8473368C01A18
S11341D0184B43F82400134C61684902232201F46C
S11341E07E41124B1868144B9847A16863689BB2D0
S11341F0124A0020124EB0470020124B98476368C1
S1134200A2681344A3602B6801332B609AE77047BC
S11342102C0C00209C0B002024020020813C000078
S1134220240C002028000020340C0020200C002046
S11342301F85EB5190920220713D0000889202206C
S1134240CD4D0000BD4E000070B56F4C1223C4F874
S11342501034D4F810340133C4F810346B4B98473D
S113426002226B4B1A734FF080726A4B9A610021E1
S113427069486A4B98470120694B9847694B9847AE
S11342800123C4F81C34684AC4F8202484F8243474
S11342904FF47A72C4F83024644AC4F8342484F89D
S11342A03834634D04F214412846624EB04704F595
S11342B085612846B04728465F4B98475F493620BA
S11342C05F4CA0475F493720A0475F492E20A04795
S11342D05E491920A0475E4B984700205D4B9847E4
S11342E00028FAD15C4B984701286ED15B4A1368C9
S11342F043F0400313604FF08A43196C584A11602D
S1134300596C516093F82810C9B2916093F8282031
S113431042F0100283F828203E4C4FF40055C4F8B4
S1134320945064204F4B9847C4F8985064204E4BE7
S1134330984700204D4B98474D4B18804D4B98475C
S11343404D4B984701204D4B984714204C4B9847B0
S11343504FF4987100204B4CA0474FF49871012002
S1134360A0470820484B984701460220A0474FF435
S1134370A0410320A04700210420A04700210520DC
S1134380A047012240F2FF310020404B9847012111
S11343903F48404B984700203F4B9847012102205B
S11343A03E4B984702223E4B83F84D20A2223D49C2
S11343B001203D4B98473D4A3D4B1A613D4A3E4BD7
S11343C01A600422254B1A600DE0244A136843F056
S11343D0800313608FE7394B984709E01F4B1B6834
S11343E013F0100F0CD11D4B1B6813F0040FF2D106
S11343F01A4B1B6813F0080FF0D0314B9847EDE7C8
S1134400304B9847EFE700BF24020020D1020000A0
S11344100038004000800041D8060020750C0000E0
S1134420E53D0000413300009D330000AD33000042
S113443048070020E9130000AD130000E933000031
S11344406D0E000045340000C53E00001934000024
S1134450053E0000B54B00008D3C00002800002004
S1134460348C0220D50D0000B50D0000F535000098
S1134470900B0020353C0000653C000069350000CD
S1134480A5350000D53C0000C53C0000F14E0000FD
S113449028040020914F0000DD4F0000953D0000EE
S11344A000A00041E85600007D160000413D0000D8
S11344B0C4060020200000C0002C00431D40000062
S11344C0F140000079400000012070471F4B1A683A
S11344D0517C01F007001E4B53F82000C1F3C301C7
S11344E003EB8103D96901FB00F14FF47A7303FBF9
S11344F001F31360937B9B091AD1917D537D9B003B
S113450043EAA113117D43EA8123C3F30B0301336F
S1134510107ED17D490041EAE01101F0070102312A
S11345208B40D17C01F00F018B409B0A5360704794
S1134530D37D917D43EA0123517D43EA0143C3F3D3
S1134540150301335B025360704700BF6806002007
S11345500C57000010B582B007480268947F537B63
S1134560126801798068003418BF01240094034C58
S1134570A04702B010BD00BF68060020710F000004
S113458008B104207047F0B583B00446454BDB689E
S1134590002B50D0870033F92050B5F1FF3F4AD0AB
S11345A0EDB26E0901A8404B98474049F301CA187F
S11345B0C958136A16695E400E405E4001A83C4B20
S11345C0984705F01F05012303FA05F5354214BF8A
S11345D01A460022334BDB681F447B889A4206D07C
S11345E0304B03EB44140423A376022047E02D4B05
S11345F003EB44139B7E042B09D0012B0ED0294BD3
S113460003EB44139B7E032B1DD1032037E0254B82
S113461003EB44140123A376022030E0214B03EB87
S1134620441302229A76234A1A6101225A770022FD
S113463083F82E20E3E71B4B03EB44139B7E033BE1
S1134640DBB2012B1DD9174B1B799C4226D0154B8D
S11346501B8E2BBB012040F22C421749174B984765
S1134660104D2C7105F11003640123442B60144B8D
S113467098472C44A07E022814BF0020012003B0D8
S1134680F0BD084B03EB441302229A76094A1A61DF
S113469001225A77002283F82E20D4E70120DAE79A
S11346A00020D8E768060020410D0000008000418A
S11346B04F0D0000801A0600A85700007D16000068
S11346C05545000008B50E4B1A681289120441F2D0
S11346D0371198680B4B9847034608B9184608BD2C
S11346E0022241F20611064B9868064B984703468E
S11346F00028F3D0024A126804215173EEE700BF88
S1134700680600205510000038B5054600230370E4
S11347104FF4D57245F208510C4B98680C4B9847EE
S113472010B90124204638BD0446084B9868094B4B
S11347309847B0F1FF3FF5D0C0F30B00B0F5D57F3B
S113474001D00024EEE701232B70EBE7680600207C
S1134750551000008510000070B5064640F634047C
S113476011E0164A44F22951154B9868154B9847A5
S11347700546F8B1124B9868134B9847002810DB94
S1134780631ECCB11C46002241F237110C4B9868D1
S11347900C4B9847054668B1002EE2D14FF4FC1249
S11347A0E0E710F0804F05D0054B1A68D37A43F048
S11347B00803D372284670BD0025FBE700801F4024
S11347C068060020551000008510000038B50D4C17
S11347D000E01C460C4B1A681289120441F20D11B8
S11347E098680A4B9847054650B1074B9868084BA0
S11347F0984710F4807F03D1631E002CE9D1002573
S1134800284638BD400D03006806002055100000FE
S11348108510000010B50A4B1A681289120441F67B
S113482009319868074B9847044608B9204610BDDB
S1134830034B19680E319868034B9847F6E700BF9D
S11348406806002055100000AD10000010B584B0BB
S1134850284B1A681289120441F237119868264BC2
S11348609847034610B9184604B010BD214B986808
S1134870012301930093082300222049204CA047E0
S113488003460028EFD0012202A91A4B98681D4B59
S1134890984703460028E6D0164B98681A4B984769
S11348A003460028DFD09DF8082002F00F02012AF9
S11348B00CD032B1022A0ED00E4A126810211173A4
S11348C0D1E70C4A126810211173CCE7094A126827
S11348D01A211173C7E79DF80A20D20904D1054AA9
S11348E0126820211173BEE7024A12683021117345
S11348F0B9E700BF68060020551000003311080016
S1134900ED10000031110000A111000030B593B08A
S113491040242246002102A8214B9847214B986845
S113492001230193009323461F4A2049204CA047AA
S1134930044610B9204613B030BD012202A9194B18
S113494098681C4B984704460028F3D0154B986888
S1134950194B984704460028ECD0124B9868174B23
S1134960984710F0800F19D19DF8183003F00F0309
S11349700F2BDFD09DF825309DF8242053EA022325
S113498001D00024D6E7074DA8680D4B98472B6843
S113499001229A771A6852001A60CBE70024C9E70B
S11349A0B95300006806002001FFFF8006110800CB
S11349B0ED10000031110000A1110000851000006D
S11349C02D10000030B583B000248DF80740584DF9
S11349D02B680122DA721C731C81A868554B984716
S11349E022464FF48041A868534B9847044610B9B7
S11349F0204603B030BD0DF10700504B98470446E4
S1134A000028F5D04E4B984704460028F0D02B6878
S1134A10DB7A13F0010F76D1454B1B68DB7A13F078
S1134A20010F09D0002245F60231414B9868424BF0
S1134A30984704460028DBD0002245F203113C4B82
S1134A4098683D4B984704460028D1D0384C2568D7
S1134A50A0683C4B9847000C28812368DB7A13F04C
S1134A60010F06D0384B984704460028C0D0374B76
S1134A7098472F4B1A681289120443F20711986859
S1134A802D4B984704460028B2D0294B1B68DB7A8B
S1134A9013F0010F03D02E4B9847002844D0244B29
S1134AA0197998682B4B984703280BD9204B1B681E
S1134AB0DB7A13F0010F03D0274B9847002835D039
S1134AC0264B98471A4B9868254B984750B1184B7A
S1134AD01B68DA7A12F0010F02D01B7B102B1DD851
S1134AE01E4B9847124B1B68DB7A13F0010F3FF4FF
S1134AF07FAF4FF4007241F210110D4B98680E4BCA
S1134B009847044674E79DF80700164B98470446F7
S1134B10002881D12B680022DA7269E7124B98478A
S1134B200028DDD1044663E7044661E704465FE7F5
S1134B30680600202D1000005510000009470000F1
S1134B40C94400008510000015480000CD44000051
S1134B504D480000D90F0000C5460000554500002F
S1134B6005100000594700000D49000008B5044B2A
S1134B70197901B108BD9868024B9847FAE700BF5C
S1134B8068060020AD0F000030B400233BB1084B91
S1134B90FF241C719860D9605A6330BC7047044C80
S1134BA004EB43140425A5760133DBB2EEE700BF22
S1134BB06806002010B50D4B98470446012803D021
S1134BC00B4B9847204610BD0A4B984730B90A4B07
S1134BD01B6803249C72064B9847F3E7064B1B683B
S1134BE000229A72024B9847ECE700BF814500000F
S1134BF06D4B0000C549000068060020194B5B6B33
S1134C005BB370B582B0850033F92030B3F1FF3F58
S1134C1025D0DEB2740901A8134B98471349E30168
S1134C20CA18C958136A14695C400C405C4001A856
S1134C300F4B984706F01F03012202FA03F32342A5
S1134C4008BF0022074B5B6B1D446B889A4202D05D
S1134C50002002B070BD0120FBE700207047002057
S1134C60F7E700BF68060020410D00000080004106
S1134C704F0D000070B582B00E4615461B4B984789
S1134C80044610B1204602B070BD194B9847C0B11C
S1134C90012D1AD91749184B1B68DB7A13F0080F3A
S1134CA000D17602144B98680123019300954FF4C8
S1134CB000733246114EB04748B9114B984705244A
S1134CC0E0E70F4B98470524DCE70E49E3E70A4B7E
S1134CD098680D4B98470D4B03401BB9064B1D8636
S1134CE01D87CFE7064B98470524CBE78145000095
S1134CF0CD4700001211100068060020ED100000DE
S1134D006D4B00001111080085100000000058E4EC
S1134D1070B506460C460D4D288E40F2A7520C493C
S1134D20A04234BF002001200A4B98472246314656
S1134D30A868094B984718B900222A86052070BD37
S1134D40024A138E1C1B1486002070BD68060020C6
S1134D50A85700007D1600003111000010B504466C
S1134D60164B9868164B984708B9052010BD94B1A6
S1134D700022124B1A86114B1B8F012B11D00022DB
S1134D8043F20C110D4B98680E4B984768B10E4BCB
S1134D909847002010BD094B1B8E002BEBD0002040
S1134DA010BD094B9847002010BD002243F20C119E
S1134DB0024B9868034B9847E9E700BF6806002058
S1134DC0A1110000551000006D4B00002DE9F041C9
S1134DD006460F4690461D462F4B9847044610B191
S1134DE02046BDE8F08130462C4B9847002836D148
S1134DF0012D38D92A4A2B4B1B68DB7A13F0080F94
S1134E0000D17F024FF08A43C3F858804FF40071F9
S1134E109980DD805B6A13F0010FE1D14FF08A4382
S1134E205B6A13F0020FDBD112F4004F1DD0002394
S1134E3002F4803121B902F40031C1B143F02203FC
S1134E4043F005039BB24FF08A4083813B46202107
S1134E50154DA847A0B9154B98470524C0E7134B37
S1134E6098470724BCE7124AC5E71023E0E712F489
S1134E70002FE5D112F4801FB2D043F02203DFE704
S1134E80084B98680B4B98470B4B0340002BA7D05B
S1134E90064B98470524A3E781450000FD4B00001D
S1134EA01991100068060020E11000006D4B00000D
S1134EB01891080085100000000058E408B54FF070
S1134EC08A435B8E03F0700373B94FF08A431B8EE1
S1134ED013F0020FF3D04FF08A42138E9BB243F0CB
S1134EE002031386014B9847002008BD6D4B000058
S1134EF0F0B583B007460E4615461C4B984704464A
S1134F0010B1204603B0F0BD3846194B9847C0B9DC
S1134F10012D1AD91749184B1B68DB7A13F0080FB7
S1134F2000D17602144B98680123019300954FF445
S1134F3000733246114EB04748B9114B98470524C7
S1134F40DFE70F4B98470724DBE70E49E3E70A4BFB
S1134F5098680D4B98470D4B03401BB9064B1D86B3
S1134F601D87CEE7064B98470524CAE78145000014
S1134F70FD4B00001991100068060020ED100000A0
S1134F806D4B00001891080085100000000058E4E3
S1134F9070B506460C460D4D288E40F26D620C49E4
S1134FA0A04234BF002001200A4B984722463146D4
S1134FB0A868094B984718B900222A86052070BDB5
S1134FC0024A138E1C1B1486002070BD6806002044
S1134FD0A85700007D1600006911000010B50446B2
S1134FE0144B9868144B984708B9052010BD94B128
S1134FF00022104B1A860F4B1B8F012B11D000225D
S113500043F20C110B4B98680C4B984768B90C4B46
S11350109847052010BD074B1B8E002BEBD00020BA
S113502010BD074B9847002010BD054B9847002042
S113503010BD00BF68060020C91100005510000013
S11350406D4B000008B503490A4604310248034B7E
S1135050984708BD3400002030070020894B000029
S113506053B94AB9002908BF00281CBF4FF0FF31CB
S11350704FF0FF3000F07AB9ADF1080C6DE904CEC1
S113508000F006F8DDF804E0DDE9022304B070471F
S11350902DE9F0478C460D460446089E002B51D15D
S11350A08A4217466DD9B2FA82FEBEF1000F0BD0C8
S11350B0CEF1200C01FA0EF520FA0CFC02FA0EF7E0
S11350C04CEA050C00FA0EF44FEA174A250CBCFB17
S11350D0FAF81FFA87F90AFB18CC45EA0C4508FBD5
S11350E009F3AB420AD9ED1908F1FF3280F02381AC
S11350F0AB4240F22081A8F102083D44ED1AA4B26B
S1135100B5FBFAF00AFB105544EA054400FB09F923
S1135110A14509D9E41900F1FF3380F00A81A145C2
S113512040F2078102383C44A4EB090440EA0840F9
S11351300021002E61D024FA0EF400233460736041
S1135140BDE8F0878B4207D9002E54D0002186E8B1
S113515021000846BDE8F087B3FA83F1002940F046
S11351608E80AB4202D3824200F2FA80841A65EB4D
S113517003050120AC46002E3FD086E81010BDE8A0
S1135180F08712B90127B7FBF2F7B7FA87FEBEF131
S1135190000F34D1EB1B3A0C1FFA87FC0121B3FB3F
S11351A0F2F8250C02FB183345EA03450CFB08F31F
S11351B0AB4207D9ED1908F1FF3002D2AB4200F23D
S11351C0D1808046ED1AA3B2B5FBF2F002FB105574
S11351D043EA05440CFB00FCA44507D9E41900F19B
S11351E0FF3302D2A44500F2B8801846A4EB0C04A5
S11351F040EA08409DE731463046BDE8F087CEF1ED
S1135200200405FA0EF307FA0EF720FA04F83A0C14
S113521025FA04F448EA0308B4FBF2F14FEA18450E
S113522002FB11441FFA87FC45EA044501FB0CF319
S1135230AB4200FA0EF409D9ED1901F1FF3080F008
S11352408A80AB4240F2878002393D44EB1A1FFA50
S113525088F5B3FBF2F002FB103345EA034500FB8B
S11352600CF3AB4207D9ED1900F1FF386FD2AB4212
S11352706DD902383D44EB1A40EA01418FE7C1F190
S1135280200722FA07F88B4005FA01F448EA0303E1
S113529020FA07FE4FEA134CFD404EEA040EB5FB1C
S11352A0FCF94FEA1E440CFB19551FFA83F844EA33
S11352B0054509FB08F4AC4202FA01F200FA01FACE
S11352C008D9ED1809F1FF3043D2AC4241D9A9F114
S11352D002091D442D1B1FFA8EFEB5FBFCF00CFBCE
S11352E010554EEA054400FB08F8A04507D9E41818
S11352F000F1FF3529D2A04527D902381C4440EAE1
S11353000940A4EB0804A0FB02894C45C6464D465F
S113531015D312D056B1BAEB0E0364EB050404FAAC
S113532007F7CB401F43CC40376074600021BDE8D1
S1135330F0871846F8E69046E0E6C245EAD2B8EBB4
S1135340020E69EB03050138E4E72846D7E7404637
S113535091E78146BEE7014678E702383C4445E7D9
S1135360084608E7A8F102083D442BE7704700BF50
S113537070B50D4E0D4CA41BA4100025A54209D1F7
S11353800B4E0C4C00F01AFAA41BA4100025A542E5
S113539005D170BD56F8253098470135EEE756F82B
S11353A0253098470135F2E7C8570000C857000078
S11353B0C8570000CC57000002440346934200D172
S11353C0704703F8011BF9E72E2E2F68616C2F73C9
S11353D072632F68616C5F6164635F73796E632EBF
S11353E0630000002E2E2F68616C2F7372632F6888
S11353F0616C5F63616D6572615F6173796E632E69
S1135400630000002E2E2F68616C2F7372632F6867
S1135410616C5F6D63695F73796E632E6300000076
S11354202E2E2F68616C2F7372632F68616C5F700E
S1135430776D2E63000000002E2E2F68616C2F7391
S113544072632F68616C5F74696D65722E6300000E
S11354502E2E2F68616C2F7372632F68616C5F75D9
S1135460736172745F6173796E632E630000000070
S11354702E2E2F68616C2F7574696C732F73726391
S11354802F7574696C735F6C6973742E630000000C
S11354902E2E2F68616C2F7574696C732F73726371
S11354A02F7574696C735F72696E67627566666581
S11354B0722E6300000000001800000000180000B5
S11354C00000000000000000000000002E2E2F68E5
S11354D0706C2F6164632F68706C5F6164632E630A
S11354E000000000005020000000000A000000003E
S11354F000000000000000000000000000000000A8
S11355000000000000000000000000000000000097
S11355100000000000000000000000000000000087
S11355200000000000000000000000000000000077
S11355300000000000000000000000000000000067
S11355400000000000000000000000000000000057
S11355500000000000000000000000000000000047
S11355600000000000000000000000000000000037
S11355700000000000000000000000000000000027
S11355800000000000000000000000000000000017
S11355900000000000000000000000000000000007
S11355A000000000000000000000000000000000F7
S11355B000000000000000000000000000000000E7
S11355C000000000000000000000000000000000D7
S11355D000000000000000000000000000000000C7
S11355E00000000006000000360000000700000074
S11355F03700000009000000190000000E00000040
S11356002E0000002E2E2F68706C2F6569632F68A2
S1135610706C5F6569632E63000000002E2E2F6896
S1135620706C2F736468632F68706C5F7364686355
S11356302E6300000030004000340040002001418F
S11356400040014100000043000400430500000045
S113565004001040000003000200700058FF000026
S11356600000000000000000000000000000000036
S11356700000000000000000000000000000000026
S11356800000000000000000000000000000000016
S11356900000000000000000000000000000000006
S11356A02E2E2F68706C2F736572636F6D2F687068
S11356B06C5F736572636F6D2E6300000038004089
S11356C0003C004000A0014100C001410014004220
S11356D0001800422E2E2F68706C2F74632F687090
S11356E06C5F74632E6300002E2E2F68616C2F692B
S11356F06E636C7564652F68616C5F63616D657260
S1135700615F6173796E632E680000000A00000017
S113571064000000E80300001027000000000000FF
S11357200000000000000000000000000A0000006B
S11357300C0000000D0000000F0000001400000029
S1135740190000001E0000002300000028000000D3
S11357502D00000032000000370000003C00000073
S11357604600000050000000000000000A00000095
S11357700C0000000D0000000F00000014000000E9
S11357801A0000001E000000230000002800000092
S11357902D00000034000000370000003C00000031
S11357A046000000500000002E2E2F73645F6D6DC4
S11357B0632F73645F6D6D632E630000F8B500BFE3
S11357C0F8BC08BC9E46704789020000F8B500BFCB
S10F57D0F8BC08BC9E467047650200004F
S10B57DCB4F8FF7F0100000096
S11357E400006B00000000000000003265EA0000C5
S11357F43275000001006C00080300000000000082
S11358044C1D0000000000000200000028000000FD
S10F581400040000FFFF0100250000005C
S9030000FC
