:10000000D8860320E9020000E5020000E5020000B6
:10001000E5020000E5020000E5020000000000002B
:10002000000000000000000000000000E5020000E9
:10003000E502000000000000E5020000E50200000B
:10004000E5020000E5020000E5020000E502000014
:10005000E5020000E5020000E5020000E502000004
:10006000E5020000E5020000E5020000E5020000F4
:10007000E5020000E5020000E5020000E5020000E4
:10008000E5020000E50200004517000051170000DE
:10009000E5020000E5020000E5020000E5020000C4
:1000A000E5020000E5020000E5020000E5020000B4
:1000B000E5020000E5020000E50200007115000005
:1000C0007D1500008915000095150000A1150000A0
:1000D000E5020000E5020000E5020000E502000084
:1000E000E5020000E5020000000000000000000042
:1000F00000000000D9180000E5020000E502000041
:10010000E5020000E5020000E5020000E502000053
:10011000E5020000E5020000E5020000E502000043
:10012000E5020000E5020000E5020000E502000033
:10013000E5020000E5020000E5020000E502000023
:10014000E5020000E5020000E5020000E502000013
:10015000E5020000E50200000000000000000000D1
:10016000000000000000000000000000000000008F
:10017000000000000000000000000000000000007F
:10018000E5020000E5020000E5020000E5020000D3
:1001900000000000E5020000E5020000E5020000AA
:1001A000E5020000E5020000E5020000E5020000B3
:1001B000E5020000E5020000E5020000E5020000A3
:1001C000E5020000E5020000E5020000E502000093
:1001D000E5020000E5020000E5020000E502000083
:1001E000E5020000E5020000E502000041220000F7
:1001F00055220000E5020000E5020000E5020000D3
:10020000E50200000000000000000000E502000020
:10021000E5020000E5020000E5020000E502000042
:10022000E5020000E5020000E5020000E502000032
:10023000E5020000E5020000E5020000E502000022
:10024000E5020000AD180000E5020000E502000034
:10025000E5020000E5020000E5020000E502000002
:100260000000000010B5054C237833B9044B13B1DE
:100270000448AFF300800123237010BD300000203C
:1002800000000000982600000C4B43B10C480D49BB
:1002900010B5AFF300800C48036823B910BD0A48BD
:1002A000036833B97047094B002BF7D0BDE8104005
:1002B0001847064B002BF5D0184700BF0000000080
:1002C000982600003400002098260000000000005E
:1002D00008B5024B9847024B984708BD550A0000E5
:1002E00011230000FEE7000008B5154B154A9A429D
:1002F00009D0134B134A03E0116819600433043228
:1003000011498B42F8D3114B02E000221A600433EA
:100310000F4A9342F9D30F4B0F4A22F07F029A60A3
:10032000D3F8882042F47002C3F88820BFF34F8FBF
:10033000BFF36F8F094B9847094B9847FEE700BF03
:10034000000000209826000030000020300000202F
:10035000D486022000ED00E0000000002D23000004
:10036000C522000008B5084A536943F400435361AD
:100370004022064BC3F8A420054B98470246054986
:100380000548064B984708BD00080040001C004087
:1003900039220000003C0040A0020020C90F0000EC
:1003A0000C4B04225A6002F180429A624FF04042A4
:1003B0009A6293F8422002F0FE0242F0010283F8B2
:1003C000422093F8312002F0F00242F0010283F85B
:1003D0003120704700800041044A136A43F08003D3
:1003E00013624022024BC3F82021704700080040EE
:1003F000001C004008B5054B9847054B9847002264
:1004000004490548054B984708BD00BFD9030000C3
:10041000A1030000001C0043600200206D0C0000DE
:1004200008B54022234BC3F89020234A536943F474
:1004300080635361214B4FF48002C3F8842020492C
:10044000C3F8A8101F4AC3F8A82093F8D62002F0DA
:10045000FB0283F8D62093F8D62002F0FE0242F089
:10046000010283F8D62093F8BB2002F0F00283F853
:10047000BB204FF40002C3F88420C3F8A810124A2E
:10048000C3F8A82093F8D72002F0FB0283F8D72006
:1004900093F8D72002F0FE0242F0010283F8D72041
:1004A00093F8BB2002F00F0283F8BB20074B98475C
:1004B00008BD00BF001C0040000800400080004153
:1004C00000000240400002C0800002C0410D000058
:1004D000584B93F84E2002F0FE0242F0010283F8DE
:1004E0004E2093F8372002F0F00242F00A0283F81F
:1004F000372093F8502002F0FE0242F0010283F808
:10050000502093F8382002F0F00242F00A0283F8FB
:10051000382093F8512002F0FE0242F0010283F8E5
:10052000512093F8382002F00F0242F0A00283F825
:10053000382093F8522002F0FE0242F0010283F8C4
:10054000522093F8392002F0F00242F00A0283F8B8
:10055000392093F8532002F0FE0242F0010283F8A2
:10056000532093F8392002F00F0242F0A00283F8E2
:10057000392093F8542002F0FE0242F0010283F881
:10058000542093F83A2002F0F00242F00A0283F875
:100590003A2093F8552002F0FE0242F0010283F85F
:1005A000552093F83A2002F00F0242F0A00283F89F
:1005B0003A2093F8562002F0FE0242F0010283F83E
:1005C000562093F83B2002F0F00242F00A0283F832
:1005D0003B2093F8572002F0FE0242F0010283F81C
:1005E000572093F83B2002F00F0242F0A00283F85C
:1005F0003B2093F84C2002F0FE0242F0010283F807
:100600004C2093F8362002F0F00242F00A0283F800
:10061000362093F84D2002F0FE0242F0010283F8EA
:100620004D2093F8362002F00F0242F0A00283F82A
:100630003620704700800041024A136A43F4006389
:10064000136270470008004008B5044B98470449FE
:100650000448054B9847054B984708BD39060000EC
:10066000002C00434C020020AD0C0000D10400001F
:10067000284B10225A619A6002F180429A624FF030
:100680004041996293F8442002F0FE0242F00102D8
:1006900083F8442093F8322002F0F00242F0030283
:1006A00083F8322020225A619A6002F180429A62D5
:1006B000996293F8452002F0FE0242F0010283F8AD
:1006C000452093F8322002F00F0242F0300283F806
:1006D000322040225A6002F1804202F500329A62D2
:1006E0000D4A9A6293F8462002F0FB0283F84620F6
:1006F00093F8462002F0FE0242F0010283F8462001
:1007000093F8332002F0F00242F0030283F8332022
:10071000704700BF00800041000002C0064B40222D
:10072000C3F89C204322C3F88C20044A536943F445
:1007300080535361704700BF001C00400008004018
:1007400008B5044B984704490448054B9847054BA6
:10075000984708BD1D0700000030004064020020DB
:10076000010E000071060000104B93F8D02002F03B
:10077000FE0242F0010283F8D02093F8B82002F084
:10078000F00242F0020283F8B82093F8D12002F080
:10079000FE0242F0010283F8D12093F8B82002F063
:1007A0000F0242F0200283F8B82070470080004119
:1007B000064B4022C3F80C214322C3F88C20044A84
:1007C000136A43F002031362704700BF001C00402D
:1007D0000008004008B5054B984700220449054829
:1007E000054B9847054B984708BD00BFB10700006F
:1007F000000400437C020020D510000069070000BF
:1008000070B45B4B4FF40065C3F88850594EC3F881
:10081000A8604FF04042C3F8A820C3F8945093F862
:10082000CB1001F0FB0183F8CB1093F8CB1001F053
:10083000FE0141F0010183F8CB1093F8B51001F0EF
:100840000F0141F0800183F8B5104FF48071996079
:10085000494898629A62596193F8481001F0FB0187
:1008600083F8481093F8481001F0FE0141F00101AF
:1008700083F8481093F8341001F0F00141F00801BA
:1008800083F834104FF40071996000F5807098621D
:100890009A62596193F8491001F0FB0183F84910FD
:1008A00093F8491001F0FE0141F0010183F849106D
:1008B00093F8341001F00F0141F0800183F83410F7
:1008C0004FF4806098602D4C9C629A62586193F856
:1008D0004A1001F0FB0183F84A1093F84A1001F026
:1008E000FE0141F0010183F84A1093F8351001F040
:1008F000F00141F0080183F835109D609E629A6214
:100900005D6193F84B1001F0FB0183F84B1093F8F5
:100910004B1001F0FE0141F0010183F84B1093F8F8
:10092000351001F00F0141F0800183F83510C3F854
:100930008800C3F8A840C3F8A820C3F8940093F82F
:10094000CA2002F0FB0283F8CA2093F8CA2002F002
:10095000FE0242F0010283F8CA2093F8B52002F0AB
:10096000F00242F0080283F8B52070BC704700BF67
:1009700000800041000800400001004000040040E9
:10098000054A136943F400431361044B4022C3F842
:100990003421C3F88C20704700080040001C004040
:1009A00008B5054B98474FF08A410448044B9847D7
:1009B000044B984708BD00BF810900008802002051
:1009C000750D00000108000008B50248024B984769
:1009D00008BD00BF10E000E0E90C0000084A92F8F2
:1009E000DE3003F0FE0343F0010382F8DE3092F8BC
:1009F000BF3003F0F00343F0040382F8BF307047C8
:100A000000800041044A536943F48043536140220B
:100A1000024BC3F8A420704700080040001C0040AF
:100A200008B5064B9847064B9847064B9847024631
:100A300005490648064B984708BD00BF050A000057
:100A4000DD0900003D220000003800403002002097
:100A5000BD0D000038B5764B9847764B80225A6022
:100A600002F1804202F500329A62734D9D6293F862
:100A7000472002F0FB0283F8472093F8472002F05A
:100A8000FE0283F847204FF40041596199606B4C96
:100A90009C624FF040429A6293F84F0000F0FE00D3
:100AA00083F84F004FF08070586198604FF080409D
:100AB00098626348986293F8580000F0FE0083F84B
:100AC00058004FF0007058605E48986200F1004096
:100AD00000F50070986293F8590000F0FB0083F86D
:100AE000590093F8590000F0FE0083F859000120E6
:100AF000C3F89400C3F8880000F18040C3F8A80050
:100B0000C3F8A82093F8C00000F0FE0083F8C000EE
:100B10000420C3F89400C3F8880000F18040C3F8B3
:100B2000A800C3F8A82093F8C20000F0FE0083F8E4
:100B3000C2002020C3F8840000F1804000F500309E
:100B4000C3F8A800C3F8A85093F8C50000F0FB0054
:100B500083F8C50093F8C50000F0FE0083F8C500D7
:100B60004FF40070C3F89400C3F8880000F180408F
:100B7000C3F8A800C3F8A82093F8C90000F0FE004D
:100B800083F8C9004FF48050C3F89800C3F8880078
:100B900000F18040C3F8A800C3F8A82093F8CC0067
:100BA00000F0FE0083F8CC004FF40050C3F894002E
:100BB000C3F8880000F18040C3F8A800C3F8A8205B
:100BC00093F8CD0000F0FE0083F8CD00C3F8881044
:100BD000C3F8A840C3F8A820C3F8941093F8CF2016
:100BE00002F0FB0283F8CF2093F8CF2002F0FE0240
:100BF00042F0010283F8CF2093F8B72002F00F02F1
:100C000042F0C00283F8B7200F4B98470F4B98472C
:100C10000F4B98470F4B98470F4B98470F4B9847F0
:100C20000F4B98470F4B98470F4B984738BD00BF65
:100C30009913000000800041000002C000800040C5
:100C4000000100C000000240F50300002104000084
:100C50004906000041070000D5070000A109000077
:100C6000C9090000210A00006503000038B50C46E0
:100C7000054660B149B1012039220649064B984723
:100C800021462846054B984738BD0020F4E7002050
:100C9000F2E700BF7423000021110000611300007F
:100CA00008B5036903B1984708BD000038B50D4683
:100CB000044678B161B1012032220749074B9847B9
:100CC00029462046064B9847064B2360002038BD36
:100CD0000020F1E70020EFE7902300002111000041
:100CE00075180000A10C000008B5024B1860024BFB
:100CF000984708BD4C000020F11D000038B50225C2
:100D0000002407E00D4A52F83330B3B1984738BD9C
:100D1000013AD5B2AC4210D82B195B10DAB2012AD5
:100D20000BD81346054901EBC20149688142E9D05D
:100D30008142EDD20132D4B2ECE738BD5000002040
:100D400008B500230AE0084A02EBC3014FF0FF3068
:100D50004860002142F8331001339BB2012BF2D9D5
:100D60000248034B984708BD50000020FD0C0000CE
:100D70007116000038B50C46054660B149B1012036
:100D800031220649064B984721462846054B98478D
:100D900038BD0020F4E70020F2E700BFB0230000D8
:100DA000211100001D19000008B5436903B19847DF
:100DB00008BD08B5836903B1984708BD38B50D462D
:100DC000044688B171B1012033220849084B984785
:100DD00029462046074B9847074B2360074B636023
:100DE000002038BD0020EFE70020EDE7CC23000015
:100DF00021110000B9200000A90D0000B30D000072
:100E000038B50D460446C0B1A9B1012040220C49B5
:100E10000C4B9847204640F8045F29460A4B9847F8
:100E2000002807DB4FF40043A382084B2361084BE3
:100E3000E360002038BD0020E8E70020E6E700BFBF
:100E4000E423000021110000611B0000D50E00000A
:100E5000990E000030B585B00C46054698B181B1B9
:100E60000120B32209490A4B98472368019363681C
:100E70000293A368039301A9281D064B984705B068
:100E800030BD0020EDE70020EBE700BFE4230000C9
:100E900021110000DD1C000070B584B00E4615461F
:100EA0000446A3220849003018BF0120074B984789
:100EB000002302930196039501A9A4F10C00044BB1
:100EC000984704B070BD00BFE4230000211100006A
:100ED000550E000070B584B00E46154604468722B4
:100EE0000849003018BF0120074B9847029600239D
:100EF0000193039501A9A4F10C00044B984704B099
:100F000070BD00BFE423000021110000550E000059
:100F1000F8B5076817B13C4600260BE00E4B984722
:100F2000F8BDA5682B449B1A01338D68AB4209D2EA
:100F30002646246834B163689342F2D8A5689B1AA8
:100F40002B44F2E7BC4203D03046044B9847F8BD2F
:100F5000014B9847F8BD00BF3D110000691100002A
:100F6000F8B54469066901360661037E13F0010F86
:100F700005D1037E13F0020F01D1054609E0037E7F
:100F800043F002030376F8BD6F69E3682046984793
:100F90003C469CB16368F31AA26893420ED305F1F4
:100FA00014073846064B9847237C012BECD166602A
:100FB000324621463846034B9847E5E7F8BD00BF67
:100FC00071110000110F000038B50D46044680B1C4
:100FD00069B101203B220849084B98472946204621
:100FE000074B984700202061064B236038BD002046
:100FF000F0E70020EEE700BF002400002111000010
:10100000E51E0000610F0000F8B50E4617460546C4
:1010100008B311B31ABB0020F1221249124B9847B2
:1010200005F108042046114B98470028F8D0002508
:10103000715D20460E4B984720460C4B9847002880
:10104000FAD00135BD42F3D320460A4B9847002819
:10105000FAD02846F8BD0020DEE70020DCE70120BA
:10106000DAE700BF1824000021110000431B000034
:10107000351B00004D1B00002DE9F0410F46904646
:101080000546C8B1D1B1DAB900204FF486720D49D6
:101090000D4B9847002605F1080420460B4B984756
:1010A0000028F8D020460A4B9847B85501364645E7
:1010B000F1D33046BDE8F0810020E6E70020E4E708
:1010C0000120E2E71824000021110000571B000056
:1010D0003B1B000038B50D460446A0B189B1012084
:1010E00034220A490A4B9847294604F10800094B63
:1010F0009847034618B9084A6260084A22601846B1
:1011000038BD0020ECE70020EAE700BF182400000B
:1011100021110000091B00007910000009100000D7
:1011200000B900BE704703681BB18B4203D01B6837
:10113000FAE70020704701207047000038B50446E8
:101140000D46064B984780F0010039220449C0B291
:10115000044B984723682B60256038BD2711000099
:10116000342400002111000003680B600160704707
:1011700003681BB11A680260184670470020704768
:1011800000F13D40A0F5E050C0F38720704700001B
:1011900010B4604B984200F09C805F4B984200F086
:1011A000A8800022036B13F0010F1BD1036B13F017
:1011B000030FFBD1038813F0020F0DD003889BB2FD
:1011C00023F002039BB20380036B13F0030FFBD1E8
:1011D000036B13F0020FFBD101230380036B13F0A9
:1011E000030FFBD1036B13F0010FFBD1A0F84820D4
:1011F00016234A4A03FB01239B88C380036BC3F376
:101200000B03002BFAD11623444A03FB01239B79DD
:101210000372036BC3F30B03002BFAD116233F4A6F
:1012200003FB0123DA7982701B898380036BC3F38C
:101230000B03002BFAD11623384A03FB01239B7AB8
:101240008372036BC3F30B03002BFAD11623334ACB
:1012500003FB0123DB7AC372036BC3F30B03002B85
:10126000FAD116232D4A03FB01239B898381036B4B
:1012700013F0800FFBD11623284A03FB0123DB89DF
:10128000C381036B13F4807FFBD11623234A03FB36
:1012900001231B8A0382036B13F4007FFBD1162307
:1012A0001E4A03FB01235B8A4382036B13F4806FA6
:1012B000FBD11622194B02FB01310B7DC3704B8809
:1012C0000380036B13F0030FFBD100205DF8044B88
:1012D00070474FF080131B685A09120202F4E06253
:1012E0001C0A240104F070042243C3F382031A434E
:1012F00058E74FF080131B68DA0C120202F4E06228
:101300009C0D240104F070042243C3F302431A43EA
:1013100048E700BF001C00430020004354240000A5
:1013200008B50B4B984700233BB1882209490020A0
:10133000094B98470023184608BD162202FB03F20A
:1013400006498A5C9042F6D00133DBB2ECE700BF7D
:10135000811100006C2400002111000054240000C1
:1013600038B50C460546D9220749003018BF012080
:10137000064B98472C602046054B9847014620466F
:10138000044B984738BD00BF6C24000021110000B9
:10139000211300009111000008B50C4A13889BB27C
:1013A00013800B4B98470B4B98470B4B98470B4BB5
:1013B000984740F6FF700A4B98470A4A136943F46E
:1013C00000731361084B984708BD00BF00400041FF
:1013D000C5170000E5170000B9170000E917000065
:1013E0005D170000000800405514000008B5174ABA
:1013F000138C03F01F0303EB4301880014490844D6
:10140000128C12F4807F05D1104A128C12F4007FE6
:101410000BD108BD1A0102F1824202F520420121DE
:1014200082F84E104368984708BD1A0102F18242C3
:1014300002F52042022182F84E1003EB430303FA27
:1014400001F2034B9B589847E3E700BF00A000411F
:101450006000002030B43C4A13889BB223F00203A2
:101460009BB2138053889BB223F47C539BB253806E
:1014700013889BB243F001031380334B1B8813F096
:10148000010FFAD1304A4FF470631380537B03F09D
:10149000FE035373002353612C4951632C4991631C
:1014A00016E02C4A52F83350274C191D09016018D8
:1014B000655002EBC3021179417151798171D48871
:1014C00022491A0188188C520022C2600133DBB213
:1014D0001F2BE6D900230AE003F11F010AB2002AFC
:1014E00010DA002A1CDA002A24DA0133DBB2042BDA
:1014F000F2D9154A13889BB243F0020313800020EF
:1015000030BC7047500901F01F050124AC40203069
:10151000114D45F82040BFF34F8FBFF36F8FE0E7C9
:10152000500901F01F050124AC4060300A4D45F818
:101530002040D8E7520901F01F01012000FA01F113
:10154000054840F82210D0E700A00041C00200206A
:10155000C00400208424000000E100E001EB410110
:101560008A00024B13440360002070476000002093
:1015700008B5014B984708BDED13000008B5014BB5
:10158000984708BDED13000008B5014B984708BD0A
:10159000ED13000008B5014B984708BDED1300009E
:1015A00008B5014B984708BDED13000070B582B037
:1015B0002A4B5A690192019A5A61294B1868EC2208
:1015C0002849003018BF0120274B98474FF0FF35BE
:1015D00035E0264B03EBC6067568B5F1FF3F03D037
:1015E0001F4B1B68284698470123A340019C24EA0F
:1015F00003040194019B93FAA3F4B4FA84F40BB9A5
:101600004FF0FF34B4F1FF3F14D00220002101E07D
:10161000013BD8B28142E0D84318C3F347031E46CA
:10162000124A12F83320A242D3D0A242F0DA013398
:10163000D9B2EFE7094B5A690192019A5A61019BAD
:101640004BB1019B93FAA3F4B4FA84F4002BD9D1E3
:101650004FF0FF34D6E702B070BD00BF0028004055
:10166000E0010020942500002111000084250000E5
:10167000314B5B6813F0010F20D12F4B5B6813F0E7
:10168000030FFAD12C4B1B7813F0020F0ED02A4A0D
:10169000137803F0FD031370274B5B6813F0030FFF
:1016A000FAD1254B5B6813F0020FFAD10122224BCD
:1016B0001A70214B5B6813F0030FFAD11E4B5B6865
:1016C00013F0010FFAD11C4A137803F0EF031370E3
:1016D000194B5B6813F0030FFAD1174B00225A70B5
:1016E0009A609A611A635A634FF03B41D9611A625A
:1016F0001A7842F002021A700F4B5B6813F0030F66
:10170000FAD10E4B4FF48022C3F88020BFF34F8FE5
:10171000BFF36F8FC3F880211A604FF40022C3F823
:101720008020BFF34F8FBFF36F8FC3F880211A6003
:10173000034B1860002070470028004000E100E0E3
:10174000E001002008B5014B984708BDAD15000029
:1017500008B5014B984708BDAD15000010F0010F0A
:1017600008D0114A114B1A62104B5A6843F6FD73A8
:101770001A42F9D110F0020F08D00D4A0B4B5A62F1
:101780000A4B5A6843F6FD731A42F9D110F0040F60
:1017900008D0084A054B9A62044B5A6843F6FD7319
:1017A0001A42F9D1704700BF07010100001C004038
:1017B00008090100050101000122014B5A7170471F
:1017C00000080040064B42F286029A8200229A7577
:1017D000DA75DA6902F47C52DA6101221A74704710
:1017E00000140040704700001D4A1E4B5A631D4BF9
:1017F000DB6B13F0060FFAD11A4B20229A630222F8
:1018000083F83020174BDB6B13F0020FFAD1144A28
:10181000144B9A64134B1B6D13F0060FFAD1114B46
:101820002022DA64022283F844200E4B1B6D13F051
:10183000020FFAD10B4B1B6C13F0010F04D1094BB3
:101840001B6C13F0020FF5D0064B5B6D13F0010F0C
:1018500004D1044B5B6D13F0020FF5D0704700BF4D
:10186000B7050D000010004008B58068036800212E
:10187000984708BD38B50446C160074B0B60074B5D
:101880001860074D00212846064B98472B689C603E
:10189000054A1A6038BD00BF200000C0E4010020E6
:1018A000C00600205D1500006918000000B583B077
:1018B000084B1868C3681A69019201229A60019B5B
:1018C00013F0010F03D003680BB10021984703B058
:1018D0005DF804FBE401002000B583B00D4B9B785C
:1018E000DBB20193019B13F0020F06D00A4B1B6879
:1018F0001BB1084A5068984709E0019B13F0010F9B
:1019000005D0054B5B6813B1024A5068984703B095
:101910005DF804FB00000241C406002038B50C4607
:10192000054648B331B30120D8221449144B9847D7
:101930002C6094F82F3043F0010384F82F3094F892
:101940002F3013F0010FFAD10E2384F82E300F231D
:1019500084F82930A38E9BB26FEA53236FEA4323A6
:10196000A386E38E9BB26FEA93236FEA8323E38619
:10197000002038BD0020D7E70020D5E7AC250000C7
:101980002111000070B487B006466C460C4D0FCD97
:101990000FC495E8030084E80300002005280AD856
:1019A00006AB03EB800353F8183CB34201D001307F
:1019B000F4E7C0B200E0002007B070BC704700BF81
:1019C000C425000008B50C4B9847002343B140F2F2
:1019D00047220A4900200A4B98470023184608BDB1
:1019E00003EB4302D100074A0A44127E9042F5D02D
:1019F0000133DBB2EAE700BF8519000030260000A2
:101A000021110000C425000038B504463C4B98471E
:101A1000E36913F0010F22D100EB4003DA00394BE8
:101A20001344DA6902F01C02E36913F0030FFBD1DF
:101A3000236813F0020F0BD0236823F00203236006
:101A4000E36913F0030FFBD1E36913F0020FFBD13D
:101A500042F001022260E36913F0030FFBD1E36956
:101A600013F0010FFBD100EB4003DA00254B1344C8
:101A7000DB692360E36913F0030FFBD100EB400344
:101A8000DA00204B13441B6A6360E36913F01F0FF5
:101A9000FBD142000244D1001A4B0B445A6AA260A7
:101AA000DB6913F4005F0AD113F4C04F07D100EBD8
:101AB0004003DA00134B13441B8DA3810FE0420057
:101AC0000244D1000F4B0B44198DA28961F30C0223
:101AD000A28193F82A20A38962F34F33A381094A94
:101AE00043001D18E9000D46114491F82B10A17315
:101AF0002A4492F82C3084F83030002038BD00BFE2
:101B0000C5190000C425000038B50C460546BB22A7
:101B10000549003018BF0120044B98472C6020462F
:101B2000034B984738BD00BF30260000211100004C
:101B3000091A00000368996270470368986AC0B286
:101B400070470368187E00F0010070470368187E34
:101B5000C0F3400070470368187EC0F380007047F0
:101B600070B506460C460846584B98470023002B94
:101B700068D00025002E70D0002C6CD0012040F6DB
:101B80003F125349534B9847002D00F09B80E36967
:101B900013F0010F1DD12B6803F01C02E36913F051
:101BA000030FFBD1236813F0020F0BD0236823F03F
:101BB00002032360E36913F0030FFBD1E36913F021
:101BC000020FFBD142F001022260E36913F0030F20
:101BD000FBD1E36913F0010FFBD134602B6803F0F4
:101BE0001C03082B3BD0002C68D0002D64D00120B2
:101BF00040F609123649374B98472B6823F4817316
:101C000023F001032360E36913F0030FFBD16B683A
:101C100023F4383323F4107343F400336360E3692F
:101C200013F0170FFBD12B7B23736B7B84F83030C1
:101C30006B6813F0070F43D101233371EB89F380F5
:101C4000002070BD10B10133DBB290E703EB031548
:101C5000214B1D448EE7002091E700208FE74CB315
:101C600035B3012040F61D1219491A4B98472B68CD
:101C700023F4817323F001032360E36913F0030F5E
:101C8000FBD16B6823F4083323F4107343F400335F
:101C900043F410736360E36913F0170FFBD1AB6873
:101CA00063626B7B84F83030E369002BFCD1BFE7C3
:101CB0000020D7E70020D5E7002099E7002097E72C
:101CC0000223BAE76FF00C0070BD00BF8519000059
:101CD00030260000211100001C260000F0B587B05E
:101CE00007460D4604680B6801934B680293002376
:101CF000039304930679B8B1A4B1012040F6A3225E
:101D00003449354B9847E36913F0070F5FD1E36916
:101D100013F0030FFBD1236813F0020F1ED16FF0F5
:101D2000130052E01846E9E70020E7E700222BE025
:101D300091F801E040EA0E20023101910132039254
:101D4000A06213F0800F32D10020002837DB039807
:101D5000AB68984202D3049A934230D9237EDBB217
:101D600013F0040FE2D0A16A029A4AB1501C02900B
:101D70001170012E04D9901C0290C1F307215170FB
:101D8000049A013204920122002ADAD1039A0499BA
:101D90009142D6D3F88813F0010FD2D001990029CF
:101DA000CCD0481C01900878012EC1D8C6E74FF668
:101DB000FF736383802323766FF01200C5E7237ED1
:101DC00013F0030FFBD00323237607B0F0BD6FF0B1
:101DD0000300FAE73026000021110000034B6FF0EA
:101DE0007F425A6005221A60704700BF10E000E091
:101DF00008B5014B984708BDDD1D000008B5C36854
:101E00009A7A12F0010F00D108BD01229A7203687C
:101E10009847F9E738B505460469A37A13F0010F2E
:101E200004D00123A372036803B19847637A13F0C7
:101E3000020F05D00223A3726B680BB128469847A6
:101E400038BD0000064B984203D0064B984203D0A1
:101E50007047054B1960F8E7034B5960F8E700BF7E
:101E600000380040003C0040E801002070B586B01A
:101E700006466C46174D0FCD0FC495E8030084E865
:101E800003000023052B0AD806AA02EB830252F8AE
:101E9000182CB24201D00133F4E7DBB200E000239A
:101EA0000022012A0BD802EB820081000A48415C23
:101EB000994202D00132D2B2F3E750B207E04FF4B8
:101EC000F47206490020064B98474FF0FF3006B0E9
:101ED00070BD00BF4C2600000000002064260000FA
:101EE0002111000070B506460C4608466C4B984719
:101EF0000546F4608F226B4901206B4B984723699C
:101F000013F0010F19D1236913F0030FFBD12368DC
:101F100013F0020F0BD0236823F002032360236920
:101F200013F0030FFBD1236913F0020FFBD1012340
:101F30002360236913F0030FFBD1236913F0010F12
:101F4000FBD105EB85039A00584B13445B68236073
:101F5000236913F0030FFBD1AA002A449100534BCD
:101F60000B449A7AE2731A89E280012222735B6839
:101F700003F00C03082B5BD0002B6DD105EB850320
:101F80009A004A4B13449B89A383236913F0C00F23
:101F9000FBD105EB85039A00444B13441B8AE38372
:101FA000236913F0C00FFBD1012363723146204631
:101FB0003F4B984705EB85039A003C4B1344B3F91C
:101FC0000230002B0DDB5A0903F01F03012101FA37
:101FD00003F32032374941F82230BFF34F8FBFF36C
:101FE0006F8F05EB85039A00304B1344B3F9023031
:101FF000002B09DB5A0903F01F03012101FA03F347
:1020000060322C4941F8223005EB8505AA00274BA8
:102010001344B3F90230002B08DB590903F01F0306
:10202000012202FA03F3234A42F82130002070BD56
:102030001E4B0B44DB68E361236913F0C00FFBD137
:1020400005EB85039A00194B13441B69236223692E
:1020500013F0C00FFBD1A7E7042BA5D105EB850337
:102060009A00124B13441B7B2377236913F0C00F94
:10207000FBD105EB85039A000C4B13441B7C637763
:10208000236913F0C00FFBD105EB85039A00074BC2
:102090001344DB7AE376236913F0200FFBD183E747
:1020A0006D1E0000642600002111000000000020C9
:1020B000451E000000E100E070B506460C460846EB
:1020C000594B984705463461236913F0010F19D124
:1020D000236913F0030FFBD1236813F0020F0BD019
:1020E000236823F002032360236913F0030FFBD15D
:1020F000236913F0020FFBD101232360236913F03E
:10210000030FFBD1236913F0010FFBD105EB85030E
:102110009A00464B13445B682360236913F0030F56
:10212000FBD1AA002A449100404B0B449A7AE273F7
:102130001A89E280032222735B6803F00C03082BE8
:1021400059D0002B6BD105EB85039A00374B134414
:102150009B89A383236913F0C00FFBD105EB850393
:102160009A00324B13441B8AE383236913F0C00F98
:10217000FBD1314620462E4B984705EB85039A004C
:102180002A4B1344B3F90230002B0DDB5A0903F03C
:102190001F03012101FA03F32032264941F82230BE
:1021A000BFF34F8FBFF36F8F05EB85039A001F4B73
:1021B0001344B3F90230002B09DB5A0903F01F0363
:1021C000012101FA03F360321A4941F8223005EB8C
:1021D0008505AA00154B1344B3F90230002B21DB0F
:1021E000590903F01F03012202FA03F3114A42F8CE
:1021F0002130002070BD0D4B0B44DB68E361236987
:1022000013F0C00FFBD105EB85039A00074B134475
:102210001B692362236913F0C00FFBD1A9E74FF0BC
:10222000FF3070BD002070BD6D1E0000000000205A
:10223000451E000000E100E00020704700207047CC
:1022400008B5024B1868024B984708BDE80100200A
:10225000151E000008B5024B5868024B984708BD90
:10226000E8010020FD1D0000144B0122C3F894205A
:10227000C3F8842002F1804202F50032C3F8A8209E
:102280000F49C3F8A81093F8C02002F0FE0283F8AB
:10229000C0200422C3F89420C3F8842002F18042B5
:1022A00002F50032C3F8A820C3F8A81093F8C220A2
:1022B00002F0FE0283F8C220704700BF0080004198
:1022C000000002C008B5044B9847044B9847012210
:1022D000034B1A60FEE700BFD10200006922000034
:1022E000D406002030B400233BB1084BFF241C71FE
:1022F0009860D9605A6330BC7047044C04EB4314B7
:102300000425A5760133DBB2EEE700BFF001002023
:1023100008B503490A4604310248034B984708BDF3
:102320002800002088020020E522000070B50D4E34
:102330000D4CA41BA4100025A54209D10B4E0C4C3A
:1023400000F09AF9A41BA4100025A54205D170BD88
:1023500056F8253098470135EEE756F8253098476E
:102360000135F2E784260000842600008426000060
:10237000882600002E2E2F68616C2F7372632F68E1
:10238000616C5F6164635F73796E632E630000004C
:102390002E2E2F68616C2F7372632F68616C5F63E0
:1023A000616D6572615F6173796E632E6300000019
:1023B0002E2E2F68616C2F7372632F68616C5F6DB6
:1023C00063695F73796E632E630000002E2E2F68A1
:1023D000616C2F7372632F68616C5F70776D2E6311
:1023E000000000002E2E2F68616C2F7372632F681F
:1023F000616C5F7370695F6D5F73796E632E6300EC
:102400002E2E2F68616C2F7372632F68616C5F745E
:10241000696D65722E6300002E2E2F68616C2F731C
:1024200072632F68616C5F75736172745F73796E2C
:10243000632E63002E2E2F68616C2F7574696C7388
:102440002F7372632F7574696C735F6C6973742E6C
:1024500063000000000000001800000000180000E9
:102460000000000000000000000000002E2E2F6879
:10247000706C2F6164632F68706C5F6164632E639E
:1024800000000000005020000000000A00000000D2
:10249000000000000000000000000000000000003C
:1024A000000000000000000000000000000000002C
:1024B000000000000000000000000000000000001C
:1024C000000000000000000000000000000000000C
:1024D00000000000000000000000000000000000FC
:1024E00000000000000000000000000000000000EC
:1024F00000000000000000000000000000000000DC
:1025000000000000000000000000000000000000CB
:1025100000000000000000000000000000000000BB
:1025200000000000000000000000000000000000AB
:10253000000000000000000000000000000000009B
:10254000000000000000000000000000000000008B
:10255000000000000000000000000000000000007B
:10256000000000000000000000000000000000006B
:10257000000000000000000000000000000000005B
:102580000000000006000000360000000700000008
:10259000370000002E2E2F68706C2F6569632F683E
:1025A000706C5F6569632E63000000002E2E2F683B
:1025B000706C2F736468632F68706C5F73646863FA
:1025C0002E63000000300040003400400020014134
:1025D00000400141000000430004004305000000EA
:1025E0000400104000000300020070002EFF0000F5
:1025F00000000000000000000000000000000000DB
:1026000000000000000000000000000000000000CA
:102610000000000000000000000000000C0020008E
:102620000000020000000000FE00FF0100000000AA
:102630002E2E2F68706C2F736572636F6D2F68700C
:102640006C5F736572636F6D2E630000003800402D
:10265000003C004000A0014100C0014100140042C4
:10266000001800422E2E2F68706C2F74632F687034
:102670006C5F74632E630000F8B500BFF8BC08BC43
:102680009E46704789020000F8B500BFF8BC08BC40
:082690009E4670476502000040
:1026980000006B00000000000000003270BB00006A
:1026A800B85D000001006C00080300000000000095
:1026B8006E17000000000000FFFF01002500000069
:00000001FF
