:10000000E88B0320E9020000E5020000E5020000A1
:10001000E5020000E5020000E5020000000000002B
:10002000000000000000000000000000E5020000E9
:10003000E502000000000000E5020000E50200000B
:10004000E5020000E5020000E5020000E502000014
:10005000E5020000E5020000E5020000E502000004
:10006000E5020000E5020000E5020000E5020000F4
:10007000E5020000E5020000E5020000E5020000E4
:10008000E5020000E5020000A51D0000B11D000012
:10009000E5020000BD1D0000E5020000E5020000D1
:1000A000E5020000E5020000C91D0000E5020000B5
:1000B000E5020000E5020000E5020000451B00002B
:1000C000511B00005D1B0000691B0000751B000038
:1000D000E5020000E5020000E5020000E502000084
:1000E000E5020000E5020000000000000000000042
:1000F0000000000021200000E5020000E5020000F1
:10010000E5020000E5020000E5020000E502000053
:10011000E5020000E5020000E5020000E502000043
:10012000E5020000E5020000E5020000E502000033
:10013000E5020000E5020000E5020000E502000023
:10014000E5020000E5020000CD280000E1280000E3
:10015000F528000009290000000000000000000050
:10016000000000000000000000000000000000008F
:10017000000000000000000000000000000000007F
:10018000E5020000E5020000E5020000E5020000D3
:1001900000000000E5020000E5020000E5020000AA
:1001A000E5020000E5020000E5020000E5020000B3
:1001B000E5020000E5020000E5020000E5020000A3
:1001C000E5020000E5020000E5020000E502000093
:1001D000E5020000E5020000E5020000E502000083
:1001E000E5020000E5020000E5020000C92E000063
:1001F000DD2E0000E5020000E5020000E50200003F
:10020000E50200000000000000000000E502000020
:10021000E5020000E5020000E5020000E502000042
:10022000E5020000E5020000E5020000E502000032
:10023000E5020000E5020000E5020000E502000022
:10024000E5020000F51F0000E5020000E5020000E5
:10025000E5020000E5020000E5020000E502000002
:100260000000000010B5054C237833B9044B13B1DE
:100270000448AFF300800123237010BD400000202C
:10028000000000008C4800000C4B43B10C480D49A5
:1002900010B5AFF300800C48036823B910BD0A48BD
:1002A000036833B97047094B002BF7D0BDE8104005
:1002B0001847064B002BF5D0184700BF0000000080
:1002C0008C480000440000208C4800000000000022
:1002D00008B5024B9847024B984708BDE509000056
:1002E000BD410000FEE7000008B5154B154A9A42D3
:1002F00009D0134B134A03E0116819600433043228
:1003000011498B42F8D3114B02E000221A600433EA
:100310000F4A9342F9D30F4B0F4A22F07F029A60A3
:10032000D3F8882042F47002C3F88820BFF34F8FBF
:10033000BFF36F8F094B9847094B9847FEE700BF03
:10034000000000208C480000380000204000002001
:10035000E48B022000ED00E000000000E944000012
:10036000D13C000008B5084A536943F40043536187
:100370004022064BC3F8A420054B98470246054986
:100380000548064B984708BD00080040001C004087
:10039000852E0000003C004038070020511200006C
:1003A0000C4B04225A6002F180429A624FF04042A4
:1003B0009A6293F8422002F0FE0242F0010283F8B2
:1003C000422093F8312002F0F00242F0010283F85B
:1003D0003120704700800041044A136A43F08003D3
:1003E00013624022024BC3F82021704700080040EE
:1003F000001C004008B5054B9847054B9847002264
:1004000004490548054B984708BD00BFD9030000C3
:10041000A1030000001C0043C8060020410C00009E
:1004200008B540223F4BC3F890203F4A536943F43C
:10043000806353613D4B4FF48002C3F884203C49F4
:10044000C3F8A8103B4AC3F8A82093F8D62002F0BE
:10045000FB0283F8D62093F8D62002F0FE0242F089
:10046000010283F8D62093F8BB2002F0F00283F853
:10047000BB204FF40002C3F88420C3F8A8102E4A12
:10048000C3F8A82093F8D72002F0FB0283F8D72006
:1004900093F8D72002F0FE0242F0010283F8D72041
:1004A00093F8BB2002F00F0283F8BB204FF00072DC
:1004B0005A609962214A9A6293F8592002F0FB022D
:1004C00083F8592093F8592002F0FE0242F001020D
:1004D00083F8592093F83C2002F00F0283F83C2067
:1004E0004FF48042C3F88420154AC3F8A820154A67
:1004F000C3F8A82093F8CE2002F0FB0283F8CE20A8
:1005000093F8CE2002F0FE0242F0010283F8CE20E2
:1005100093F8B72002F0F00283F8B7200A4B98470F
:1005200008BD00BF001C00400008004000800041E2
:1005300000000240400002C0800002C0000202C071
:1005400000400240000002C0390E0000584B93F8F2
:100550004E2002F0FE0242F0010283F84E2093F892
:10056000372002F0F00242F00A0283F8372093F8B5
:10057000502002F0FE0242F0010283F8502093F86E
:10058000382002F0F00242F00A0283F8382093F893
:10059000512002F0FE0242F0010283F8512093F84C
:1005A000382002F00F0242F0A00283F8382093F8BE
:1005B000522002F0FE0242F0010283F8522093F82A
:1005C000392002F0F00242F00A0283F8392093F851
:1005D000532002F0FE0242F0010283F8532093F808
:1005E000392002F00F0242F0A00283F8392093F87C
:1005F000542002F0FE0242F0010283F8542093F8E6
:100600003A2002F0F00242F00A0283F83A2093F80E
:10061000552002F0FE0242F0010283F8552093F8C3
:100620003A2002F00F0242F0A00283F83A2093F839
:10063000562002F0FE0242F0010283F8562093F8A1
:100640003B2002F0F00242F00A0283F83B2093F8CC
:10065000572002F0FE0242F0010283F8572093F87F
:100660003B2002F00F0242F0A00283F83B2093F8F7
:100670004C2002F0FE0242F0010283F84C2093F875
:10068000362002F0F00242F00A0283F8362093F896
:100690004D2002F0FE0242F0010283F84D2093F853
:1006A000362002F00F0242F0A00283F83620704795
:1006B00000800041024A136A43F4006313627047EA
:1006C0000008004008B5044B984704490448054B0E
:1006D0009847054B984708BDB5060000002C00431D
:1006E000B4060020650D00004D050000064B4022B9
:1006F000C3F80C214322C3F88C20044A136A43F048
:1007000002031362704700BF001C00400008004055
:10071000104B93F8D02002F0FE0242F0010283F861
:10072000D02093F8B82002F0F00242F0020283F8E1
:10073000B82093F8D12002F0FE0242F0010283F8C3
:10074000D12093F8B82002F00F0242F0200283F883
:10075000B82070470080004110B582B0064B984722
:10076000002300931023054A05490648064CA0477C
:10077000064B984702B010BDED0600005C0000205B
:1007800000040043CC060020CD1400001107000037
:1007900070B45B4B4FF40065C3F88850594EC3F8F2
:1007A000A8604FF04042C3F8A820C3F8945093F8D3
:1007B000CB1001F0FB0183F8CB1093F8CB1001F0C4
:1007C000FE0141F0010183F8CB1093F8B51001F060
:1007D0000F0141F0800183F8B5104FF480719960EA
:1007E000494898629A62596193F8481001F0FB01F8
:1007F00083F8481093F8481001F0FE0141F0010120
:1008000083F8481093F8341001F0F00141F008012A
:1008100083F834104FF40071996000F5807098628D
:100820009A62596193F8491001F0FB0183F849106D
:1008300093F8491001F0FE0141F0010183F84910DD
:1008400093F8341001F00F0141F0800183F8341067
:100850004FF4806098602D4C9C629A62586193F8C6
:100860004A1001F0FB0183F84A1093F84A1001F096
:10087000FE0141F0010183F84A1093F8351001F0B0
:10088000F00141F0080183F835109D609E629A6284
:100890005D6193F84B1001F0FB0183F84B1093F866
:1008A0004B1001F0FE0141F0010183F84B1093F869
:1008B000351001F00F0141F0800183F83510C3F8C5
:1008C0008800C3F8A840C3F8A820C3F8940093F8A0
:1008D000CA2002F0FB0283F8CA2093F8CA2002F073
:1008E000FE0242F0010283F8CA2093F8B52002F01C
:1008F000F00242F0080283F8B52070BC704700BFD8
:100900000080004100080040000100400004004059
:10091000054A136943F400431361044B4022C3F8B2
:100920003421C3F88C20704700080040001C0040B0
:1009300008B5054B98474FF08A410448044B984747
:10094000044B984708BD00BF110900002007002094
:100950003D0F00009107000008B50248024B984780
:1009600008BD00BF10E000E0A10D0000084A92F8A9
:10097000DE3003F0FE0343F0010382F8DE3092F82C
:10098000BF3003F0F00343F0040382F8BF30704738
:1009900000800041044A536943F48043536140227C
:1009A000024BC3F8A420704700080040001C004020
:1009B00008B5064B9847064B9847064B98470246A2
:1009C00005490648064B984708BD00BF9509000039
:1009D0006D090000892E00000038004098060020B4
:1009E000E910000070B5884B9847884B10225A6177
:1009F0009A6002F180429A624FF040429A6293F804
:100A0000441001F0FE0183F8441020255D619D60D3
:100A10007F4999629A6293F8451001F0FE0183F8CC
:100A200045104021596001F1804101F50031996282
:100A30007848986293F8461001F0FB0183F846105D
:100A400093F8461001F0FE0183F8461080215960AA
:100A500001F1804101F500319962986293F84710E5
:100A600001F0FB0183F8471093F8471001F0FE01F5
:100A700083F847104FF4004159619960664C9C62BD
:100A80009A6293F84F6006F0FE0683F84F604FF0CD
:100A900080765E619E604FF080469E625F4E9E62F1
:100AA00093F8586006F0FE0683F858600126C3F8F4
:100AB0009460C3F8886006F18046C3F8A860C3F864
:100AC000A82093F8C06006F0FE0683F8C0600226F6
:100AD000C3F89460C3F8886006F18046C3F8A86044
:100AE000C3F8A82093F8C16006F0FE0683F8C16041
:100AF0000426C3F89460C3F8886006F18046C3F802
:100B0000A860C3F8A82093F8C26006F0FE0683F838
:100B1000C260C3F8845005F1804505F50035C3F87F
:100B2000A850C3F8A80093F8C50000F0FB0083F8B4
:100B3000C50093F8C50000F0FE0083F8C5004FF42F
:100B40000070C3F89400C3F8880000F18040C3F837
:100B5000A800C3F8A82093F8C90000F0FE0083F8AD
:100B6000C9004FF48050C3F89800C3F8880000F122
:100B70008040C3F8A800C3F8A82093F8CC0000F088
:100B8000FE0083F8CC004FF40050C3F89400C3F883
:100B9000880000F18040C3F8A800C3F8A82093F8AB
:100BA000CD0000F0FE0083F8CD00C3F88810C3F834
:100BB000A840C3F8A820C3F8941093F8CF2002F0FF
:100BC000FB0283F8CF2093F8CF2002F0FE0242F020
:100BD000010283F8CF2093F8B72002F00F0242F011
:100BE000C00283F8B7200E4B98470E4B98470E4B28
:100BF00098470E4B98470E4B98470E4B98470E4B15
:100C000098470E4B984770BD69190000008000415D
:100C100020000040000002C000800040000100C031
:100C2000F503000021040000C5060000590700007C
:100C30003109000059090000B109000065030000F6
:100C400038B50C46054660B149B101203922064944
:100C5000064B984721462846054B984738BD00204B
:100C6000F4E70020F2E700BF304500006115000006
:100C70009118000038B50D4604464E220549003053
:100C800018BF0120044B984729462046034B98473C
:100C9000002038BD3045000061150000C918000073
:100CA0002DE9F0470D46904699460746C8B1D2B1A6
:100CB000DBB90020DFF884A0672251461A4EB04706
:100CC0003C463846194B9847074699FBF0F007FB1E
:100CD000109069225146B0FA80F04009B0470026D2
:100CE00009E00020E6E70020E4E70120E2E73E44D7
:100CF000B6B2B14515D920460D4B98472946204636
:100D00000C4B98470028F9D0294620460A4B9847B3
:100D100008F80600012FEAD9731C000A08F803003E
:100D2000E5E73046BDE8F08761150000DF180000F8
:100D3000FF180000F31800001519000030450000EE
:100D4000EFF31083036072B6BFF35F8F7047BFF39A
:100D50005F8F036883F31088704708B5036903B198
:100D6000984708BD38B50D46044678B161B10120F9
:100D700032220749074B984729462046064B984799
:100D8000064B2360002038BD0020F1E70020EFE78C
:100D90004C45000061150000BD1F00005B0D000008
:100DA00008B5024B1860024B984708BD6C00002044
:100DB0003129000010B5044B1C68044B98470146CC
:100DC0002046034B984710BD6C0000203D190000E1
:100DD0003D29000010B5044B1C68044B98470146A0
:100DE0002046034B984710BD6C00002059190000A5
:100DF0003D29000038B50425002407E00D4A52F8CB
:100E00003330B3B1984738BD013AD5B2AC4210D8AF
:100E10002B195B10DAB2032A0BD81346054901EBF4
:100E2000C20149688142E9D08142EDD20132D4B297
:100E3000ECE738BD7000002008B500230AE0084A3E
:100E400002EBC3014FF0FF304860002142F833103D
:100E500001339BB2032BF2D90248034B984708BDDC
:100E600070000020F50D0000451C0000F0B583B0B7
:100E700004460023032B0ED818462E4A02EBC30269
:100E80005268A24202D00133DBB2F3E7294B43F8A8
:100E90003010012700E0002759B1002F3DD1002379
:100EA000032B13D8234A52F8332042B10133DBB26B
:100EB000F6E7002F38D020461F4B984732E01D4AF6
:100EC00042F8331002EBC30254600127002201E014
:100ED0000132D2B2032A20D8032B1ED89E461549D0
:100EE00001EBC300406801EBC20149688842EFD2C0
:100EF000B1F1FF3FECD00F4E06EBC20595E80300C1
:100F00008DE8030006EBC30696E8030085E80300BE
:100F10009DE8030086E80300DAE747B10121204697
:100F2000054B984703B0F0BD6FF00C00FAE76FF087
:100F30000C00F7E7700000204D1D000038B50C468E
:100F4000054660B149B1012031220649064B984758
:100F500021462846054B984738BD0020F4E700207D
:100F6000F2E700BF6C450000611500007922000027
:100F7000F0B583B00D4616461F4604464422084984
:100F8000003018BF0120074B98479DF82030009390
:100F90003B46324629462046034CA04703B0F0BDED
:100FA0006C45000061150000E122000038B50D46D7
:100FB00004464D220549003018BF0120044B9847D4
:100FC00029462046034B984738BD00BF6C450000BA
:100FD000611500007523000070B50D4616460446E5
:100FE00072220649003018BF0120054B984732464F
:100FF00029462046034B984770BD00BF6C45000052
:10100000611500007923000010B504467B220549D4
:10101000003018BF0120044B98472046034B9847E7
:1010200010BD00BF6C45000061150000D123000019
:10103000F0B583B00D4616461F46044690220A4975
:10104000003018BF0120094B98479DF824300193C8
:10105000BDF8203000933B46324629462046044CDA
:10106000A04703B0F0BD00BF6C4500006115000053
:10107000FD23000070B50C461646054668B151B117
:101080000120BE220649074B984732462146284692
:10109000054B984770BD0020F3E70020F1E700BF43
:1010A0006C450000611500006525000010B5044680
:1010B000D0220549003018BF0120044B9847204634
:1010C000034B984710BD00BF6C4500006115000040
:1010D000E525000008B5436903B1984708BD08B588
:1010E000836903B1984708BD38B50D46044688B1F9
:1010F00071B1012033220849084B98472946204600
:10110000074B9847074B2360074B6360002038BDAF
:101110000020EFE70020EDE78845000061150000A2
:10112000392C0000D5100000DF10000010B5044677
:101130004A220949003018BF0120084B9847204631
:10114000074B984720B92046064B9847002010BD12
:101150006FF0100010BD00BF884500006115000051
:10116000732E0000CD2D000070B50D4616460446C6
:101170007C220649003018BF0120054B98473246B3
:1011800029462046034B9847002070BD8845000043
:1011900061150000E12D0000F8B5076817B13C4665
:1011A00000260BE00E4B9847F8BDA5682B449B1A10
:1011B00001338D68AB4209D22646246834B1636896
:1011C0009342F2D8A5689B1A2B44F2E7BC4203D0A5
:1011D0003046044B9847F8BD014B9847F8BD00BF17
:1011E0007D150000A9150000F8B5446906690136AF
:1011F0000661037E13F0010F05D1037E13F0020F89
:1012000001D1054609E0037E43F002030376F8BDF1
:101210006F69E368204698473C469CB16368F31ABF
:10122000A26893420ED305F114073846064B98473F
:10123000237C012BECD16660324621463846034BB5
:101240009847E5E7F8BD00BFB1150000991100000F
:1012500038B50D46044680B169B101203B220849EA
:10126000084B984729462046074B984700202061A5
:10127000064B236038BD0020F0E70020EEE700BFFA
:10128000A045000061150000652A0000E91100007A
:1012900010B5044653220949003018BF0120084BFD
:1012A00098472046074B984720B92046064B984759
:1012B000002010BD6FF0100010BD00BFA045000061
:1012C00061150000612E0000B92D000070B582B0DC
:1012D0000D46044620B309B301207A221F49204B52
:1012E0009847237E43F00103237604F11406294630
:1012F00030461C4B9847A8B923696B602269294680
:101300003046194B9847237E03F0FE032376237E55
:1013100013F0020F12D1002002B070BD0020DCE7F4
:101320000020DAE7237E03F0FE0323767F220B49B9
:1013300000200B4B98476FF01100EDE701A80B4B15
:101340009847237E03F0FD0323762046084B9847F9
:1013500001A8084B98470020DEE700BFA045000029
:10136000611500006715000099110000410D000093
:101370008D2E00004F0D000008B500238362C36965
:101380001BB1A0F108021046984708BD08B500231C
:101390008362436A1BB1A0F108021046984708BD5A
:1013A00038B50446A0F108052C30034B9847236A52
:1013B0000BB12846984738BD4D16000070B50E4653
:1013C00015460446D8B1E1B1EAB9002040F23B121B
:1013D0000F49104B9847B4F84420B4F84C309A4267
:1013E00013D1A664A4F84C500023A4F84430012380
:1013F000236304F10800084B9847284670BD00207D
:10140000E4E70020E2E70120E0E76FF01B0070BD99
:10141000B845000061150000BB28000010B5044667
:10142000838FB0F84420934209D0026C591C818705
:10143000D15C044B98472046034B984710BD034BA3
:10144000984710BDB5280000BB280000C328000045
:101450002DE9F04182B0884616460546A0B1A9B1F3
:10146000B2B900204FF4AC721249134B984701A84F
:10147000124B984734352846114B9847074601A828
:10148000104B984700240BE00020EBE70020E9E731
:101490000120E7E70134A4B2414428460A4B9847AB
:1014A0002146A74201D9B442F4D3204602B0BDE898
:1014B000F08100BFB845000061150000410D00003B
:1014C0008D1600004F0D000005160000F8B50D4602
:1014D00016461F46044618B321B32AB333BB002077
:1014E0003A221549154B98473A46314604F13400E3
:1014F000134B9847E0B9294604F10800114B98476F
:10150000034658B9104A6260104A2260104AA2602D
:10151000104AE260104A2261104A62611846F8BD22
:101520000020DDE70020DBE70020D9E70120D7E736
:101530006FF00C03F2E700BFB84500006115000032
:10154000C11500003128000051140000BD13000037
:101550001D140000A1130000791300008D1300007A
:1015600000B900BE704703681BB18B4203D01B68F3
:10157000FAE70020704701207047000038B50446A4
:101580000D46064B984780F0010039220449C0B24D
:10159000044B984723682B60256038BD6715000011
:1015A000D84500006115000003680B6001607047BA
:1015B00003681BB11A680260184670470020704724
:1015C00070B50E461546044678B181B18AB900203F
:1015D00028220A490A4B98476B1E1D420BD16360B3
:1015E0000020A060E060266070BD0020F0E70020D1
:1015F000EEE70120ECE76FF00C0070BDF84500004D
:101600006115000038B50D460446A8B191B101201E
:1016100040220C490C4B9847E268A3689A420DD0CF
:10162000226861680B40D35C2B70A3680133A36010
:10163000002038BD0020EBE70020E9E76FF009004B
:1016400038BD00BFF84500006115000038B50D46F3
:10165000044651220B49003018BF01200A4B98471D
:101660002268E36861680B40D554E368A2689A1A5F
:1016700061688A4201D9591AA1600133E3600020F0
:1016800038BD00BFF84500006115000010B50446E4
:1016900067220549003018BF0120044B9847E068D5
:1016A000A368C01A10BD00BFF84500006115000016
:1016B00000F13D40A0F5E050C0F3872070470000E6
:1016C00010B4604B984200F09C805F4B984200F051
:1016D000A8800022036B13F0010F1BD1036B13F0E2
:1016E000030FFBD1038813F0020F0DD003889BB2C8
:1016F00023F002039BB20380036B13F0030FFBD1B3
:10170000036B13F0020FFBD101230380036B13F073
:10171000030FFBD1036B13F0010FFBD1A0F848209E
:1017200016234A4A03FB01239B88C380036BC3F340
:101730000B03002BFAD11623444A03FB01239B79A8
:101740000372036BC3F30B03002BFAD116233F4A3A
:1017500003FB0123DA7982701B898380036BC3F357
:101760000B03002BFAD11623384A03FB01239B7A83
:101770008372036BC3F30B03002BFAD11623334A96
:1017800003FB0123DB7AC372036BC3F30B03002B50
:10179000FAD116232D4A03FB01239B898381036B16
:1017A00013F0800FFBD11623284A03FB0123DB89AA
:1017B000C381036B13F4807FFBD11623234A03FB01
:1017C00001231B8A0382036B13F4007FFBD11623D2
:1017D0001E4A03FB01235B8A4382036B13F4806F71
:1017E000FBD11622194B02FB01310B7DC3704B88D4
:1017F0000380036B13F0030FFBD100205DF8044B53
:1018000070474FF080131B685A09120202F4E0621D
:101810001C0A240104F070042243C3F382031A4318
:1018200058E74FF080131B68DA0C120202F4E062F2
:101830009C0D240104F070042243C3F302431A43B5
:1018400048E700BF001C0043002000431C46000086
:1018500008B50B4B984700233BB18822094900206B
:10186000094B98470023184608BD162202FB03F2D5
:1018700006498A5C9042F6D00133DBB2ECE700BF48
:10188000B116000034460000611500001C4600003F
:1018900038B50C460546D9220749003018BF01204B
:1018A000064B98472C602046054B9847014620463A
:1018B000044B984738BD00BF344600006115000056
:1018C00051180000C1160000026813889BB243F053
:1018D00002031380136B13F0030FFBD170470368EF
:1018E000DB88C3F3C103032B01D002207047012022
:1018F0007047036893F82E0000F0010070470268FB
:10190000137D43F002031375136BC3F30B03002B1A
:10191000FAD170470368B3F8400080B27047000006
:10192000430900F01F00012202FA00F04033024A8E
:1019300042F82300704700BF00E100E04FF4167347
:1019400003FB00F00138034BA3FB0030C00801305B
:10195000704700BFCDCCCCCC4FF4167303FB00F026
:10196000642303FB00F0704710B50D4A13889BB247
:1019700013800C4B98470C4B98470C4B98470C2006
:101980000B4CA0470B4B984740F6F370A0470A4A10
:10199000136943F400731361084B984710BD00BFEF
:1019A00000400041591E0000791E00004D1E00003D
:1019B000D51D00007D1E000000080040291A00000F
:1019C00008B5174A138C03F01F0303EB430188008B
:1019D00014490844128C12F4807F05D1104A128CED
:1019E00012F4007F0BD108BD1A0102F1824202F508
:1019F0002042012182F84E104368984708BD1A0121
:101A000002F1824202F52042022182F84E1003EBDD
:101A1000430303FA01F2034B9B589847E3E700BFE7
:101A200000A000419000002030B43C4A13889BB2D3
:101A300023F002039BB2138053889BB223F47C53A0
:101A40009BB2538013889BB243F001031380334B46
:101A50001B8813F0010FFAD1304A4FF470631380E2
:101A6000537B03F0FE035373002353612C495163EE
:101A70002C49916316E02C4A52F83350274C191D1B
:101A800009016018655002EBC30211794171517967
:101A90008171D48822491A0188188C520022C260B0
:101AA0000133DBB21F2BE6D900230AE003F11F014B
:101AB0000AB2002A10DA002A1CDA002A24DA0133DA
:101AC000DBB2042BF2D9154A13889BB243F0020310
:101AD0001380002030BC7047500901F01F0501241D
:101AE000AC402030114D45F82040BFF34F8FBFF37D
:101AF0006F8FE0E7500901F01F050124AC40603012
:101B00000A4D45F82040D8E7520901F01F01012095
:101B100000FA01F1054840F82210D0E700A000418A
:101B200060070020600900204C46000000E100E052
:101B300001EB41018A00024B13440360002070470F
:101B40009000002008B5014B984708BDC11900005E
:101B500008B5014B984708BDC119000008B5014BF5
:101B6000984708BDC119000008B5014B984708BD4A
:101B7000C119000008B5014B984708BDC119000004
:101B800070B582B02A4B5A690192019A5A61294B69
:101B90001868F4222849003018BF0120274B9847C5
:101BA0004FF0FF3535E0264B03EBC6067568B5F1FF
:101BB000FF3F03D01F4B1B68284698470123A340D3
:101BC000019C24EA03040194019B93FAA3F4B4FA60
:101BD00084F40BB94FF0FF34B4F1FF3F14D004206C
:101BE000002101E0013BD8B28142E0D84318C3F3A1
:101BF00047031E46124A12F83320A242D3D0A24213
:101C0000F0DA0133D9B2EFE7094B5A690192019A30
:101C10005A61019B4BB1019B93FAA3F4B4FA84F48B
:101C2000002BD9D14FF0FF34D6E702B070BD00BF12
:101C300000280040100200206C47000061150000E1
:101C40004C4700003D4B5B6813F0010F20D13B4B2C
:101C50005B6813F0030FFAD1384B1B7813F0020FB7
:101C60000ED0364A137803F0FD031370334B5B68D4
:101C700013F0030FFAD1314B5B6813F0020FFAD166
:101C800001222E4B1A702D4B5B6813F0030FFAD113
:101C90002A4B5B6813F0010FFAD1284A137803F03E
:101CA000EF031370254B5B6813F0030FFAD1234B3E
:101CB00000225A709A609A611A635A634FF03B424D
:101CC000DA611F4A1A621A7842F002021A701B4B3C
:101CD0005B6813F0030FFAD11A4B4FF48022C3F85C
:101CE0008020BFF34F8FBFF36F8FC3F880211A603E
:101CF0004FF40022C3F88020BFF34F8FBFF36F8FE4
:101D0000C3F880211A604FF40012C3F88020BFF39B
:101D10004F8FBFF36F8FC3F880211A604FF080623E
:101D2000C3F88020BFF34F8FBFF36F8FC3F88021BC
:101D30001A60054B18600020704700BF0028004063
:101D4000B000000A00E100E01002002010B40023FF
:101D5000032B0DD81C46114A02EBC3025268824283
:101D600002D00133DBB2F3E70C4B13F8342000E070
:101D7000FF22FF2A0FD041B901239340084AD360C4
:101D8000536100205DF8044B704701239340044ADF
:101D900013610020F6E74FF0FF30F3E74C470000F7
:101DA0000028004008B5014B984708BD811B000082
:101DB00008B5014B984708BD811B000008B5014BD1
:101DC000984708BD811B000008B5014B984708BD26
:101DD000811B000010F0010F08D0174A174B1A6240
:101DE000164B5A6843F6FD731A42F9D110F0020FF0
:101DF00008D0134A114B5A62104B5A6843F6FD73D0
:101E00001A42F9D110F0040F08D00E4A0B4B9A6217
:101E10000A4B5A6843F6FD731A42F9D110F0080FC5
:101E200008D0094A054BDA62044B5A6843F6FD7341
:101E30001A42F9D1704700BF07010200001C0040A0
:101E4000070B020005010100060110000122014BF1
:101E50005A71704700080040064B42F28E229A8267
:101E600000229A75DA75DA6902F47C52DA6101228D
:101E70001A7470470014004070470000494A136A02
:101E800023F00F0343F004031362464B5A6843F6F2
:101E9000FD731A42F9D1434B5B6813F0040FFAD17A
:101EA000414B00221A7742213E4AC2F880103F4A35
:101EB0009A623D4B93F82C3013F0100FF9D10022A9
:101EC000394B83F82020384B93F82C3013F0040F53
:101ED000F9D10222344B1A77334B93F82C3013F09C
:101EE000020FF9D1304B5A6A5A622F4B93F82C30BB
:101EF00013F0080FF9D181222B4B83F820202A4BB5
:101F000093F82C3013F0040FF9D14322254BC3F87A
:101F100084202722A3F540635A63234BDB6B13F025
:101F2000060FFAD1204B00229A63022283F8302058
:101F30001D4BDB6B13F0020FFAD11B4B93F82030D3
:101F400013F0010F27D0184B1B6903F41063B3F58E
:101F5000106FF8D1144B1B6C13F0010F04D1124B0E
:101F60001B6C13F0020FF5D00E4B5B68002BFBD1FE
:101F70000C4A136A23F00F0343F007031362094B63
:101F80005A6843F6FD731A42F9D1064B5B6813F0A9
:101F9000040FFAD17047044B1B6913F4807FFAD009
:101FA000D8E700BF001C004000100040B9057F7C4E
:101FB00008B5806803680021984708BD38B5044615
:101FC000C160074B0B60074B1860074D0021284686
:101FD000064B98472B689C60054A1A6038BD00BFC5
:101FE000200000C014020020600B0020311B000004
:101FF000B11F000000B583B0084B1868C3681A69A8
:10200000019201229A60019B13F0010F03D0036833
:102010000BB10021984703B05DF804FB14020020C7
:1020200000B583B00D4B9B78DBB20193019B13F09D
:10203000020F06D00A4B1B681BB1084A506898472C
:1020400009E0019B13F0010F05D0054B5B6813B14C
:10205000024A5068984703B05DF804FB0000024153
:10206000640B002010B4838D13F0040F09D0446A70
:1020700014F0030FFBD1848DA4B224F00404A4B2A5
:102080008485446CC4F30744002C35D1224B002ACC
:1020900034D1828D92B222F0200292B28285B3FBBB
:1020A000F1F1490890F8283013F0040F01D001B97C
:1020B00001218AB2838DDBB243EA02239BB283857E
:1020C000C1F30F21838D9BB223F0C003890101F07E
:1020D000C00119438185838D9BB243F00103838541
:1020E000838D13F0020FFBD0838D9BB243F004036A
:1020F00083855DF8044B7047084BC8E7828D92B228
:1021000042F02002828504FB0333B3FBF1F1002986
:10211000C8D00139C6E700BF00A0930300D0C901B1
:1021200010B5044634220649003018BF0120054B83
:10213000984794F82F3043F0020384F82F3010BDF5
:10214000844700006115000010B504467F220B494A
:10215000003018BF01200A4B98474FF0FF33626AE6
:10216000591E2BB10B4612F4801FF8D0012010BD70
:102170002046044B9847002010BD00BF8447000054
:102180006115000021210000F8B50F4615461E46D6
:10219000044699223449003018BF0120334B984738
:1021A000290201F47C51394315F4807F04D015F4E1
:1021B000006F0ED041F0010115F4804F12D094F859
:1021C000043243F0100384F80432A6608BB2E3813A
:1021D00017E015F4005F02D041F00301ECE741F095
:1021E0000201E9E794F8043203F0EF0384F80432C3
:1021F000EBE740F27F22134218D1238E13F0010F38
:1022000020D1638E9BB215F4805FF2D040F25D2244
:102210001342F2D02046164B9847638E9BB26FEA6A
:1022200093236FEA832363860020F8BD2046104B7A
:102230009847638E9BB26FEA93236FEA832363868A
:102240000020F8BD11F0200F04D1238E9BB243F083
:102250000103238615F4005F01D10120F8BD20465B
:10226000044B9847F8BD00BF84470000611500008B
:10227000212100004921000038B50C46054648B32D
:1022800031B30120D8221449144B98472C6094F89C
:102290002F3043F0010384F82F3094F82F3013F0DF
:1022A000010FFAD10E2384F82E300F2384F8293041
:1022B000A38E9BB26FEA53236FEA4323A386E38E78
:1022C0009BB26FEA93236FEA8323E386002038BD35
:1022D0000020D7E70020D5E7844700006115000003
:1022E000F8B516461D469DF818700446E0B103681F
:1022F000C3B101204FF480721B491C4B98472468DE
:10230000A7B194F8283043F0040384F82830E38F11
:1023100013F4004F11D0012D15D0042D1BD06FF0F8
:102320000C00F8BD0020E5E70020E3E794F8283032
:1023300003F0FB0384F82830E9E700223146204609
:102340000B4B9847E7E794F8283003F0FD0384F837
:1023500028300020F8BD94F8283043F0020384F8B8
:1023600028300020F8BD00BF844700006115000040
:10237000652000000020704770B50D4616460446E3
:1023800080B1036863B101204FF4AB720D490E4B6D
:1023900098472068436A13F0010F05D0002070BDF4
:1023A0000020F1E70020EFE783899BB223F00103CF
:1023B0009BB283810021C18033462A46034CA0474B
:1023C00070BD00BF84470000611500008921000036
:1023D00010B5044660B1036843B101204FF4B572F3
:1023E0000449054B98472368186910BD0020F5E79C
:1023F0000020F3E784470000611500002DE9F0415B
:102400000D4690461F46BDF818600446002831D09E
:1024100003686BB3012040F293122149214B984786
:102420002068436A13F0010F31D1436A13F0020FA1
:1024300030D115F4004F1FD0002315F4803F04D194
:1024400015F4003F1AD043F022039BB28381C7F3F7
:1024500009038380C68000220023C4E90223278267
:10246000668243462A4620210F4CA047BDE8F081F2
:102470000020D0E70020CEE71023DEE715F4002F80
:10248000E3D115F4801F08D043F02203DDE70020DC
:10249000BDE8F0810020BDE8F0810020BDE8F081BA
:1024A000844700006115000089210000F8B50F463F
:1024B000054600283FD00368002B3AD0012040F2A7
:1024C0000F222449244B98472C682A8A0023D5E9F7
:1024D0000201224EB04713430CD1638E03F0700308
:1024E0005BBB238E13F0100FF7D0238E9BB243F00B
:1024F000100323862762D5E90223043243F1000347
:10250000C5E90223288A6E8AA0FB06018B4208BF18
:1025100082421CD3638E03F070039BB9238E13F0A9
:10252000020FF7D0238E9BB243F0020323860120D3
:10253000F8BD0020C3E70020C1E72046084B9847BC
:102540000020F8BD2046064B98470020F8BD01202A
:10255000F8BD00BF8447000061150000D9410000AC
:10256000212100002DE9F0410E4690460746F0B1CA
:102570000368D3B10120184D40F25A222946174C66
:10258000A04740F25B22294618F1000018BF012045
:10259000A0474FF417722946301C18BF0120A047EE
:1025A0003D8A05FB08F5042405E00020E3E7002050
:1025B000E1E72D1B264465B131683846084B984742
:1025C000A542F6D23B8A93FBF4F204FB1234E4B248
:1025D000EFE70120BDE8F0818447000061150000AD
:1025E000AD24000008B558B103683BB101204FF499
:1025F0001F720449044B9847012008BD0020F6E7EC
:102600000020F4E7844700006115000070B487B033
:1026100006466C460C4D0FCD0FC495E8030084E8C8
:102620000300002005280AD806AB03EB800353F80B
:10263000183CB34201D00130F4E7C0B200E0002002
:1026400007B070BC704700BF9C47000010B584699C
:10265000237E13F0010F03D0A37D13F0010F12D1DD
:10266000237E13F0020F03D0A37D13F0020F0FD1CE
:10267000237E13F0040F15D0638B03F0370363B18F
:10268000FF23638310BD012323750368984710BDA2
:10269000022323758368984710BD4368A16AC9B2B5
:1026A000984710BD237EDB0900D110BD802323761F
:1026B000C3689847638B9BB26383F6E7034B9842EA
:1026C00000D07047024B1960FBE700BF00040043D5
:1026D0001802002008B5044B98478000C0B22E3085
:1026E00000F0FE0008BD00BF0D26000008B50C4B31
:1026F0009847002343B140F26B220A4900200A4B5D
:1027000098470023184608BD03EB4302D100074A4F
:102710000A44127E9042F5D00133DBB2EAE700BFF3
:102720000D26000008480000611500009C470000CD
:1027300038B504463C4B9847E36913F0010F22D1AA
:1027400000EB4003DA00394B1344DA6902F01C0253
:10275000E36913F0030FFBD1236813F0020F0BD0D2
:10276000236823F002032360E36913F0030FFBD116
:10277000E36913F0020FFBD142F001022260E3692A
:1027800013F0030FFBD1E36913F0010FFBD100EB52
:102790004003DA00254B1344DB692360E36913F03F
:1027A000030FFBD100EB4003DA00204B13441B6AFC
:1027B0006360E36913F01F0FFBD142000244D100B4
:1027C0001A4B0B445A6AA260DB6913F4005F0AD10A
:1027D00013F4C04F07D100EB4003DA00134B13444E
:1027E0001B8DA3810FE042000244D1000F4B0B442C
:1027F000198DA28961F30C02A28193F82A20A38982
:1028000062F34F33A381094A43001D18E9000D46C6
:10281000114491F82B10A1732A4492F82C3084F8BB
:102820003030002038BD00BFED2600009C4700007E
:1028300070B50C460646CB221849003018BF01205F
:10284000174B98472046174B9847054608B128462E
:1028500070BDB46131462046134B98472046134B58
:102860009847002416E0410900F01F02012393401D
:102870000F4A01F1200642F82630BFF34F8FBFF315
:102880006F8F01F1600642F8263042F821300130A6
:10289000C0B20134032CE6D9D9E700BF08480000D4
:1028A0006115000031270000BD260000D52600007C
:1028B00000E100E0836999627047836901229A759B
:1028C0007047836902229A757047000008B5024B71
:1028D0001868024B984708BD180200204D260000DA
:1028E00008B5024B1868024B984708BD1802002033
:1028F0004D26000008B5024B1868024B984708BDEA
:10290000180200204D26000008B5024B1868024B43
:10291000984708BD180200204D260000034B6FF0B9
:102920007F425A6005221A60704700BF10E000E045
:1029300008B5014B984708BD1D290000080E0DE0A1
:102940000D4B6FF07F40586098600B4B1B6813F481
:10295000803FFAD001F17F4101311046431EDAB2C7
:102960000028EDD1044B59609960034B1B6813F4A8
:10297000803FFAD0704700BF10E000E008B5C368A0
:102980009A7A12F0010F00D108BD01229A720368F1
:102990009847F9E738B505460469A37A13F0010FA3
:1029A00004D00123A372036803B19847637A13F03C
:1029B000020F05D00223A3726B680BB1284698471B
:1029C00038BD0000064B984203D0064B984203D016
:1029D0007047054B1960F8E7034B5960F8E700BFF3
:1029E00000380040003C00401C02002070B586B05A
:1029F00006466C46174D0FCD0FC495E8030084E8DA
:102A000003000023052B0AD806AA02EB830252F822
:102A1000182CB24201D00133F4E7DBB200E000230E
:102A20000022012A0BD802EB820081000A48415C97
:102A3000994202D00132D2B2F3E750B207E04FF42C
:102A4000F47206490020064B98474FF0FF3006B05D
:102A500070BD00BF24480000000000203C4800007A
:102A60006115000070B506460C4608466C4B984749
:102A70000546F4608F226B4901206B4B9847236910
:102A800013F0010F19D1236913F0030FFBD1236851
:102A900013F0020F0BD0236823F002032360236995
:102AA00013F0030FFBD1236913F0020FFBD10123B5
:102AB0002360236913F0030FFBD1236913F0010F87
:102AC000FBD105EB85039A00584B13445B682360E8
:102AD000236913F0030FFBD1AA002A449100534B42
:102AE0000B449A7AE2731A89E280012222735B68AE
:102AF00003F00C03082B5BD0002B6DD105EB850395
:102B00009A004A4B13449B89A383236913F0C00F97
:102B1000FBD105EB85039A00444B13441B8AE383E6
:102B2000236913F0C00FFBD10123637231462046A5
:102B30003F4B984705EB85039A003C4B1344B3F990
:102B40000230002B0DDB5A0903F01F03012101FAAB
:102B500003F32032374941F82230BFF34F8FBFF3E0
:102B60006F8F05EB85039A00304B1344B3F90230A5
:102B7000002B09DB5A0903F01F03012101FA03F3BB
:102B800060322C4941F8223005EB8505AA00274B1D
:102B90001344B3F90230002B08DB590903F01F037B
:102BA000012202FA03F3234A42F82130002070BDCB
:102BB0001E4B0B44DB68E361236913F0C00FFBD1AC
:102BC00005EB85039A00194B13441B6923622369A3
:102BD00013F0C00FFBD1A7E7042BA5D105EB8503AC
:102BE0009A00124B13441B7B2377236913F0C00F09
:102BF000FBD105EB85039A000C4B13441B7C6377D8
:102C0000236913F0C00FFBD105EB85039A00074B36
:102C10001344DB7AE376236913F0200FFBD183E7BB
:102C2000ED2900003C480000611500000000002074
:102C3000C529000000E100E070B506460C460846D4
:102C4000594B984705463461236913F0010F19D198
:102C5000236913F0030FFBD1236813F0020F0BD08D
:102C6000236823F002032360236913F0030FFBD1D1
:102C7000236913F0020FFBD101232360236913F0B2
:102C8000030FFBD1236913F0010FFBD105EB850383
:102C90009A00464B13445B682360236913F0030FCB
:102CA000FBD1AA002A449100404B0B449A7AE2736C
:102CB0001A89E280032222735B6803F00C03082B5D
:102CC00059D0002B6BD105EB85039A00374B134489
:102CD0009B89A383236913F0C00FFBD105EB850308
:102CE0009A00324B13441B8AE383236913F0C00F0D
:102CF000FBD1314620462E4B984705EB85039A00C1
:102D00002A4B1344B3F90230002B0DDB5A0903F0B0
:102D10001F03012101FA03F32032264941F8223032
:102D2000BFF34F8FBFF36F8F05EB85039A001F4BE7
:102D30001344B3F90230002B09DB5A0903F01F03D7
:102D4000012101FA03F360321A4941F8223005EB00
:102D50008505AA00154B1344B3F90230002B21DB83
:102D6000590903F01F03012202FA03F3114A42F842
:102D70002130002070BD0D4B0B44DB68E3612369FB
:102D800013F0C00FFBD105EB85039A00074B1344EA
:102D90001B692362236913F0C00FFBD1A9E74FF031
:102DA000FF3070BD002070BDED2900000000002044
:102DB000C529000000E100E0C268136843F0020387
:102DC0001360136913F0030FFBD170470269136896
:102DD00043F002031360136913F0030FFBD1704734
:102DE00070B50E461546046920461B4B9847820075
:102DF00002449100194B0B44DE601D615B6803F0D7
:102E00000C03082B16D000EB80039A00134B1344DD
:102E10009B89A383236913F0C00FFBD100EB8000D3
:102E200082000E4B13441B8AE383236913F0C00F07
:102E3000FBD170BDE661236913F0C00FFBD100EB3D
:102E400080008200054B13441B692362236913F041
:102E5000C00FFBD170BD00BFED29000000000020B5
:102E6000C268136913F0030FFBD11068C0F3400070
:102E700070470269136913F0030FFBD11068C0F3A8
:102E800040007047002070470020704710B5C068B0
:102E9000084B9847044640F29D1207490120074B12
:102EA000984704EB8404A200054B13449878054B23
:102EB000984710BDED2900003C4800006115000056
:102EC000000000202119000008B5024B1868024BD1
:102ED000984708BD1C0200209529000008B5024B48
:102EE0005868024B984708BD1C0200207D2900004D
:102EF000064B0122C3F8882002F18042C3F8A820C3
:102F00004FF04042C3F8A820704700BF0080004146
:102F1000064B0122C3F8842002F1804202F5003200
:102F2000C3F8A820024AC3F8A820704700800041D7
:102F3000000002C010B582B001A8094B9847094BA8
:102F4000D3F88020D3F8A040D3F890006040104020
:102F5000444001A8044B984704F0010002B010BDA2
:102F6000410D0000008000414F0D0000064B04227F
:102F7000C3F8882002F18042C3F8A8204FF04042F5
:102F8000C3F8A820704700BF00800041064B042210
:102F9000C3F8842002F1804202F50032C3F8A82071
:102FA000024AC3F8A820704700800041000002C018
:102FB00008B56420014B984708BD00BFB50D00005F
:102FC00010B5054B9847054CA047054B9847A047BF
:102FD000044B9847A04710BDF12E0000B12F000010
:102FE0008D2F0000112F000070B5054600240CE065
:102FF000134B9847134B9847134EB047134B9847C2
:103000006D00EDB2B0470134E4B2072C05D815F0DD
:10301000800FEDD10E4B9847ECE7094B9847094BD1
:103020009847094CA0470B4B98470546074B9847D4
:10303000A047074B9847B5FA85F0400970BD00BF1F
:10304000112F00008D2F0000B12F00006D2F000008
:10305000F12E0000352F000038B504460D46074B11
:103060009847074B9847074B98476000C0B20DB18F
:103070000130C0B2044B984738BD00BFF12E0000AC
:10308000B12F00006D2F0000E92F0000144B01222A
:10309000C3F89420C3F8842002F1804202F5003284
:1030A000C3F8A8200F49C3F8A81093F8C02002F075
:1030B000FE0283F8C0200422C3F89420C3F88420C1
:1030C00002F1804202F50032C3F8A820C3F8A8102C
:1030D00093F8C22002F0FE0283F8C220704700BFBE
:1030E00000800041000002C010B50C460021054BD5
:1030F000984718B9044B9847002010BD2046034B51
:103100009847F7E759300000C12F0000E92F000071
:10311000024A136801331360704700BF2402002085
:1031200010B582B001230DF1070200210748084CB9
:10313000A0479DF80730074A13709D2B04D8064A14
:10314000136843F48073136002B010BDC8060020FA
:10315000A10C00007A0B00202800002000B583B0ED
:1031600001A8074B9847074BD3F88020D3F8A0203D
:10317000D3F8903001A8044B984703B05DF804FBE6
:10318000410D0000008000414F0D000000B583B0EC
:1031900001A8064B9847064B1A681A6A1B6901A8D2
:1031A000044B984703B05DF804FB00BF410D0000DD
:1031B000008000414F0D000010B582B001A80F4BF8
:1031C00098470F4BD3F88010D3F8A020D3F8904045
:1031D00054400C40544001A80A4B984714F4000F87
:1031E00006D1094A136843F02003136002B010BDF2
:1031F000054B1A6800221A60F8E700BF410D000075
:10320000008000414F0D0000280000202DE9F04112
:1032100007460E462F4D4FF48058C5F898800A2077
:103220002D4CA047C5F894800A20A04708240CE044
:103230001022284B5A610A20274DA8472022254BEF
:103240009A610A20A847013C64B2002C0BDB2022C3
:10325000204B5A6147FA04F313F0010FE8D0102213
:103260001C4B9A61E7E71B4C202767611023A36181
:103270000A20194DA847A7610A20A8470F240CE08F
:103280001022144B5A610A20134DA8472022114BDB
:103290009A610A20A847013C64B2002C0BDB202273
:1032A0000C4B5A6146FA04F313F0010FE8D01022D8
:1032B000084B9A61E7E7074C202363610A20064D1B
:1032C000A8470A20A8474FF48053C4F89830BDE8B7
:1032D000F08100BF00800041B50D00002DE9F041F4
:1032E00082B00646334D4FF48057C5F898700A20D7
:1032F000314CA047C5F894700A20A04708240CE080
:1033000010222C4B5A610A202B4DA8472022294B12
:103310009A610A20A847013C64B2002C0BDB2022F2
:10332000244B5A6146FA04F313F0010FE8D010223F
:10333000204B9A61E7E71F4C2026666110236361EA
:103340000A201D4DA847A6610A20A84766610A20E9
:10335000A84700270F251EE0164C4FF02008C4F8A0
:1033600018800A20144EB047C4F8148001A8134BEB
:1033700098472268236A24695C4014405C4001A895
:103380000F4B9847C4F38014AC403C43A7B20A20CB
:10339000B047013D6DB2002DDEDA0A20064B98479A
:1033A0004FF48052034BC3F89820384602B0BDE872
:1033B000F08100BF00800041B50D0000410D00000C
:1033C0004F0D000010B5002102200E4CA04742F224
:1033D00013111120A04700211420A0474FF40A51D7
:1033E0001A20A04743F62D511B20A04747F21C018D
:1033F0002020A04700210820A04707211020A04737
:1034000010BD00BF0D32000010B500210920054C91
:10341000A04747F20E012020A04701212220A0470B
:1034200010BD00BF0D32000010B500210220CD4CB0
:10343000A04700210820A04700210920A047002123
:103440000A20A04700211420A0474FF40A511A2057
:10345000A04743F62D511B20A04747F20F01202023
:10346000A04701212220A04707212820A04740F69D
:103470005F012920A04744F203112A20A0474FF4FE
:10348000A3612B20A04701213020A047012140202B
:10349000A04743F62A014120A04745F2C831422007
:1034A000A04740F265614320A04785214420A04702
:1034B00040F688014520A0474FF490414620A047A0
:1034C00048F688014720A04740F217114820A0473E
:1034D00000217020A04744F20A718020A04748F2E2
:1034E00001018120A04715218220A04740F601015B
:1034F000C020A047E421C220A0474FF48271C5201C
:10350000A047A721C720A04740F6E441C820A04714
:1035100040F6E441C920A047E421CC20A047142173
:10352000CF20A0474FF48071D620A04741F21F0161
:10353000D720A0470021D820A0472321DB20A04787
:1035400043F62B41DC20A04742F64D31DD20A04759
:1035500043F65E61E020A0474921D320A047002127
:10356000D820A0472321DB20A04743F62B41DC20B5
:10357000A04742F64D31DD20A04740F29921E620D8
:10358000A0474FF45471E720A0474FF4FA71E820A8
:10359000A047E121EB20A0474BF219014FF48070C6
:1035A000A0474BF219014FF48170A0474FF44841F6
:1035B0004FF4C070A0474FF61F3140F28110A04772
:1035C0004FF61F314FF4C170A0474FF6123140F251
:1035D0008310A0474FF612114FF4C270A0474FF668
:1035E000031140F28510A0474FF602014FF4C3705B
:1035F000A0474FF20F3140F28710A0474FF20F3132
:103600004FF4C470A0474FF20F3140F28910A04729
:103610004FF20A314FF4C570A0474FF2011140F24A
:103620008B10A0474FF20A014FF4C670A0474FF22B
:103630004B2140F28D10A0474FF201214FF4C7708B
:10364000A0474FF2262140F28F10A0474FF22101F0
:103650004FF4C870A0474FF2010140F29110A0470B
:103660004FF202414FF4C970A0474FF2070140F2F8
:103670009310A0474FF20F214FF4CA70A0474FF2AA
:103680000F2140F29510A0474FF202214FF4CB706A
:10369000A0474FF2060140F29710A0474EF60841AE
:1036A0004FF4CC70A0474CF6010140F29910A047AE
:1036B0004FF448414FF4CD70A0474FF4484140F2D9
:1036C000A310A0474CF602414FF4D270A0474CF62D
:1036D000014140F2A510A0474CF602414FF4D370CF
:1036E000A0474CF6014140F2A710A0474CF602411A
:1036F0004FF4D470A0474CF6050140F2A910A04742
:103700004FF448414FF4D570A047302140F2AB1040
:10371000A04742F27B014FF4D670A04742F27101FC
:1037200040F2AD10A04771214FF4D770A04741F28D
:103730007F0140F2AF10A04741F272014FF4D87000
:10374000A04741F2740140F2B110A04771214FF43B
:10375000D970A047312140F2B310A04742F2BB110B
:1037600002E000BF0D3200004FF4DA70A04742F2D1
:10377000B10140F2B510A047B1214FF4DB70A04772
:1037800041F2BF0140F2B710A04741F2B2014FF43D
:10379000DC70A04741F2B40140F2B910A047B1215A
:1037A0004FF4DD70A047302140F2BB10A04730211C
:1037B0004FF4DE70A04742F27B1140F2BD10A047EB
:1037C00042F271014FF4DF70A047712140F2BF1047
:1037D000A04741F27F014FF4E070A04741F272012F
:1037E00040F2C110A04741F274014FF4E170A047CC
:1037F000712140F2C310A04731214FF4E270A0477D
:1038000042F2BB1140F2C510A04742F2B1014FF4A1
:10381000E370A047B12140F2C710A04741F2BF01B9
:103820004FF4E470A04741F2B20140F2C910A04742
:1038300041F2B4014FF4E570A047B12140F2CB1042
:10384000A04730214FF4E670A047302140F2CD1060
:10385000A04742F27B114FF4E770A04742F271019A
:1038600040F2CF10A04771214FF4E870A04741F219
:10387000710140F2D110A04771214FF4E970A047C7
:10388000312140F2D310A04742F2BB114FF4EA704D
:10389000A04742F2B10140F2D510A047B1214FF448
:1038A000EB70A04741F2B30140F2D710A04741F2BC
:1038B000B1014FF4EC70A047B12140F2D910A047FC
:1038C0003F214FF4ED70A047322140F2DB10A047BA
:1038D00030214FF4EE70A04710BD00BF10B500219D
:1038E0000A200D4CA04747F20F012020A0470721D6
:1038F0002820A04744F213112A20A047012130209C
:10390000A04701214020A04740F227114820A047AE
:1039100000217020A04710BD0D32000008B5064BF5
:1039200098470A20054B9847054B9847054B984701
:10393000054B984708BD00BFC5330000D50D0000FA
:103940000934000029340000DD380000014B1868FC
:10395000704700BF24020020024B03EB8000406848
:10396000704700BF2402002038B50D46642800D9F6
:103970006420C0EB00400B49A1FB00310A4C00223F
:1039800049092046094B98472046094B984725B9D5
:103990000222084BC3F8942038BD0222054BC3F81D
:1039A000982038BD1F85EB51980600206911000052
:1039B0002D1100000080004108B5C1B22320014B49
:1039C000984708BDE930000028B94FF40072054B54
:1039D000C3F8942070474FF40072024BC3F898204C
:1039E000704700BF0080004170B582B001A8124C42
:1039F000A047124DD5F88030D5F8A030D5F89030DA
:103A000001A80F4EB0476846A047D5F88020D5F8EA
:103A1000A030D5F890405C4014405C406846B04708
:103A200014F4007F04D10120064B984702B070BD0A
:103A30000020044B9847F9E7410D00000080004149
:103A40004F0D0000C939000038B50024104B1C6030
:103A5000104B1C60104B1C60104B1C60104B1C600A
:103A6000104D69684FF4FA5220460F4B98474FF4B7
:103A7000FA520E4B1A600E4B98470E4B18602B688B
:103A80002C602B682C602B6843F400732B6038BDCE
:103A9000D80B0020D40B0020840B0020D00B00207A
:103AA000800B00202800002069400000E08B0220ED
:103AB0004D390000CC0B002010B5124B1B68DBB257
:103AC000114C84F80832114B1B68DBB284F80932C0
:103AD00001224FF4806100200D4B9847012104F52D
:103AE00001700C4B984700200B4B98470B4B1A6802
:103AF00000221A6019681A601A6842F002021A60FD
:103B000010BD00BFD40B002024020020840B002035
:103B100069400000094100005541000028000020D4
:103B20005D4B1B685D4A126813445D4AD2F8042459
:103B3000934280F0B08010B5574B1B68574A12680B
:103B400013440433564AD2F80424934225D2524BEC
:103B50001B68524A11680B4403F00303C3F10403CA
:103B600011680B4413604F4B98474F4B1C68041B64
:103B700007204E4B98474FF47A7303FB00F39C42A7
:103B800034BF00240124002808BF002424B1484A7F
:103B9000136843F01003136010BD3F4C23683F4986
:103BA0000A68134403F0030303EB83035803414BF8
:103BB0001844414B1860036A03F223235B0A3F4A0F
:103BC0001360236843610B68836112683C4B1B6878
:103BD0009A421DD2394B196889B23A4B984720B1A5
:103BE000334A136843F480631360344A10683449DD
:103BF0000B681B1A0B6013682D4A51680B44536005
:103C0000254A13680133136000202F4B9847AAE719
:103C10002B4B196889B22B4B984720B1244A136863
:103C200043F4806313600020274B9847244B1A68A5
:103C30001F4B59680A445A6059684FF4FA520020E1
:103C4000224B984720B11A4A136843F4006313606B
:103C5000194B1A681A4B1868184909681B68C91A61
:103C600089B202EB4020174B984720B1104A1368E5
:103C700043F48063136011490B68114A10681B1AE2
:103C80000B48446823444360136809685B1A03F5D2
:103C9000FA531360B4E77047D40B0020840B002064
:103CA000240200204D390000CC0B002059390000BF
:103CB00028000020DC0B0020C80B0020DC8B022039
:103CC000E08B0220094100005541000069400000DE
:103CD0002DE9F0413A4B984702223A4B1A733A4E7B
:103CE0004FF08073B36100213848394B9847012069
:103CF000384B9847384B984722212320374B984719
:103D0000374C0125C4F81854364BC4F81C3484F8D9
:103D100020544FF47A73C4F82C34334BC4F8303445
:103D200084F83454314F04F582613846DFF8048159
:103D3000C04704F224413846C04738462C4B9847C8
:103D40002C4936202C4CA0472C493720A0472C4921
:103D50002E20A0472B491920A0474FF40054C6F845
:103D600094406420284B9847C6F898406420274B1D
:103D700098470020264B9847264B1880264B98479B
:103D800029460520254B984708E0254B98470AE02F
:103D9000244B98470CE03320234B9847234B1B6858
:103DA00013F0040FF1D1214B1B6813F0080FEFD172
:103DB0001E4B1B6813F0100FEDD01D4B9847EAE720
:103DC000D10200000038004000800041C8060020F9
:103DD000750C0000C93900008D300000E93000008A
:103DE000240200201131000021310000380700209A
:103DF000911200005D3100006D0E0000B93100002D
:103E0000E93900008D310000D50D0000B50D00002E
:103E1000DD320000780B00201D39000069390000F8
:103E2000493A0000213B0000B93900002800002079
:103E3000B93A0000CD12000010B582B00748026800
:103E4000947F537B126801798068003418BF012485
:103E50000094034CA04702B010BD00BF5C060020D8
:103E6000710F000008B104207047F0B583B004461C
:103E7000454BDB68002B50D0870033F92050B5F15B
:103E8000FF3F4AD0EDB26E0901A8404B9847404928
:103E9000F301CA18C958136A16695E400E405E40A5
:103EA00001A83C4B984705F01F05012303FA05F5CF
:103EB000354214BF1A460022334BDB681F447B880F
:103EC0009A4206D0304B03EB44140423A37602201D
:103ED00047E02D4B03EB44139B7E042B09D0012BB1
:103EE0000ED0294B03EB44139B7E032B1DD10320E3
:103EF00037E0254B03EB44140123A376022030E086
:103F0000214B03EB441302229A76234A1A610122C1
:103F10005A77002283F82E20E3E71B4B03EB441370
:103F20009B7E033BDBB2012B1DD9174B1B799C42B7
:103F300026D0154B1B8E2BBB012040F22C4217497B
:103F4000174B9847104D2C7105F110036401234461
:103F50002B60144B98472C44A07E022814BF0020ED
:103F6000012003B0F0BD084B03EB441302229A7604
:103F7000094A1A6101225A77002283F82E20D4E7D9
:103F80000120DAE70020D8E75C060020410D0000A0
:103F9000008000414F0D0000801A060050480000CC
:103FA00061150000393E000008B5044B197901B1D4
:103FB00008BD9868024B9847FAE700BF5C060020EE
:103FC000AD0F000030B400233BB1084BFF241C713F
:103FD0009860D9605A6330BC7047044C04EB4314BA
:103FE0000425A5760133DBB2EEE700BF5C060020B6
:103FF000194B5B6B5BB370B582B0850033F9203031
:10400000B3F1FF3F25D0DEB2740901A8134B9847E6
:104010001349E301CA18C958136A14695C400C407B
:104020005C4001A80F4B984706F01F03012202FADB
:1040300003F3234208BF0022074B5B6B1D446B88D0
:104040009A4202D0002002B070BD0120FBE70020A0
:1040500070470020F7E700BF5C060020410D00001C
:10406000008000414F0D0000F0B583B007460E46BA
:1040700015461C4B9847044610B1204603B0F0BDCE
:104080003846194B9847C0B9012D1AD91749184B12
:104090001B68DB7A13F0080F00D17602144B986886
:1040A0000123019300954FF400733246114EB0473F
:1040B00048B9114B98470524DFE70F4B9847072471
:1040C000DBE70E49E3E70A4B98680D4B98470D4B29
:1040D00003401BB9064B1D861D87CEE7064B98474C
:1040E0000524CAE7653E0000F13F00001991100069
:1040F0005C06002031100000A93F00001891080064
:1041000009100000000058E470B506460C460D4D3D
:10411000288E40F2FA520C49A04234BF0020012000
:104120000A4B984722463146A868094B984718B968
:1041300000222A86052070BD024A138E1C1B14869D
:10414000002070BD5C060020504800006115000092
:104150007510000010B50446144B9868144B98472E
:1041600008B9052010BD94B10022104B1A860F4BE0
:104170001B8F012B11D0002243F20C110B4B9868BE
:104180000C4B984768B90C4B9847052010BD074B5E
:104190001B8E002BEBD0002010BD074B9847002052
:1041A00010BD054B9847002010BD00BF5C060020E5
:1041B000AD100000D90F0000A93F000008B5034969
:1041C0000A4604310248034B984708BD30000020DE
:1041D00020070020C53F000053B94AB9002908BF95
:1041E00000281CBF4FF0FF314FF0FF3000F07AB9CC
:1041F000ADF1080C6DE904CE00F006F8DDF804E03E
:10420000DDE9022304B070472DE9F0478C460D46E6
:104210000446089E002B51D18A4217466DD9B2FA46
:1042200082FEBEF1000F0BD0CEF1200C01FA0EF58C
:1042300020FA0CFC02FA0EF74CEA050C00FA0EF418
:104240004FEA174A250CBCFBFAF81FFA87F90AFB5C
:1042500018CC45EA0C4508FB09F3AB420AD9ED1925
:1042600008F1FF3280F02381AB4240F22081A8F1B7
:1042700002083D44ED1AA4B2B5FBFAF00AFB105552
:1042800044EA054400FB09F9A14509D9E41900F104
:10429000FF3380F00A81A14540F2078102383C4497
:1042A000A4EB090440EA08400021002E61D024FA62
:1042B0000EF4002334607360BDE8F0878B4207D9A9
:1042C000002E54D0002186E821000846BDE8F08782
:1042D000B3FA83F1002940F08E80AB4202D38242D0
:1042E00000F2FA80841A65EB03050120AC46002E2B
:1042F0003FD086E81010BDE8F08712B90127B7FB60
:10430000F2F7B7FA87FEBEF1000F34D1EB1B3A0C7F
:104310001FFA87FC0121B3FBF2F8250C02FB1833CE
:1043200045EA03450CFB08F3AB4207D9ED1908F148
:10433000FF3002D2AB4200F2D1808046ED1AA3B228
:10434000B5FBF2F002FB105543EA05440CFB00FC00
:10435000A44507D9E41900F1FF3302D2A44500F2C5
:10436000B8801846A4EB0C0440EA08409DE73146AB
:104370003046BDE8F087CEF1200405FA0EF307FAC7
:104380000EF720FA04F83A0C25FA04F448EA030878
:10439000B4FBF2F14FEA184502FB11441FFA87FC07
:1043A00045EA044501FB0CF3AB4200FA0EF409D9CF
:1043B000ED1901F1FF3080F08A80AB4240F2878036
:1043C00002393D44EB1A1FFA88F5B3FBF2F002FB09
:1043D000103345EA034500FB0CF3AB4207D9ED1956
:1043E00000F1FF386FD2AB426DD902383D44EB1A71
:1043F00040EA01418FE7C1F1200722FA07F88B401C
:1044000005FA01F448EA030320FA07FE4FEA134CC9
:10441000FD404EEA040EB5FBFCF94FEA1E440CFBCE
:1044200019551FFA83F844EA054509FB08F4AC4224
:1044300002FA01F200FA01FA08D9ED1809F1FF3089
:1044400043D2AC4241D9A9F102091D442D1B1FFAE8
:104450008EFEB5FBFCF00CFB10554EEA054400FB4C
:1044600008F8A04507D9E41800F1FF3529D2A04586
:1044700027D902381C4440EA0940A4EB0804A0FBF9
:1044800002894C45C6464D4615D312D056B1BAEBFB
:104490000E0364EB050404FA07F7CB401F43CC403E
:1044A000376074600021BDE8F0871846F8E6904652
:1044B000E0E6C245EAD2B8EB020E69EB030501382B
:1044C000E4E72846D7E7404691E78146BEE7014644
:1044D00078E702383C4445E7084608E7A8F10208B7
:1044E0003D442BE7704700BF70B50D4E0D4CA41B2B
:1044F000A4100025A54209D10B4E0C4C00F0B2F9D6
:10450000A41BA4100025A54205D170BD56F8253086
:1045100098470135EEE756F8253098470135F2E720
:1045200070480000704800007048000074480000A7
:104530002E2E2F68616C2F7372632F68616C5F6120
:1045400064635F73796E632E630000002E2E2F6804
:10455000616C2F7372632F68616C5F63616D65724C
:10456000615F6173796E632E630000002E2E2F68E9
:10457000616C2F7372632F68616C5F6D63695F7329
:10458000796E632E630000002E2E2F68616C2F73EE
:1045900072632F68616C5F70776D2E63000000009E
:1045A0002E2E2F68616C2F7372632F68616C5F749D
:1045B000696D65722E6300002E2E2F68616C2F735B
:1045C00072632F68616C5F75736172745F61737978
:1045D0006E632E63000000002E2E2F68616C2F7515
:1045E00074696C732F7372632F7574696C735F6C6D
:1045F0006973742E630000002E2E2F68616C2F7576
:1046000074696C732F7372632F7574696C735F7246
:10461000696E676275666665722E63000000000051
:10462000180000000018000000000000000000005A
:10463000000000002E2E2F68706C2F6164632F68BD
:10464000706C5F6164632E63000000000050200006
:104650000000000A00000000000000000000000050
:10466000000000000000000000000000000000004A
:10467000000000000000000000000000000000003A
:10468000000000000000000000000000000000002A
:10469000000000000000000000000000000000001A
:1046A000000000000000000000000000000000000A
:1046B00000000000000000000000000000000000FA
:1046C00000000000000000000000000000000000EA
:1046D00000000000000000000000000000000000DA
:1046E00000000000000000000000000000000000CA
:1046F00000000000000000000000000000000000BA
:1047000000000000000000000000000000000000A9
:104710000000000000000000000000000000000099
:104720000000000000000000000000000000000089
:104730000000000000000000000000000000000079
:104740000000000000000000000000000600000063
:1047500036000000070000003700000009000000DC
:10476000190000000E0000002E0000002E2E2F6801
:10477000706C2F6569632F68706C5F6569632E6369
:10478000000000002E2E2F68706C2F736468632F5A
:1047900068706C5F736468632E63000000300040D3
:1047A000003400400020014100400141000000436E
:1047B0000004004305000000040010400000030056
:1047C0000200700058FF0000000000000000000020
:1047D00000000000000000000000000000000000D9
:1047E00000000000000000000000000000000000C9
:1047F00000000000000000000000000000000000B9
:1048000000000000000000002E2E2F68706C2F7337
:104810006572636F6D2F68706C5F736572636F6D27
:104820002E63000000380040003C004000A0014121
:1048300000C0014100140042001800422E2E2F68D3
:10484000706C2F74632F68706C5F74632E6300004C
:104850002E2E2F73645F6D6D632F73645F6D6D63B8
:104860002E630000F8B500BFF8BC08BC9E46704738
:1048700089020000F8B500BFF8BC08BC9E4670472E
:0448800065020000CD
:0848840084F9FF7F0100000030
:10488C0000006B00000000000000003265EA000030
:10489C003275000001006C000803000000000000ED
:1048AC004C1D00000000000002000000000400008D
:0848BC00FFFF010025000000D0
:00000001FF
